{
  "address": "0xc6500a85F92F19f86B8db2B06CD82a2d9e909a59",
  "abi": [
    {
      "inputs": [
        {
          "internalType": "string",
          "name": "_auroraMainnetAccountId",
          "type": "string"
        },
        {
          "internalType": "contract IERC20",
          "name": "_wNEAR",
          "type": "address"
        },
        {
          "internalType": "address",
          "name": "_priceFeedAddr",
          "type": "address"
        },
        {
          "internalType": "uint256",
          "name": "_priceValidTimeRange",
          "type": "uint256"
        },
        {
          "internalType": "address",
          "name": "pairIdsOwner",
          "type": "address"
        }
      ],
      "stateMutability": "nonpayable",
      "type": "constructor"
    },
    {
      "inputs": [],
      "name": "AccessControlBadConfirmation",
      "type": "error"
    },
    {
      "inputs": [
        {
          "internalType": "address",
          "name": "account",
          "type": "address"
        },
        {
          "internalType": "bytes32",
          "name": "neededRole",
          "type": "bytes32"
        }
      ],
      "name": "AccessControlUnauthorizedAccount",
      "type": "error"
    },
    {
      "anonymous": false,
      "inputs": [
        {
          "indexed": true,
          "internalType": "bytes32",
          "name": "role",
          "type": "bytes32"
        },
        {
          "indexed": true,
          "internalType": "bytes32",
          "name": "previousAdminRole",
          "type": "bytes32"
        },
        {
          "indexed": true,
          "internalType": "bytes32",
          "name": "newAdminRole",
          "type": "bytes32"
        }
      ],
      "name": "RoleAdminChanged",
      "type": "event"
    },
    {
      "anonymous": false,
      "inputs": [
        {
          "indexed": true,
          "internalType": "bytes32",
          "name": "role",
          "type": "bytes32"
        },
        {
          "indexed": true,
          "internalType": "address",
          "name": "account",
          "type": "address"
        },
        {
          "indexed": true,
          "internalType": "address",
          "name": "sender",
          "type": "address"
        }
      ],
      "name": "RoleGranted",
      "type": "event"
    },
    {
      "anonymous": false,
      "inputs": [
        {
          "indexed": true,
          "internalType": "bytes32",
          "name": "role",
          "type": "bytes32"
        },
        {
          "indexed": true,
          "internalType": "address",
          "name": "account",
          "type": "address"
        },
        {
          "indexed": true,
          "internalType": "address",
          "name": "sender",
          "type": "address"
        }
      ],
      "name": "RoleRevoked",
      "type": "event"
    },
    {
      "inputs": [],
      "name": "CALLBACK_ROLE",
      "outputs": [
        {
          "internalType": "bytes32",
          "name": "",
          "type": "bytes32"
        }
      ],
      "stateMutability": "view",
      "type": "function"
    },
    {
      "inputs": [],
      "name": "DEFAULT_ADMIN_ROLE",
      "outputs": [
        {
          "internalType": "bytes32",
          "name": "",
          "type": "bytes32"
        }
      ],
      "stateMutability": "view",
      "type": "function"
    },
    {
      "inputs": [],
      "name": "PAIR_IDS_OWNER",
      "outputs": [
        {
          "internalType": "bytes32",
          "name": "",
          "type": "bytes32"
        }
      ],
      "stateMutability": "view",
      "type": "function"
    },
    {
      "inputs": [],
      "name": "auroraMainnetAccountId",
      "outputs": [
        {
          "internalType": "string",
          "name": "",
          "type": "string"
        }
      ],
      "stateMutability": "view",
      "type": "function"
    },
    {
      "inputs": [
        {
          "internalType": "string",
          "name": "tokenA",
          "type": "string"
        },
        {
          "internalType": "string",
          "name": "tokenB",
          "type": "string"
        },
        {
          "internalType": "uint8",
          "name": "decimalsTokenB",
          "type": "uint8"
        }
      ],
      "name": "getPairRate",
      "outputs": [
        {
          "internalType": "uint256",
          "name": "",
          "type": "uint256"
        }
      ],
      "stateMutability": "view",
      "type": "function"
    },
    {
      "inputs": [
        {
          "internalType": "bytes32",
          "name": "pairId",
          "type": "bytes32"
        }
      ],
      "name": "getPythPrice",
      "outputs": [],
      "stateMutability": "nonpayable",
      "type": "function"
    },
    {
      "inputs": [
        {
          "internalType": "bytes32",
          "name": "pairId",
          "type": "bytes32"
        }
      ],
      "name": "getPythPriceCallback",
      "outputs": [],
      "stateMutability": "nonpayable",
      "type": "function"
    },
    {
      "inputs": [
        {
          "internalType": "bytes32",
          "name": "role",
          "type": "bytes32"
        }
      ],
      "name": "getRoleAdmin",
      "outputs": [
        {
          "internalType": "bytes32",
          "name": "",
          "type": "bytes32"
        }
      ],
      "stateMutability": "view",
      "type": "function"
    },
    {
      "inputs": [
        {
          "internalType": "bytes32",
          "name": "role",
          "type": "bytes32"
        },
        {
          "internalType": "address",
          "name": "account",
          "type": "address"
        }
      ],
      "name": "grantRole",
      "outputs": [],
      "stateMutability": "nonpayable",
      "type": "function"
    },
    {
      "inputs": [
        {
          "internalType": "bytes32",
          "name": "role",
          "type": "bytes32"
        },
        {
          "internalType": "address",
          "name": "account",
          "type": "address"
        }
      ],
      "name": "hasRole",
      "outputs": [
        {
          "internalType": "bool",
          "name": "",
          "type": "bool"
        }
      ],
      "stateMutability": "view",
      "type": "function"
    },
    {
      "inputs": [],
      "name": "near",
      "outputs": [
        {
          "internalType": "bool",
          "name": "initialized",
          "type": "bool"
        },
        {
          "internalType": "contract IERC20",
          "name": "wNEAR",
          "type": "address"
        }
      ],
      "stateMutability": "view",
      "type": "function"
    },
    {
      "inputs": [],
      "name": "nearRepresentitiveImplicitAddress",
      "outputs": [
        {
          "internalType": "address",
          "name": "",
          "type": "address"
        }
      ],
      "stateMutability": "nonpayable",
      "type": "function"
    },
    {
      "inputs": [],
      "name": "priceFeedAddr",
      "outputs": [
        {
          "internalType": "address",
          "name": "",
          "type": "address"
        }
      ],
      "stateMutability": "view",
      "type": "function"
    },
    {
      "inputs": [
        {
          "internalType": "bytes32",
          "name": "",
          "type": "bytes32"
        }
      ],
      "name": "priceMap",
      "outputs": [
        {
          "internalType": "int64",
          "name": "price",
          "type": "int64"
        },
        {
          "internalType": "uint64",
          "name": "conf",
          "type": "uint64"
        },
        {
          "internalType": "int32",
          "name": "expo",
          "type": "int32"
        },
        {
          "internalType": "uint256",
          "name": "publishTime",
          "type": "uint256"
        }
      ],
      "stateMutability": "view",
      "type": "function"
    },
    {
      "inputs": [
        {
          "internalType": "bytes32",
          "name": "pairId",
          "type": "bytes32"
        },
        {
          "internalType": "uint8",
          "name": "targetPriceDecimals",
          "type": "uint8"
        }
      ],
      "name": "readPrice",
      "outputs": [
        {
          "internalType": "uint256",
          "name": "",
          "type": "uint256"
        }
      ],
      "stateMutability": "view",
      "type": "function"
    },
    {
      "inputs": [
        {
          "internalType": "bytes32",
          "name": "pairId",
          "type": "bytes32"
        },
        {
          "internalType": "uint8",
          "name": "targetPriceDecimals",
          "type": "uint8"
        }
      ],
      "name": "readPriceInfo",
      "outputs": [
        {
          "internalType": "uint256",
          "name": "",
          "type": "uint256"
        },
        {
          "internalType": "uint256",
          "name": "",
          "type": "uint256"
        }
      ],
      "stateMutability": "view",
      "type": "function"
    },
    {
      "inputs": [
        {
          "internalType": "bytes32",
          "name": "pairId",
          "type": "bytes32"
        },
        {
          "internalType": "uint8",
          "name": "targetPriceDecimals",
          "type": "uint8"
        }
      ],
      "name": "readPriceUnSafe",
      "outputs": [
        {
          "internalType": "uint256",
          "name": "",
          "type": "uint256"
        }
      ],
      "stateMutability": "view",
      "type": "function"
    },
    {
      "inputs": [
        {
          "internalType": "bytes32",
          "name": "role",
          "type": "bytes32"
        },
        {
          "internalType": "address",
          "name": "callerConfirmation",
          "type": "address"
        }
      ],
      "name": "renounceRole",
      "outputs": [],
      "stateMutability": "nonpayable",
      "type": "function"
    },
    {
      "inputs": [
        {
          "internalType": "address",
          "name": "adminAddress",
          "type": "address"
        }
      ],
      "name": "replaceAdmin",
      "outputs": [],
      "stateMutability": "nonpayable",
      "type": "function"
    },
    {
      "inputs": [
        {
          "internalType": "bytes32",
          "name": "role",
          "type": "bytes32"
        },
        {
          "internalType": "address",
          "name": "account",
          "type": "address"
        }
      ],
      "name": "revokeRole",
      "outputs": [],
      "stateMutability": "nonpayable",
      "type": "function"
    },
    {
      "inputs": [
        {
          "internalType": "uint256",
          "name": "_priceValidTimeRange",
          "type": "uint256"
        }
      ],
      "name": "setPriceValidTimeRange",
      "outputs": [],
      "stateMutability": "nonpayable",
      "type": "function"
    },
    {
      "inputs": [
        {
          "internalType": "string[]",
          "name": "tokenA",
          "type": "string[]"
        },
        {
          "internalType": "bytes32[]",
          "name": "_pairId",
          "type": "bytes32[]"
        }
      ],
      "name": "setTokenUsdPairId",
      "outputs": [],
      "stateMutability": "nonpayable",
      "type": "function"
    },
    {
      "inputs": [
        {
          "internalType": "bytes4",
          "name": "interfaceId",
          "type": "bytes4"
        }
      ],
      "name": "supportsInterface",
      "outputs": [
        {
          "internalType": "bool",
          "name": "",
          "type": "bool"
        }
      ],
      "stateMutability": "view",
      "type": "function"
    },
    {
      "inputs": [
        {
          "internalType": "string",
          "name": "",
          "type": "string"
        }
      ],
      "name": "tokenUsdPairId",
      "outputs": [
        {
          "internalType": "bytes32",
          "name": "",
          "type": "bytes32"
        }
      ],
      "stateMutability": "view",
      "type": "function"
    },
    {
      "inputs": [],
      "name": "wNEAR",
      "outputs": [
        {
          "internalType": "address",
          "name": "",
          "type": "address"
        }
      ],
      "stateMutability": "view",
      "type": "function"
    }
  ],
  "transactionHash": "0x460121c24c46dd26093251b099580c75899a85bf8187b4d5b3dce32406e5bc0e",
  "args": [
    "aurora",
    "0x4861825e75ab14553e5af711ebbe6873d369d146",
    "0x74f09cb3c7e2A01865f424FD14F6dc9A14E3e94E",
    300,
    "0xCDD8c6b04044A3FA9Ba0500C469500CfCb66F0fC"
  ],
  "numDeployments": 3,
  "solcInputHash": "c9626a64699437ed484c108f9f5f554a",
  "bytecode": "0x60806040523480156200001157600080fd5b506040516200296e3803806200296e83398101604081905262000034916200033f565b620000476000336200021c565b6200021c565b5060405163a33598bf60e01b8152306004820152620000e5907f73f9a0f79d0de650ebb1c7d68b67125ab5d93ce97641ba33e5e1e4b5f481921c9073F3AAd56Deb1A6322a1b5D8E565499438bd63768f9063a33598bf90602401602060405180830381865af4158015620000bf573d6000803e3d6000fd5b505050506040513d601f19601f8201168201806040525081019062000041919062000437565b50620001127f6a482020e6149e8c4161ee4a5e78b6a5c5ab551224cc5909aa2e9e7a28522732826200021c565b506003620001218682620004ed565b50604051630daa036f60e21b81526001600160a01b038516600482015273F3AAd56Deb1A6322a1b5D8E565499438bd63768f906336a80dbc906024016040805180830381865af41580156200017a573d6000803e3d6000fd5b505050506040513d601f19601f82011682018060405250810190620001a09190620005b9565b8051600480546020909301516001600160a81b0319909316911515610100600160a81b031916919091176101006001600160a01b0393841602179055600580546001600160a01b031990811696831696909617905560018054861694909116938417905550600680549093169091179091556007555062000623565b6000828152602081815260408083206001600160a01b038516845290915281205460ff16620002c1576000838152602081815260408083206001600160a01b03861684529091529020805460ff19166001179055620002783390565b6001600160a01b0316826001600160a01b0316847f2f8788117e7eff1d82e926ec794901d17c78024a50270940304540a733656f0d60405160405180910390a4506001620002c5565b5060005b92915050565b634e487b7160e01b600052604160045260246000fd5b604051601f8201601f191681016001600160401b03811182821017156200030c576200030c620002cb565b604052919050565b6001600160a01b03811681146200032a57600080fd5b50565b80516200033a8162000314565b919050565b600080600080600060a086880312156200035857600080fd5b85516001600160401b03808211156200037057600080fd5b818801915088601f8301126200038557600080fd5b8151818111156200039a576200039a620002cb565b60209150620003b2601f8201601f19168301620002e1565b8181528a83838601011115620003c757600080fd5b60005b82811015620003e7578481018401518282018501528301620003ca565b5060008383830101528098505050620004028189016200032d565b9550505062000414604087016200032d565b9250606086015191506200042b608087016200032d565b90509295509295909350565b6000602082840312156200044a57600080fd5b8151620004578162000314565b9392505050565b600181811c908216806200047357607f821691505b6020821081036200049457634e487b7160e01b600052602260045260246000fd5b50919050565b601f821115620004e857600081815260208120601f850160051c81016020861015620004c35750805b601f850160051c820191505b81811015620004e457828155600101620004cf565b5050505b505050565b81516001600160401b03811115620005095762000509620002cb565b62000521816200051a84546200045e565b846200049a565b602080601f831160018114620005595760008415620005405750858301515b600019600386901b1c1916600185901b178555620004e4565b600085815260208120601f198616915b828110156200058a5788860151825594840194600190910190840162000569565b5085821015620005a95787850151600019600388901b60f8161c191681555b5050505050600190811b01905550565b600060408284031215620005cc57600080fd5b604080519081016001600160401b0381118282101715620005f157620005f1620002cb565b604052825180151581146200060557600080fd5b81526020830151620006178162000314565b60208201529392505050565b61233b80620006336000396000f3fe608060405234801561001057600080fd5b50600436106101735760003560e01c8063918d2f41116100de578063cb4a4b0011610097578063d5f9ea2f11610071578063d5f9ea2f1461040e578063e602af7614610416578063f6e2522014610452578063fa1dcfaf1461046557600080fd5b8063cb4a4b00146103d5578063ce3d448b146103e8578063d547741f146103fb57600080fd5b8063918d2f41146102ea57806391d1485414610311578063a217fddf14610324578063a51a68181461032c578063c4f4face14610341578063c8507cbd1461035457600080fd5b80632f2ff15d116101305780632f2ff15d1461024c57806336568abe1461025f57806360a83ac614610272578063893239eb1461029d5780638b7121da146102c457806390e775f4146102d757600080fd5b806301ffc9a71461017857806302834588146101a0578063078d2605146101cb578063248a9ca3146101e057806329b4cc5a146102115780632f16d6c814610239575b600080fd5b61018b610186366004611684565b610478565b60405190151581526020015b60405180910390f35b6005546101b3906001600160a01b031681565b6040516001600160a01b039091168152602001610197565b6101de6101d93660046116b5565b6104af565b005b6102036101ee3660046116b5565b60009081526020819052604090206001015490565b604051908152602001610197565b61022461021f3660046116e4565b610515565b60408051928352602083019190915201610197565b6101de6102473660046116b5565b6105e3565b6101de61025a366004611725565b610896565b6101de61026d366004611725565b6108c1565b610203610280366004611862565b805160208183018101805160098252928201919093012091525481565b6102037f6a482020e6149e8c4161ee4a5e78b6a5c5ab551224cc5909aa2e9e7a2852273281565b6102036102d2366004611896565b6108f9565b6101de6102e5366004611992565b610a49565b6102037f73f9a0f79d0de650ebb1c7d68b67125ab5d93ce97641ba33e5e1e4b5f481921c81565b61018b61031f366004611725565b610b35565b610203600081565b610334610b5e565b6040516101979190611ab5565b6101de61034f366004611ac8565b610bec565b61039e6103623660046116b5565b60086020526000908152604090208054600190910154600782900b916001600160401b03600160401b82041691600160801b90910460030b9084565b604051610197949392919060079490940b84526001600160401b0392909216602084015260030b6040830152606082015260800190565b6102036103e33660046116e4565b610c05565b6006546101b3906001600160a01b031681565b6101de610409366004611725565b610c6b565b6101b3610c90565b6004546104339060ff81169061010090046001600160a01b031682565b6040805192151583526001600160a01b03909116602083015201610197565b6101de6104603660046116b5565b610d0b565b6102036104733660046116e4565b61104b565b60006001600160e01b03198216637965db0b60e01b14806104a957506301ffc9a760e01b6001600160e01b03198316145b92915050565b60006104ba816110fb565b6000821161050f5760405162461bcd60e51b815260206004820152601b60248201527f496e76616c696420707269636556616c696454696d6552616e6765000000000060448201526064015b60405180910390fd5b50600755565b600082815260086020908152604080832081516080810183528154600781810b83526001600160401b03600160401b83041695830195909552600160801b900460030b928101929092526001015460608201819052915483926105789190611afb565b4211156105bb5760405162461bcd60e51b8152602060048201526011602482015270141c9a58d9481a5cc81bdd5d19185d1959607a1b6044820152606401610506565b60006105c78286611105565b905060006105d58387611200565b919791965090945050505050565b7f73f9a0f79d0de650ebb1c7d68b67125ab5d93ce97641ba33e5e1e4b5f481921c61060d816110fb565b60016040516310cdb49360e01b81526000600482015273F3AAd56Deb1A6322a1b5D8E565499438bd63768f906310cdb49390602401600060405180830381865af415801561065f573d6000803e3d6000fd5b505050506040513d6000823e601f3d908101601f191682016040526106879190810190611b69565b51600281111561069957610699611b0e565b146106e65760405162461bcd60e51b815260206004820152601d60248201527f6765745079746850726963652063616c6c206661696c65642d4e4541520000006044820152606401610506565b6040516310cdb49360e01b81526000600482018190529073F3AAd56Deb1A6322a1b5D8E565499438bd63768f906310cdb49390602401600060405180830381865af4158015610739573d6000803e3d6000fd5b505050506040513d6000823e601f3d908101601f191682016040526107619190810190611b69565b6020015190508060018151811061077a5761077a611bec565b01602001516001600160f81b031916156107d65760405162461bcd60e51b815260206004820152601f60248201527f6765745079746850726963652063616c6c206661696c65642d4175726f7261006044820152606401610506565b60006108006107fb6107f68460028087516107f19190611c02565b6112de565b6113eb565b61141c565b9050808060200190518101906108169190611c2c565b6000948552600860209081526040958690208251815492840151978401516001600160401b039182166fffffffffffffffffffffffffffffffff1990941693909317600160401b91909816029690961763ffffffff60801b1916600160801b63ffffffff9092169190910217855560600151600190940193909355505050565b6000828152602081905260409020600101546108b1816110fb565b6108bb838361145c565b50505050565b6001600160a01b03811633146108ea5760405163334bd91960e11b815260040160405180910390fd5b6108f482826114ee565b505050565b60008060001b60098560405161090f9190611cb4565b9081526020016040518091039020540361096b5760405162461bcd60e51b815260206004820152601c60248201527f6e6f20746f6b656e55736450616972496420666f7220746f6b656e41000000006044820152606401610506565b6000801b60098460405161097f9190611cb4565b908152602001604051809103902054036109db5760405162461bcd60e51b815260206004820152601c60248201527f6e6f20746f6b656e55736450616972496420666f7220746f6b656e42000000006044820152606401610506565b6000610a066009866040516109f09190611cb4565b908152602001604051809103902054601261104b565b90506000610a1d6009866040516109f09190611cb4565b905080610a2b85600a611db4565b610a359084611dc3565b610a3f9190611dda565b9695505050505050565b7f6a482020e6149e8c4161ee4a5e78b6a5c5ab551224cc5909aa2e9e7a28522732610a73816110fb565b8151835114610ac45760405162461bcd60e51b815260206004820152601a60248201527f4172726179206c656e6774687320646f206e6f74206d617463680000000000006044820152606401610506565b60005b83518110156108bb57828181518110610ae257610ae2611bec565b60200260200101516009858381518110610afe57610afe611bec565b6020026020010151604051610b139190611cb4565b9081526040519081900360200190205580610b2d81611dfc565b915050610ac7565b6000918252602082815260408084206001600160a01b0393909316845291905290205460ff1690565b60038054610b6b90611e15565b80601f0160208091040260200160405190810160405280929190818152602001828054610b9790611e15565b8015610be45780601f10610bb957610100808354040283529160200191610be4565b820191906000526020600020905b815481529060010190602001808311610bc757829003601f168201915b505050505081565b610bf7600082610896565b610c026000336108c1565b50565b600082815260086020908152604080832081516080810183528154600781900b82526001600160401b03600160401b82041694820194909452600160801b90930460030b91830191909152600101546060820152610c638184611105565b949350505050565b600082815260208190526040902060010154610c86816110fb565b6108bb83836114ee565b60405163a33598bf60e01b815230600482015260009073F3AAd56Deb1A6322a1b5D8E565499438bd63768f9063a33598bf90602401602060405180830381865af4158015610ce2573d6000803e3d6000fd5b505050506040513d601f19601f82011682018060405250810190610d069190611e4f565b905090565b600081604051602401610d2091815260200190565b60408051601f198184030181529181526020820180516001600160e01b03166331d98b3f60e01b17905260065490516312496a1b60e01b815291925060009173F3AAd56Deb1A6322a1b5D8E565499438bd63768f9163925be54d9160049160039186916001600160a01b0316908290739Ff1Ef63DCB58E74e963cbd30558FFaD30A4D57a906312496a1b90610db8908c908901611ab5565b600060405180830381865af4158015610dd5573d6000803e3d6000fd5b505050506040513d6000823e601f3d908101601f19168201604052610dfd9190810190611e6c565b604051602001610e109493929190611ea0565b6040516020818303038152906040526000655af3107a40006040518663ffffffff1660e01b8152600401610e48959493929190611eef565b600060405180830381865af4158015610e65573d6000803e3d6000fd5b505050506040513d6000823e601f3d908101601f19168201604052610e8d91908101906120cf565b90506000600473F3AAd56Deb1A6322a1b5D8E565499438bd63768f6331b0e0e490913087604051602401610ec391815260200190565b60408051601f198184030181529181526020820180516001600160e01b03166305e2dad960e31b1790525160e085901b6001600160e01b0319168152610f19939291906000906509184e72a00090600401612103565b600060405180830381865af4158015610f36573d6000803e3d6000fd5b505050506040513d6000823e601f3d908101601f19168201604052610f5e91908101906120cf565b60405163987cbd7160e01b815290915073F3AAd56Deb1A6322a1b5D8E565499438bd63768f9063987cbd7190610f9a90859085906004016121d2565b600060405180830381865af4158015610fb7573d6000803e3d6000fd5b505050506040513d6000823e601f3d908101601f19168201604052610fdf9190810190612200565b60405163b4fa799360e01b815273F3AAd56Deb1A6322a1b5D8E565499438bd63768f9163b4fa7993916110159190600401612281565b60006040518083038186803b15801561102d57600080fd5b505af4158015611041573d6000803e3d6000fd5b5050505050505050565b600082815260086020908152604080832081516080810183528154600781810b83526001600160401b03600160401b83041695830195909552600160801b900460030b928101929092526001015460608201819052915490916110ae9190611afb565b4211156110f15760405162461bcd60e51b8152602060048201526011602482015270141c9a58d9481a5cc81bdd5d19185d1959607a1b6044820152606401610506565b610c638184611105565b610c028133611559565b600080836000015160070b13158061112457506000836040015160030b135b80611137575060fe19836040015160030b125b156111745760405162461bcd60e51b815260206004820152600d60248201526c496e76616c696420707269636560981b6044820152606401610506565b6000836040015160001961118891906122ba565b90508060ff168360ff16106111cc576111a181846122da565b6111af9060ff16600a6122f3565b84516111c491906001600160401b0316611dc3565b9150506104a9565b6111d683826122da565b6111e49060ff16600a6122f3565b84516111c491906001600160401b0316611dda565b5092915050565b600080836040015160030b138061121f575060fe19836040015160030b125b1561125b5760405162461bcd60e51b815260206004820152600c60248201526b496e76616c6964206578706f60a01b6044820152606401610506565b6000836040015160001961126f91906122ba565b90508060ff168360ff16106112ae5761128881846122da565b6112969060ff16600a6122f3565b84602001516001600160401b03166111c49190611dc3565b6112b883826122da565b6112c69060ff16600a6122f3565b84602001516001600160401b03166111c49190611dda565b6060816112ec81601f611afb565b101561132b5760405162461bcd60e51b815260206004820152600e60248201526d736c6963655f6f766572666c6f7760901b6044820152606401610506565b6113358284611afb565b845110156113795760405162461bcd60e51b8152602060048201526011602482015270736c6963655f6f75744f66426f756e647360781b6044820152606401610506565b60608215801561139857604051915060008252602082016040526113e2565b6040519150601f8416801560200281840101858101878315602002848b0101015b818310156113d15780518352602092830192016113b9565b5050858452601f01601f1916604052505b50949350505050565b60408051808201909152600080825260208201526020820181528161140e815190565b825101602083015250919050565b6060600061142983611596565b63ffffffff16905061144481846115cc90919063ffffffff16565b82516114509082611623565b83519091019092525090565b60006114688383610b35565b6114e6576000838152602081815260408083206001600160a01b03861684529091529020805460ff1916600117905561149e3390565b6001600160a01b0316826001600160a01b0316847f2f8788117e7eff1d82e926ec794901d17c78024a50270940304540a733656f0d60405160405180910390a45060016104a9565b5060006104a9565b60006114fa8383610b35565b156114e6576000838152602081815260408083206001600160a01b0386168085529252808320805460ff1916905551339286917ff6391f5c32d9c69d2a47ea670b442974b53935d1edc7fd64eb21e047a839171b9190a45060016104a9565b6115638282610b35565b6115925760405163e2517d3f60e01b81526001600160a01b038216600482015260248101839052604401610506565b5050565b60006104a96115a683600461166b565b60e881901c62ff00ff1663ff00ff0060d89290921c9190911617601081811c91901b1790565b60208201518251820111156115925760405162461bcd60e51b815260206004820152601b60248201527f5061727365206572726f723a20756e657870656374656420454f4900000000006044820152606401610506565b606081156104a9576040519050601f19603f830116810180604052828252602082015b845181526020810190508181031561166357602085019450611646565b505092915050565b600061167783836115cc565b5081518051910190915290565b60006020828403121561169657600080fd5b81356001600160e01b0319811681146116ae57600080fd5b9392505050565b6000602082840312156116c757600080fd5b5035919050565b803560ff811681146116df57600080fd5b919050565b600080604083850312156116f757600080fd5b82359150611707602084016116ce565b90509250929050565b6001600160a01b0381168114610c0257600080fd5b6000806040838503121561173857600080fd5b82359150602083013561174a81611710565b809150509250929050565b634e487b7160e01b600052604160045260246000fd5b604080519081016001600160401b038111828210171561178d5761178d611755565b60405290565b60405160a081016001600160401b038111828210171561178d5761178d611755565b604051601f8201601f191681016001600160401b03811182821017156117dd576117dd611755565b604052919050565b60006001600160401b038211156117fe576117fe611755565b50601f01601f191660200190565b600082601f83011261181d57600080fd5b813561183061182b826117e5565b6117b5565b81815284602083860101111561184557600080fd5b816020850160208301376000918101602001919091529392505050565b60006020828403121561187457600080fd5b81356001600160401b0381111561188a57600080fd5b610c638482850161180c565b6000806000606084860312156118ab57600080fd5b83356001600160401b03808211156118c257600080fd5b6118ce8783880161180c565b945060208601359150808211156118e457600080fd5b506118f18682870161180c565b925050611900604085016116ce565b90509250925092565b60006001600160401b0382111561192257611922611755565b5060051b60200190565b600082601f83011261193d57600080fd5b8135602061194d61182b83611909565b82815260059290921b8401810191818101908684111561196c57600080fd5b8286015b848110156119875780358352918301918301611970565b509695505050505050565b600080604083850312156119a557600080fd5b82356001600160401b03808211156119bc57600080fd5b818501915085601f8301126119d057600080fd5b813560206119e061182b83611909565b82815260059290921b840181019181810190898411156119ff57600080fd5b8286015b84811015611a3757803586811115611a1b5760008081fd5b611a298c86838b010161180c565b845250918301918301611a03565b5096505086013592505080821115611a4e57600080fd5b50611a5b8582860161192c565b9150509250929050565b60005b83811015611a80578181015183820152602001611a68565b50506000910152565b60008151808452611aa1816020860160208601611a65565b601f01601f19169290920160200192915050565b6020815260006116ae6020830184611a89565b600060208284031215611ada57600080fd5b81356116ae81611710565b634e487b7160e01b600052601160045260246000fd5b808201808211156104a9576104a9611ae5565b634e487b7160e01b600052602160045260246000fd5b600082601f830112611b3557600080fd5b8151611b4361182b826117e5565b818152846020838601011115611b5857600080fd5b610c63826020830160208701611a65565b600060208284031215611b7b57600080fd5b81516001600160401b0380821115611b9257600080fd5b9083019060408286031215611ba657600080fd5b611bae61176b565b825160038110611bbd57600080fd5b8152602083015182811115611bd157600080fd5b611bdd87828601611b24565b60208301525095945050505050565b634e487b7160e01b600052603260045260246000fd5b818103818111156104a9576104a9611ae5565b80516001600160401b03811681146116df57600080fd5b600060808284031215611c3e57600080fd5b604051608081018181106001600160401b0382111715611c6057611c60611755565b6040528251600781900b8114611c7557600080fd5b8152611c8360208401611c15565b602082015260408301518060030b8114611c9c57600080fd5b60408201526060928301519281019290925250919050565b60008251611cc6818460208701611a65565b9190910192915050565b600181815b80851115611d0b578160001904821115611cf157611cf1611ae5565b80851615611cfe57918102915b93841c9390800290611cd5565b509250929050565b600082611d22575060016104a9565b81611d2f575060006104a9565b8160018114611d455760028114611d4f57611d6b565b60019150506104a9565b60ff841115611d6057611d60611ae5565b50506001821b6104a9565b5060208310610133831016604e8410600b8410161715611d8e575081810a6104a9565b611d988383611cd0565b8060001904821115611dac57611dac611ae5565b029392505050565b60006116ae60ff841683611d13565b80820281158282048414176104a9576104a9611ae5565b600082611df757634e487b7160e01b600052601260045260246000fd5b500490565b600060018201611e0e57611e0e611ae5565b5060010190565b600181811c90821680611e2957607f821691505b602082108103611e4957634e487b7160e01b600052602260045260246000fd5b50919050565b600060208284031215611e6157600080fd5b81516116ae81611710565b600060208284031215611e7e57600080fd5b81516001600160401b03811115611e9457600080fd5b610c6384828501611b24565b60ff60f81b8560f81b1681526bffffffffffffffffffffffff198460601b16600182015282601582015260008251611edf816035850160208701611a65565b9190910160350195945050505050565b8581526000602060c0818401526000875481600182811c915080831680611f1757607f831692505b8583108103611f3457634e487b7160e01b85526022600452602485fd5b60c0880183905260e08801818015611f535760018114611f6957611f94565b60ff198616825284151560051b82019650611f94565b60008e81526020902060005b86811015611f8e57815484820152908501908901611f75565b83019750505b5050505050508381036040850152611fbd81600481526318d85b1b60e21b602082015260400190565b9150508281036060840152611fd28187611a89565b915050611fea60808301856001600160801b03169052565b6001600160401b03831660a08301529695505050505050565b80516001600160801b03811681146116df57600080fd5b600060a0828403121561202c57600080fd5b612034611793565b905081516001600160401b038082111561204d57600080fd5b61205985838601611b24565b8352602084015191508082111561206f57600080fd5b61207b85838601611b24565b6020840152604084015191508082111561209457600080fd5b506120a184828501611b24565b6040830152506120b360608301612003565b60608201526120c460808301611c15565b608082015292915050565b6000602082840312156120e157600080fd5b81516001600160401b038111156120f757600080fd5b610c638482850161201a565b8581526001600160a01b038516602082015260a06040820181905260009061212d90830186611a89565b90506001600160801b03841660608301526001600160401b03831660808301529695505050505050565b6000815160a0845261216c60a0850182611a89565b9050602083015184820360208601526121858282611a89565b9150506040830151848203604086015261219f8282611a89565b9150506001600160801b0360608401511660608501526001600160401b0360808401511660808501528091505092915050565b6040815260006121e56040830185612157565b82810360208401526121f78185612157565b95945050505050565b60006020828403121561221257600080fd5b81516001600160401b038082111561222957600080fd5b908301906040828603121561223d57600080fd5b61224561176b565b82518281111561225457600080fd5b6122608782860161201a565b82525060208301518281111561227557600080fd5b611bdd8782860161201a565b60208152600082516040602084015261229d6060840182612157565b90506020840151601f198483030160408501526121f78282612157565b60008260030b8260030b028060030b91508082146111f9576111f9611ae5565b60ff82811682821603908111156104a9576104a9611ae5565b60006116ae63ffffffff841683611d1356fea2646970667358221220ef14cf4bc31d064d2f21f34b2d117b2c56b9f57ac7a325a45ee176744c1f055764736f6c63430008140033",
  "deployedBytecode": "0x608060405234801561001057600080fd5b50600436106101735760003560e01c8063918d2f41116100de578063cb4a4b0011610097578063d5f9ea2f11610071578063d5f9ea2f1461040e578063e602af7614610416578063f6e2522014610452578063fa1dcfaf1461046557600080fd5b8063cb4a4b00146103d5578063ce3d448b146103e8578063d547741f146103fb57600080fd5b8063918d2f41146102ea57806391d1485414610311578063a217fddf14610324578063a51a68181461032c578063c4f4face14610341578063c8507cbd1461035457600080fd5b80632f2ff15d116101305780632f2ff15d1461024c57806336568abe1461025f57806360a83ac614610272578063893239eb1461029d5780638b7121da146102c457806390e775f4146102d757600080fd5b806301ffc9a71461017857806302834588146101a0578063078d2605146101cb578063248a9ca3146101e057806329b4cc5a146102115780632f16d6c814610239575b600080fd5b61018b610186366004611684565b610478565b60405190151581526020015b60405180910390f35b6005546101b3906001600160a01b031681565b6040516001600160a01b039091168152602001610197565b6101de6101d93660046116b5565b6104af565b005b6102036101ee3660046116b5565b60009081526020819052604090206001015490565b604051908152602001610197565b61022461021f3660046116e4565b610515565b60408051928352602083019190915201610197565b6101de6102473660046116b5565b6105e3565b6101de61025a366004611725565b610896565b6101de61026d366004611725565b6108c1565b610203610280366004611862565b805160208183018101805160098252928201919093012091525481565b6102037f6a482020e6149e8c4161ee4a5e78b6a5c5ab551224cc5909aa2e9e7a2852273281565b6102036102d2366004611896565b6108f9565b6101de6102e5366004611992565b610a49565b6102037f73f9a0f79d0de650ebb1c7d68b67125ab5d93ce97641ba33e5e1e4b5f481921c81565b61018b61031f366004611725565b610b35565b610203600081565b610334610b5e565b6040516101979190611ab5565b6101de61034f366004611ac8565b610bec565b61039e6103623660046116b5565b60086020526000908152604090208054600190910154600782900b916001600160401b03600160401b82041691600160801b90910460030b9084565b604051610197949392919060079490940b84526001600160401b0392909216602084015260030b6040830152606082015260800190565b6102036103e33660046116e4565b610c05565b6006546101b3906001600160a01b031681565b6101de610409366004611725565b610c6b565b6101b3610c90565b6004546104339060ff81169061010090046001600160a01b031682565b6040805192151583526001600160a01b03909116602083015201610197565b6101de6104603660046116b5565b610d0b565b6102036104733660046116e4565b61104b565b60006001600160e01b03198216637965db0b60e01b14806104a957506301ffc9a760e01b6001600160e01b03198316145b92915050565b60006104ba816110fb565b6000821161050f5760405162461bcd60e51b815260206004820152601b60248201527f496e76616c696420707269636556616c696454696d6552616e6765000000000060448201526064015b60405180910390fd5b50600755565b600082815260086020908152604080832081516080810183528154600781810b83526001600160401b03600160401b83041695830195909552600160801b900460030b928101929092526001015460608201819052915483926105789190611afb565b4211156105bb5760405162461bcd60e51b8152602060048201526011602482015270141c9a58d9481a5cc81bdd5d19185d1959607a1b6044820152606401610506565b60006105c78286611105565b905060006105d58387611200565b919791965090945050505050565b7f73f9a0f79d0de650ebb1c7d68b67125ab5d93ce97641ba33e5e1e4b5f481921c61060d816110fb565b60016040516310cdb49360e01b81526000600482015273__$ff4a9d42f131ddb06cb1b98765cd1b5a91$__906310cdb49390602401600060405180830381865af415801561065f573d6000803e3d6000fd5b505050506040513d6000823e601f3d908101601f191682016040526106879190810190611b69565b51600281111561069957610699611b0e565b146106e65760405162461bcd60e51b815260206004820152601d60248201527f6765745079746850726963652063616c6c206661696c65642d4e4541520000006044820152606401610506565b6040516310cdb49360e01b81526000600482018190529073__$ff4a9d42f131ddb06cb1b98765cd1b5a91$__906310cdb49390602401600060405180830381865af4158015610739573d6000803e3d6000fd5b505050506040513d6000823e601f3d908101601f191682016040526107619190810190611b69565b6020015190508060018151811061077a5761077a611bec565b01602001516001600160f81b031916156107d65760405162461bcd60e51b815260206004820152601f60248201527f6765745079746850726963652063616c6c206661696c65642d4175726f7261006044820152606401610506565b60006108006107fb6107f68460028087516107f19190611c02565b6112de565b6113eb565b61141c565b9050808060200190518101906108169190611c2c565b6000948552600860209081526040958690208251815492840151978401516001600160401b039182166fffffffffffffffffffffffffffffffff1990941693909317600160401b91909816029690961763ffffffff60801b1916600160801b63ffffffff9092169190910217855560600151600190940193909355505050565b6000828152602081905260409020600101546108b1816110fb565b6108bb838361145c565b50505050565b6001600160a01b03811633146108ea5760405163334bd91960e11b815260040160405180910390fd5b6108f482826114ee565b505050565b60008060001b60098560405161090f9190611cb4565b9081526020016040518091039020540361096b5760405162461bcd60e51b815260206004820152601c60248201527f6e6f20746f6b656e55736450616972496420666f7220746f6b656e41000000006044820152606401610506565b6000801b60098460405161097f9190611cb4565b908152602001604051809103902054036109db5760405162461bcd60e51b815260206004820152601c60248201527f6e6f20746f6b656e55736450616972496420666f7220746f6b656e42000000006044820152606401610506565b6000610a066009866040516109f09190611cb4565b908152602001604051809103902054601261104b565b90506000610a1d6009866040516109f09190611cb4565b905080610a2b85600a611db4565b610a359084611dc3565b610a3f9190611dda565b9695505050505050565b7f6a482020e6149e8c4161ee4a5e78b6a5c5ab551224cc5909aa2e9e7a28522732610a73816110fb565b8151835114610ac45760405162461bcd60e51b815260206004820152601a60248201527f4172726179206c656e6774687320646f206e6f74206d617463680000000000006044820152606401610506565b60005b83518110156108bb57828181518110610ae257610ae2611bec565b60200260200101516009858381518110610afe57610afe611bec565b6020026020010151604051610b139190611cb4565b9081526040519081900360200190205580610b2d81611dfc565b915050610ac7565b6000918252602082815260408084206001600160a01b0393909316845291905290205460ff1690565b60038054610b6b90611e15565b80601f0160208091040260200160405190810160405280929190818152602001828054610b9790611e15565b8015610be45780601f10610bb957610100808354040283529160200191610be4565b820191906000526020600020905b815481529060010190602001808311610bc757829003601f168201915b505050505081565b610bf7600082610896565b610c026000336108c1565b50565b600082815260086020908152604080832081516080810183528154600781900b82526001600160401b03600160401b82041694820194909452600160801b90930460030b91830191909152600101546060820152610c638184611105565b949350505050565b600082815260208190526040902060010154610c86816110fb565b6108bb83836114ee565b60405163a33598bf60e01b815230600482015260009073__$ff4a9d42f131ddb06cb1b98765cd1b5a91$__9063a33598bf90602401602060405180830381865af4158015610ce2573d6000803e3d6000fd5b505050506040513d601f19601f82011682018060405250810190610d069190611e4f565b905090565b600081604051602401610d2091815260200190565b60408051601f198184030181529181526020820180516001600160e01b03166331d98b3f60e01b17905260065490516312496a1b60e01b815291925060009173__$ff4a9d42f131ddb06cb1b98765cd1b5a91$__9163925be54d9160049160039186916001600160a01b031690829073__$b47451c9693ac4910bddd2ef01d769da1b$__906312496a1b90610db8908c908901611ab5565b600060405180830381865af4158015610dd5573d6000803e3d6000fd5b505050506040513d6000823e601f3d908101601f19168201604052610dfd9190810190611e6c565b604051602001610e109493929190611ea0565b6040516020818303038152906040526000655af3107a40006040518663ffffffff1660e01b8152600401610e48959493929190611eef565b600060405180830381865af4158015610e65573d6000803e3d6000fd5b505050506040513d6000823e601f3d908101601f19168201604052610e8d91908101906120cf565b90506000600473__$ff4a9d42f131ddb06cb1b98765cd1b5a91$__6331b0e0e490913087604051602401610ec391815260200190565b60408051601f198184030181529181526020820180516001600160e01b03166305e2dad960e31b1790525160e085901b6001600160e01b0319168152610f19939291906000906509184e72a00090600401612103565b600060405180830381865af4158015610f36573d6000803e3d6000fd5b505050506040513d6000823e601f3d908101601f19168201604052610f5e91908101906120cf565b60405163987cbd7160e01b815290915073__$ff4a9d42f131ddb06cb1b98765cd1b5a91$__9063987cbd7190610f9a90859085906004016121d2565b600060405180830381865af4158015610fb7573d6000803e3d6000fd5b505050506040513d6000823e601f3d908101601f19168201604052610fdf9190810190612200565b60405163b4fa799360e01b815273__$ff4a9d42f131ddb06cb1b98765cd1b5a91$__9163b4fa7993916110159190600401612281565b60006040518083038186803b15801561102d57600080fd5b505af4158015611041573d6000803e3d6000fd5b5050505050505050565b600082815260086020908152604080832081516080810183528154600781810b83526001600160401b03600160401b83041695830195909552600160801b900460030b928101929092526001015460608201819052915490916110ae9190611afb565b4211156110f15760405162461bcd60e51b8152602060048201526011602482015270141c9a58d9481a5cc81bdd5d19185d1959607a1b6044820152606401610506565b610c638184611105565b610c028133611559565b600080836000015160070b13158061112457506000836040015160030b135b80611137575060fe19836040015160030b125b156111745760405162461bcd60e51b815260206004820152600d60248201526c496e76616c696420707269636560981b6044820152606401610506565b6000836040015160001961118891906122ba565b90508060ff168360ff16106111cc576111a181846122da565b6111af9060ff16600a6122f3565b84516111c491906001600160401b0316611dc3565b9150506104a9565b6111d683826122da565b6111e49060ff16600a6122f3565b84516111c491906001600160401b0316611dda565b5092915050565b600080836040015160030b138061121f575060fe19836040015160030b125b1561125b5760405162461bcd60e51b815260206004820152600c60248201526b496e76616c6964206578706f60a01b6044820152606401610506565b6000836040015160001961126f91906122ba565b90508060ff168360ff16106112ae5761128881846122da565b6112969060ff16600a6122f3565b84602001516001600160401b03166111c49190611dc3565b6112b883826122da565b6112c69060ff16600a6122f3565b84602001516001600160401b03166111c49190611dda565b6060816112ec81601f611afb565b101561132b5760405162461bcd60e51b815260206004820152600e60248201526d736c6963655f6f766572666c6f7760901b6044820152606401610506565b6113358284611afb565b845110156113795760405162461bcd60e51b8152602060048201526011602482015270736c6963655f6f75744f66426f756e647360781b6044820152606401610506565b60608215801561139857604051915060008252602082016040526113e2565b6040519150601f8416801560200281840101858101878315602002848b0101015b818310156113d15780518352602092830192016113b9565b5050858452601f01601f1916604052505b50949350505050565b60408051808201909152600080825260208201526020820181528161140e815190565b825101602083015250919050565b6060600061142983611596565b63ffffffff16905061144481846115cc90919063ffffffff16565b82516114509082611623565b83519091019092525090565b60006114688383610b35565b6114e6576000838152602081815260408083206001600160a01b03861684529091529020805460ff1916600117905561149e3390565b6001600160a01b0316826001600160a01b0316847f2f8788117e7eff1d82e926ec794901d17c78024a50270940304540a733656f0d60405160405180910390a45060016104a9565b5060006104a9565b60006114fa8383610b35565b156114e6576000838152602081815260408083206001600160a01b0386168085529252808320805460ff1916905551339286917ff6391f5c32d9c69d2a47ea670b442974b53935d1edc7fd64eb21e047a839171b9190a45060016104a9565b6115638282610b35565b6115925760405163e2517d3f60e01b81526001600160a01b038216600482015260248101839052604401610506565b5050565b60006104a96115a683600461166b565b60e881901c62ff00ff1663ff00ff0060d89290921c9190911617601081811c91901b1790565b60208201518251820111156115925760405162461bcd60e51b815260206004820152601b60248201527f5061727365206572726f723a20756e657870656374656420454f4900000000006044820152606401610506565b606081156104a9576040519050601f19603f830116810180604052828252602082015b845181526020810190508181031561166357602085019450611646565b505092915050565b600061167783836115cc565b5081518051910190915290565b60006020828403121561169657600080fd5b81356001600160e01b0319811681146116ae57600080fd5b9392505050565b6000602082840312156116c757600080fd5b5035919050565b803560ff811681146116df57600080fd5b919050565b600080604083850312156116f757600080fd5b82359150611707602084016116ce565b90509250929050565b6001600160a01b0381168114610c0257600080fd5b6000806040838503121561173857600080fd5b82359150602083013561174a81611710565b809150509250929050565b634e487b7160e01b600052604160045260246000fd5b604080519081016001600160401b038111828210171561178d5761178d611755565b60405290565b60405160a081016001600160401b038111828210171561178d5761178d611755565b604051601f8201601f191681016001600160401b03811182821017156117dd576117dd611755565b604052919050565b60006001600160401b038211156117fe576117fe611755565b50601f01601f191660200190565b600082601f83011261181d57600080fd5b813561183061182b826117e5565b6117b5565b81815284602083860101111561184557600080fd5b816020850160208301376000918101602001919091529392505050565b60006020828403121561187457600080fd5b81356001600160401b0381111561188a57600080fd5b610c638482850161180c565b6000806000606084860312156118ab57600080fd5b83356001600160401b03808211156118c257600080fd5b6118ce8783880161180c565b945060208601359150808211156118e457600080fd5b506118f18682870161180c565b925050611900604085016116ce565b90509250925092565b60006001600160401b0382111561192257611922611755565b5060051b60200190565b600082601f83011261193d57600080fd5b8135602061194d61182b83611909565b82815260059290921b8401810191818101908684111561196c57600080fd5b8286015b848110156119875780358352918301918301611970565b509695505050505050565b600080604083850312156119a557600080fd5b82356001600160401b03808211156119bc57600080fd5b818501915085601f8301126119d057600080fd5b813560206119e061182b83611909565b82815260059290921b840181019181810190898411156119ff57600080fd5b8286015b84811015611a3757803586811115611a1b5760008081fd5b611a298c86838b010161180c565b845250918301918301611a03565b5096505086013592505080821115611a4e57600080fd5b50611a5b8582860161192c565b9150509250929050565b60005b83811015611a80578181015183820152602001611a68565b50506000910152565b60008151808452611aa1816020860160208601611a65565b601f01601f19169290920160200192915050565b6020815260006116ae6020830184611a89565b600060208284031215611ada57600080fd5b81356116ae81611710565b634e487b7160e01b600052601160045260246000fd5b808201808211156104a9576104a9611ae5565b634e487b7160e01b600052602160045260246000fd5b600082601f830112611b3557600080fd5b8151611b4361182b826117e5565b818152846020838601011115611b5857600080fd5b610c63826020830160208701611a65565b600060208284031215611b7b57600080fd5b81516001600160401b0380821115611b9257600080fd5b9083019060408286031215611ba657600080fd5b611bae61176b565b825160038110611bbd57600080fd5b8152602083015182811115611bd157600080fd5b611bdd87828601611b24565b60208301525095945050505050565b634e487b7160e01b600052603260045260246000fd5b818103818111156104a9576104a9611ae5565b80516001600160401b03811681146116df57600080fd5b600060808284031215611c3e57600080fd5b604051608081018181106001600160401b0382111715611c6057611c60611755565b6040528251600781900b8114611c7557600080fd5b8152611c8360208401611c15565b602082015260408301518060030b8114611c9c57600080fd5b60408201526060928301519281019290925250919050565b60008251611cc6818460208701611a65565b9190910192915050565b600181815b80851115611d0b578160001904821115611cf157611cf1611ae5565b80851615611cfe57918102915b93841c9390800290611cd5565b509250929050565b600082611d22575060016104a9565b81611d2f575060006104a9565b8160018114611d455760028114611d4f57611d6b565b60019150506104a9565b60ff841115611d6057611d60611ae5565b50506001821b6104a9565b5060208310610133831016604e8410600b8410161715611d8e575081810a6104a9565b611d988383611cd0565b8060001904821115611dac57611dac611ae5565b029392505050565b60006116ae60ff841683611d13565b80820281158282048414176104a9576104a9611ae5565b600082611df757634e487b7160e01b600052601260045260246000fd5b500490565b600060018201611e0e57611e0e611ae5565b5060010190565b600181811c90821680611e2957607f821691505b602082108103611e4957634e487b7160e01b600052602260045260246000fd5b50919050565b600060208284031215611e6157600080fd5b81516116ae81611710565b600060208284031215611e7e57600080fd5b81516001600160401b03811115611e9457600080fd5b610c6384828501611b24565b60ff60f81b8560f81b1681526bffffffffffffffffffffffff198460601b16600182015282601582015260008251611edf816035850160208701611a65565b9190910160350195945050505050565b8581526000602060c0818401526000875481600182811c915080831680611f1757607f831692505b8583108103611f3457634e487b7160e01b85526022600452602485fd5b60c0880183905260e08801818015611f535760018114611f6957611f94565b60ff198616825284151560051b82019650611f94565b60008e81526020902060005b86811015611f8e57815484820152908501908901611f75565b83019750505b5050505050508381036040850152611fbd81600481526318d85b1b60e21b602082015260400190565b9150508281036060840152611fd28187611a89565b915050611fea60808301856001600160801b03169052565b6001600160401b03831660a08301529695505050505050565b80516001600160801b03811681146116df57600080fd5b600060a0828403121561202c57600080fd5b612034611793565b905081516001600160401b038082111561204d57600080fd5b61205985838601611b24565b8352602084015191508082111561206f57600080fd5b61207b85838601611b24565b6020840152604084015191508082111561209457600080fd5b506120a184828501611b24565b6040830152506120b360608301612003565b60608201526120c460808301611c15565b608082015292915050565b6000602082840312156120e157600080fd5b81516001600160401b038111156120f757600080fd5b610c638482850161201a565b8581526001600160a01b038516602082015260a06040820181905260009061212d90830186611a89565b90506001600160801b03841660608301526001600160401b03831660808301529695505050505050565b6000815160a0845261216c60a0850182611a89565b9050602083015184820360208601526121858282611a89565b9150506040830151848203604086015261219f8282611a89565b9150506001600160801b0360608401511660608501526001600160401b0360808401511660808501528091505092915050565b6040815260006121e56040830185612157565b82810360208401526121f78185612157565b95945050505050565b60006020828403121561221257600080fd5b81516001600160401b038082111561222957600080fd5b908301906040828603121561223d57600080fd5b61224561176b565b82518281111561225457600080fd5b6122608782860161201a565b82525060208301518281111561227557600080fd5b611bdd8782860161201a565b60208152600082516040602084015261229d6060840182612157565b90506020840151601f198483030160408501526121f78282612157565b60008260030b8260030b028060030b91508082146111f9576111f9611ae5565b60ff82811682821603908111156104a9576104a9611ae5565b60006116ae63ffffffff841683611d1356fea2646970667358221220ef14cf4bc31d064d2f21f34b2d117b2c56b9f57ac7a325a45ee176744c1f055764736f6c63430008140033",
  "libraries": {
    "AuroraSdk": "0xF3AAd56Deb1A6322a1b5D8E565499438bd63768f",
    "Codec": "0x9Ff1Ef63DCB58E74e963cbd30558FFaD30A4D57a"
  },
  "devdoc": {
    "errors": {
      "AccessControlBadConfirmation()": [
        {
          "details": "The caller of a function is not the expected one. NOTE: Don't confuse with {AccessControlUnauthorizedAccount}."
        }
      ],
      "AccessControlUnauthorizedAccount(address,bytes32)": [
        {
          "details": "The `account` is missing a role."
        }
      ]
    },
    "events": {
      "RoleAdminChanged(bytes32,bytes32,bytes32)": {
        "details": "Emitted when `newAdminRole` is set as ``role``'s admin role, replacing `previousAdminRole` `DEFAULT_ADMIN_ROLE` is the starting admin for all roles, despite {RoleAdminChanged} not being emitted signaling this."
      },
      "RoleGranted(bytes32,address,address)": {
        "details": "Emitted when `account` is granted `role`. `sender` is the account that originated the contract call, an admin role bearer except when using {AccessControl-_setupRole}."
      },
      "RoleRevoked(bytes32,address,address)": {
        "details": "Emitted when `account` is revoked `role`. `sender` is the account that originated the contract call:   - if using `revokeRole`, it is the admin role bearer   - if using `renounceRole`, it is the role bearer (i.e. `account`)"
      }
    },
    "kind": "dev",
    "methods": {
      "getRoleAdmin(bytes32)": {
        "details": "Returns the admin role that controls `role`. See {grantRole} and {revokeRole}. To change a role's admin, use {_setRoleAdmin}."
      },
      "grantRole(bytes32,address)": {
        "details": "Grants `role` to `account`. If `account` had not been already granted `role`, emits a {RoleGranted} event. Requirements: - the caller must have ``role``'s admin role. May emit a {RoleGranted} event."
      },
      "hasRole(bytes32,address)": {
        "details": "Returns `true` if `account` has been granted `role`."
      },
      "renounceRole(bytes32,address)": {
        "details": "Revokes `role` from the calling account. Roles are often managed via {grantRole} and {revokeRole}: this function's purpose is to provide a mechanism for accounts to lose their privileges if they are compromised (such as when a trusted device is misplaced). If the calling account had been revoked `role`, emits a {RoleRevoked} event. Requirements: - the caller must be `callerConfirmation`. May emit a {RoleRevoked} event."
      },
      "revokeRole(bytes32,address)": {
        "details": "Revokes `role` from `account`. If `account` had been granted `role`, emits a {RoleRevoked} event. Requirements: - the caller must have ``role``'s admin role. May emit a {RoleRevoked} event."
      },
      "supportsInterface(bytes4)": {
        "details": "See {IERC165-supportsInterface}."
      }
    },
    "version": 1
  },
  "userdoc": {
    "kind": "user",
    "methods": {},
    "notice": "Pyth oracle deployed on an Aurora Testnet. Read Through XCC Pyth Price feed. The result of the XCC call is returned in the callback from Aurora Mainnet to the Silo.",
    "version": 1
  },
  "storageLayout": {
    "storage": [
      {
        "astId": 26,
        "contract": "contracts/PythOracle.sol:PythOracle",
        "label": "_roles",
        "offset": 0,
        "slot": "0",
        "type": "t_mapping(t_bytes32,t_struct(RoleData)21_storage)"
      },
      {
        "astId": 1081,
        "contract": "contracts/PythOracle.sol:PythOracle",
        "label": "pyth",
        "offset": 0,
        "slot": "1",
        "type": "t_contract(IPyth)659"
      },
      {
        "astId": 1083,
        "contract": "contracts/PythOracle.sol:PythOracle",
        "label": "fee",
        "offset": 0,
        "slot": "2",
        "type": "t_uint256"
      },
      {
        "astId": 1095,
        "contract": "contracts/PythOracle.sol:PythOracle",
        "label": "auroraMainnetAccountId",
        "offset": 0,
        "slot": "3",
        "type": "t_string_storage"
      },
      {
        "astId": 1098,
        "contract": "contracts/PythOracle.sol:PythOracle",
        "label": "near",
        "offset": 0,
        "slot": "4",
        "type": "t_struct(NEAR)1790_storage"
      },
      {
        "astId": 1100,
        "contract": "contracts/PythOracle.sol:PythOracle",
        "label": "wNEAR",
        "offset": 0,
        "slot": "5",
        "type": "t_address"
      },
      {
        "astId": 1102,
        "contract": "contracts/PythOracle.sol:PythOracle",
        "label": "priceFeedAddr",
        "offset": 0,
        "slot": "6",
        "type": "t_address"
      },
      {
        "astId": 1104,
        "contract": "contracts/PythOracle.sol:PythOracle",
        "label": "priceValidTimeRange",
        "offset": 0,
        "slot": "7",
        "type": "t_uint256"
      },
      {
        "astId": 1109,
        "contract": "contracts/PythOracle.sol:PythOracle",
        "label": "priceMap",
        "offset": 0,
        "slot": "8",
        "type": "t_mapping(t_bytes32,t_struct(Price)692_storage)"
      },
      {
        "astId": 1113,
        "contract": "contracts/PythOracle.sol:PythOracle",
        "label": "tokenUsdPairId",
        "offset": 0,
        "slot": "9",
        "type": "t_mapping(t_string_memory_ptr,t_bytes32)"
      }
    ],
    "types": {
      "t_address": {
        "encoding": "inplace",
        "label": "address",
        "numberOfBytes": "20"
      },
      "t_bool": {
        "encoding": "inplace",
        "label": "bool",
        "numberOfBytes": "1"
      },
      "t_bytes32": {
        "encoding": "inplace",
        "label": "bytes32",
        "numberOfBytes": "32"
      },
      "t_contract(IERC20)456": {
        "encoding": "inplace",
        "label": "contract IERC20",
        "numberOfBytes": "20"
      },
      "t_contract(IPyth)659": {
        "encoding": "inplace",
        "label": "contract IPyth",
        "numberOfBytes": "20"
      },
      "t_int32": {
        "encoding": "inplace",
        "label": "int32",
        "numberOfBytes": "4"
      },
      "t_int64": {
        "encoding": "inplace",
        "label": "int64",
        "numberOfBytes": "8"
      },
      "t_mapping(t_address,t_bool)": {
        "encoding": "mapping",
        "key": "t_address",
        "label": "mapping(address => bool)",
        "numberOfBytes": "32",
        "value": "t_bool"
      },
      "t_mapping(t_bytes32,t_struct(Price)692_storage)": {
        "encoding": "mapping",
        "key": "t_bytes32",
        "label": "mapping(bytes32 => struct PythStructs.Price)",
        "numberOfBytes": "32",
        "value": "t_struct(Price)692_storage"
      },
      "t_mapping(t_bytes32,t_struct(RoleData)21_storage)": {
        "encoding": "mapping",
        "key": "t_bytes32",
        "label": "mapping(bytes32 => struct AccessControl.RoleData)",
        "numberOfBytes": "32",
        "value": "t_struct(RoleData)21_storage"
      },
      "t_mapping(t_string_memory_ptr,t_bytes32)": {
        "encoding": "mapping",
        "key": "t_string_memory_ptr",
        "label": "mapping(string => bytes32)",
        "numberOfBytes": "32",
        "value": "t_bytes32"
      },
      "t_string_memory_ptr": {
        "encoding": "bytes",
        "label": "string",
        "numberOfBytes": "32"
      },
      "t_string_storage": {
        "encoding": "bytes",
        "label": "string",
        "numberOfBytes": "32"
      },
      "t_struct(NEAR)1790_storage": {
        "encoding": "inplace",
        "label": "struct NEAR",
        "members": [
          {
            "astId": 1785,
            "contract": "contracts/PythOracle.sol:PythOracle",
            "label": "initialized",
            "offset": 0,
            "slot": "0",
            "type": "t_bool"
          },
          {
            "astId": 1789,
            "contract": "contracts/PythOracle.sol:PythOracle",
            "label": "wNEAR",
            "offset": 1,
            "slot": "0",
            "type": "t_contract(IERC20)456"
          }
        ],
        "numberOfBytes": "32"
      },
      "t_struct(Price)692_storage": {
        "encoding": "inplace",
        "label": "struct PythStructs.Price",
        "members": [
          {
            "astId": 685,
            "contract": "contracts/PythOracle.sol:PythOracle",
            "label": "price",
            "offset": 0,
            "slot": "0",
            "type": "t_int64"
          },
          {
            "astId": 687,
            "contract": "contracts/PythOracle.sol:PythOracle",
            "label": "conf",
            "offset": 8,
            "slot": "0",
            "type": "t_uint64"
          },
          {
            "astId": 689,
            "contract": "contracts/PythOracle.sol:PythOracle",
            "label": "expo",
            "offset": 16,
            "slot": "0",
            "type": "t_int32"
          },
          {
            "astId": 691,
            "contract": "contracts/PythOracle.sol:PythOracle",
            "label": "publishTime",
            "offset": 0,
            "slot": "1",
            "type": "t_uint256"
          }
        ],
        "numberOfBytes": "64"
      },
      "t_struct(RoleData)21_storage": {
        "encoding": "inplace",
        "label": "struct AccessControl.RoleData",
        "members": [
          {
            "astId": 18,
            "contract": "contracts/PythOracle.sol:PythOracle",
            "label": "hasRole",
            "offset": 0,
            "slot": "0",
            "type": "t_mapping(t_address,t_bool)"
          },
          {
            "astId": 20,
            "contract": "contracts/PythOracle.sol:PythOracle",
            "label": "adminRole",
            "offset": 0,
            "slot": "1",
            "type": "t_bytes32"
          }
        ],
        "numberOfBytes": "64"
      },
      "t_uint256": {
        "encoding": "inplace",
        "label": "uint256",
        "numberOfBytes": "32"
      },
      "t_uint64": {
        "encoding": "inplace",
        "label": "uint64",
        "numberOfBytes": "8"
      }
    }
  }
}