{
  "address": "0xCEf8CaC6cB4be33B26F1A987bCE91Fc63817dB60",
  "abi": [
    {
      "inputs": [
        {
          "internalType": "string",
          "name": "_auroraMainnetAccountId",
          "type": "string"
        },
        {
          "internalType": "contract IERC20",
          "name": "_wNEAR",
          "type": "address"
        },
        {
          "internalType": "address",
          "name": "_priceFeedAddr",
          "type": "address"
        }
      ],
      "stateMutability": "nonpayable",
      "type": "constructor"
    },
    {
      "inputs": [],
      "name": "AccessControlBadConfirmation",
      "type": "error"
    },
    {
      "inputs": [
        {
          "internalType": "address",
          "name": "account",
          "type": "address"
        },
        {
          "internalType": "bytes32",
          "name": "neededRole",
          "type": "bytes32"
        }
      ],
      "name": "AccessControlUnauthorizedAccount",
      "type": "error"
    },
    {
      "anonymous": false,
      "inputs": [
        {
          "indexed": true,
          "internalType": "bytes32",
          "name": "role",
          "type": "bytes32"
        },
        {
          "indexed": true,
          "internalType": "bytes32",
          "name": "previousAdminRole",
          "type": "bytes32"
        },
        {
          "indexed": true,
          "internalType": "bytes32",
          "name": "newAdminRole",
          "type": "bytes32"
        }
      ],
      "name": "RoleAdminChanged",
      "type": "event"
    },
    {
      "anonymous": false,
      "inputs": [
        {
          "indexed": true,
          "internalType": "bytes32",
          "name": "role",
          "type": "bytes32"
        },
        {
          "indexed": true,
          "internalType": "address",
          "name": "account",
          "type": "address"
        },
        {
          "indexed": true,
          "internalType": "address",
          "name": "sender",
          "type": "address"
        }
      ],
      "name": "RoleGranted",
      "type": "event"
    },
    {
      "anonymous": false,
      "inputs": [
        {
          "indexed": true,
          "internalType": "bytes32",
          "name": "role",
          "type": "bytes32"
        },
        {
          "indexed": true,
          "internalType": "address",
          "name": "account",
          "type": "address"
        },
        {
          "indexed": true,
          "internalType": "address",
          "name": "sender",
          "type": "address"
        }
      ],
      "name": "RoleRevoked",
      "type": "event"
    },
    {
      "inputs": [],
      "name": "CALLBACK_ROLE",
      "outputs": [
        {
          "internalType": "bytes32",
          "name": "",
          "type": "bytes32"
        }
      ],
      "stateMutability": "view",
      "type": "function"
    },
    {
      "inputs": [],
      "name": "DEFAULT_ADMIN_ROLE",
      "outputs": [
        {
          "internalType": "bytes32",
          "name": "",
          "type": "bytes32"
        }
      ],
      "stateMutability": "view",
      "type": "function"
    },
    {
      "inputs": [],
      "name": "auroraMainnetAccountId",
      "outputs": [
        {
          "internalType": "string",
          "name": "",
          "type": "string"
        }
      ],
      "stateMutability": "view",
      "type": "function"
    },
    {
      "inputs": [
        {
          "internalType": "bytes",
          "name": "priceId",
          "type": "bytes"
        },
        {
          "internalType": "uint8",
          "name": "_targetPriceDecimals",
          "type": "uint8"
        }
      ],
      "name": "getPythPrice",
      "outputs": [
        {
          "internalType": "uint256",
          "name": "",
          "type": "uint256"
        }
      ],
      "stateMutability": "nonpayable",
      "type": "function"
    },
    {
      "inputs": [],
      "name": "getPythPriceCallback",
      "outputs": [],
      "stateMutability": "nonpayable",
      "type": "function"
    },
    {
      "inputs": [
        {
          "internalType": "bytes32",
          "name": "role",
          "type": "bytes32"
        }
      ],
      "name": "getRoleAdmin",
      "outputs": [
        {
          "internalType": "bytes32",
          "name": "",
          "type": "bytes32"
        }
      ],
      "stateMutability": "view",
      "type": "function"
    },
    {
      "inputs": [
        {
          "internalType": "bytes32",
          "name": "role",
          "type": "bytes32"
        },
        {
          "internalType": "address",
          "name": "account",
          "type": "address"
        }
      ],
      "name": "grantRole",
      "outputs": [],
      "stateMutability": "nonpayable",
      "type": "function"
    },
    {
      "inputs": [
        {
          "internalType": "bytes32",
          "name": "role",
          "type": "bytes32"
        },
        {
          "internalType": "address",
          "name": "account",
          "type": "address"
        }
      ],
      "name": "hasRole",
      "outputs": [
        {
          "internalType": "bool",
          "name": "",
          "type": "bool"
        }
      ],
      "stateMutability": "view",
      "type": "function"
    },
    {
      "inputs": [],
      "name": "near",
      "outputs": [
        {
          "internalType": "bool",
          "name": "initialized",
          "type": "bool"
        },
        {
          "internalType": "contract IERC20",
          "name": "wNEAR",
          "type": "address"
        }
      ],
      "stateMutability": "view",
      "type": "function"
    },
    {
      "inputs": [],
      "name": "nearRepresentitiveImplicitAddress",
      "outputs": [
        {
          "internalType": "address",
          "name": "",
          "type": "address"
        }
      ],
      "stateMutability": "nonpayable",
      "type": "function"
    },
    {
      "inputs": [],
      "name": "priceFeedAddr",
      "outputs": [
        {
          "internalType": "address",
          "name": "",
          "type": "address"
        }
      ],
      "stateMutability": "view",
      "type": "function"
    },
    {
      "inputs": [],
      "name": "priceResult",
      "outputs": [
        {
          "internalType": "uint256",
          "name": "",
          "type": "uint256"
        }
      ],
      "stateMutability": "view",
      "type": "function"
    },
    {
      "inputs": [
        {
          "internalType": "bytes32",
          "name": "role",
          "type": "bytes32"
        },
        {
          "internalType": "address",
          "name": "callerConfirmation",
          "type": "address"
        }
      ],
      "name": "renounceRole",
      "outputs": [],
      "stateMutability": "nonpayable",
      "type": "function"
    },
    {
      "inputs": [
        {
          "internalType": "bytes32",
          "name": "role",
          "type": "bytes32"
        },
        {
          "internalType": "address",
          "name": "account",
          "type": "address"
        }
      ],
      "name": "revokeRole",
      "outputs": [],
      "stateMutability": "nonpayable",
      "type": "function"
    },
    {
      "inputs": [
        {
          "internalType": "bytes4",
          "name": "interfaceId",
          "type": "bytes4"
        }
      ],
      "name": "supportsInterface",
      "outputs": [
        {
          "internalType": "bool",
          "name": "",
          "type": "bool"
        }
      ],
      "stateMutability": "view",
      "type": "function"
    },
    {
      "inputs": [],
      "name": "wNEAR",
      "outputs": [
        {
          "internalType": "address",
          "name": "",
          "type": "address"
        }
      ],
      "stateMutability": "view",
      "type": "function"
    }
  ],
  "transactionHash": "0x43dddfb47749872cc927043125b156568d01431a469239ab6366947e1f2dd51b",
  "args": [
    "aurora",
    "0x4861825e75ab14553e5af711ebbe6873d369d146",
    "0x74f09cb3c7e2A01865f424FD14F6dc9A14E3e94E"
  ],
  "numDeployments": 2,
  "solcInputHash": "c3a792592e41fbf50aa37ebcee4467b9",
  "bytecode": "0x60806040523480156200001157600080fd5b5060405162001efe38038062001efe833981016040819052620000349162000311565b60036200004284826200047b565b50604051630daa036f60e21b81526001600160a01b0383166004820152735da4aA5e216faEcab56546fedE5b1106a054a128906336a80dbc906024016040805180830381865af41580156200009b573d6000803e3d6000fd5b505050506040513d601f19601f82011682018060405250810190620000c1919062000547565b8051600480546020909301516001600160a81b0319909316911515610100600160a81b031916919091176101006001600160a01b0393841602178155600580546001600160a01b0319169285169290921790915560405163a33598bf60e01b81523091810191909152620001ba907f73f9a0f79d0de650ebb1c7d68b67125ab5d93ce97641ba33e5e1e4b5f481921c90735da4aA5e216faEcab56546fedE5b1106a054a1289063a33598bf90602401602060405180830381865af41580156200018e573d6000803e3d6000fd5b505050506040513d601f19601f82011682018060405250810190620001b49190620005b1565b620001ee565b50600180546001600160a01b039092166001600160a01b031992831681179091556006805490921617905550620005d89050565b6000828152602081815260408083206001600160a01b038516845290915281205460ff1662000293576000838152602081815260408083206001600160a01b03861684529091529020805460ff191660011790556200024a3390565b6001600160a01b0316826001600160a01b0316847f2f8788117e7eff1d82e926ec794901d17c78024a50270940304540a733656f0d60405160405180910390a450600162000297565b5060005b92915050565b634e487b7160e01b600052604160045260246000fd5b604051601f8201601f191681016001600160401b0381118282101715620002de57620002de6200029d565b604052919050565b6001600160a01b0381168114620002fc57600080fd5b50565b80516200030c81620002e6565b919050565b6000806000606084860312156200032757600080fd5b83516001600160401b03808211156200033f57600080fd5b818601915086601f8301126200035457600080fd5b8151818111156200036957620003696200029d565b6020915062000381601f8201601f19168301620002b3565b81815288838386010111156200039657600080fd5b60005b82811015620003b657848101840151828201850152830162000399565b5060008383830101528096505050620003d1818701620002ff565b93505050620003e360408501620002ff565b90509250925092565b600181811c908216806200040157607f821691505b6020821081036200042257634e487b7160e01b600052602260045260246000fd5b50919050565b601f8211156200047657600081815260208120601f850160051c81016020861015620004515750805b601f850160051c820191505b8181101562000472578281556001016200045d565b5050505b505050565b81516001600160401b038111156200049757620004976200029d565b620004af81620004a88454620003ec565b8462000428565b602080601f831160018114620004e75760008415620004ce5750858301515b600019600386901b1c1916600185901b17855562000472565b600085815260208120601f198616915b828110156200051857888601518255948401946001909101908401620004f7565b5085821015620005375787850151600019600388901b60f8161c191681555b5050505050600190811b01905550565b6000604082840312156200055a57600080fd5b604080519081016001600160401b03811182821017156200057f576200057f6200029d565b604052825180151581146200059357600080fd5b81526020830151620005a581620002e6565b60208201529392505050565b600060208284031215620005c457600080fd5b8151620005d181620002e6565b9392505050565b61191680620005e86000396000f3fe608060405234801561001057600080fd5b50600436106101005760003560e01c806391d1485411610097578063ce3d448b11610066578063ce3d448b1461022c578063d547741f1461023f578063d5f9ea2f14610252578063e602af761461025a57600080fd5b806391d14854146101f3578063a217fddf14610206578063a51a68181461020e578063b389fbed1461022357600080fd5b80632f2ff15d116100d35780632f2ff15d1461019357806336568abe146101a657806384b75b87146101b9578063918d2f41146101cc57600080fd5b806301ffc9a714610105578063028345881461012d5780630a73eb6a14610158578063248a9ca314610162575b600080fd5b610118610113366004610ebf565b610296565b60405190151581526020015b60405180910390f35b600554610140906001600160a01b031681565b6040516001600160a01b039091168152602001610124565b6101606102cd565b005b610185610170366004610ef0565b60009081526020819052604090206001015490565b604051908152602001610124565b6101606101a1366004610f1e565b610524565b6101606101b4366004610f1e565b61054f565b6101856101c7366004611005565b610587565b6101857f73f9a0f79d0de650ebb1c7d68b67125ab5d93ce97641ba33e5e1e4b5f481921c81565b610118610201366004610f1e565b6108bb565b610185600081565b6102166108e4565b60405161012491906110e4565b61018560075481565b600654610140906001600160a01b031681565b61016061024d366004610f1e565b610972565b610140610997565b6004546102779060ff81169061010090046001600160a01b031682565b6040805192151583526001600160a01b03909116602083015201610124565b60006001600160e01b03198216637965db0b60e01b14806102c757506301ffc9a760e01b6001600160e01b03198316145b92915050565b7f73f9a0f79d0de650ebb1c7d68b67125ab5d93ce97641ba33e5e1e4b5f481921c6102f781610a12565b60016040516310cdb49360e01b815260006004820152735da4aA5e216faEcab56546fedE5b1106a054a128906310cdb49390602401600060405180830381865af4158015610349573d6000803e3d6000fd5b505050506040513d6000823e601f3d908101601f19168201604052610371919081019061115a565b516002811115610383576103836110f7565b146103d55760405162461bcd60e51b815260206004820152601d60248201527f6765745079746850726963652063616c6c206661696c65642d4e45415200000060448201526064015b60405180910390fd5b6040516310cdb49360e01b815260006004820181905290735da4aA5e216faEcab56546fedE5b1106a054a128906310cdb49390602401600060405180830381865af4158015610428573d6000803e3d6000fd5b505050506040513d6000823e601f3d908101601f19168201604052610450919081019061115a565b60200151905080600181518110610469576104696111dd565b01602001516001600160f81b031916156104c55760405162461bcd60e51b815260206004820152601f60248201527f6765745079746850726963652063616c6c206661696c65642d4175726f72610060448201526064016103cc565b60006104ef6104ea6104e58460028087516104e09190611209565b610a1f565b610b2c565b610b5d565b90506000818060200190518101906105079190611238565b60085490915061051b90829060ff16610b9d565b60075550505050565b60008281526020819052604090206001015461053f81610a12565b6105498383610c97565b50505050565b6001600160a01b03811633146105785760405163334bd91960e11b815260040160405180910390fd5b6105828282610d29565b505050565b6008805460ff191660ff831617905560405160009081906105ac9085906024016110e4565b60408051601f198184030181529181526020820180516001600160e01b03166331d98b3f60e01b17905260065490516312496a1b60e01b8152919250600091735da4aA5e216faEcab56546fedE5b1106a054a1289163925be54d9160049160039186916001600160a01b031690829073B95e6a65dA43a7f4f26bFD5dD7c2631cBF3fb31a906312496a1b90610644908c9089016110e4565b600060405180830381865af4158015610661573d6000803e3d6000fd5b505050506040513d6000823e601f3d908101601f1916820160405261068991908101906112c0565b60405160200161069c94939291906112f4565b6040516020818303038152906040526000655af3107a40006040518663ffffffff1660e01b81526004016106d495949392919061137d565b600060405180830381865af41580156106f1573d6000803e3d6000fd5b505050506040513d6000823e601f3d908101601f19168201604052610719919081019061155d565b60408051630539f5b560e11b602082015281516004818303810182526024830193849052630c6c383960e21b909352929350600092735da4aA5e216faEcab56546fedE5b1106a054a128926331b0e0e49261078292309187906509184e72a00090602801611591565b600060405180830381865af415801561079f573d6000803e3d6000fd5b505050506040513d6000823e601f3d908101601f191682016040526107c7919081019061155d565b60405163987cbd7160e01b8152909150735da4aA5e216faEcab56546fedE5b1106a054a1289063987cbd71906108039085908590600401611660565b600060405180830381865af4158015610820573d6000803e3d6000fd5b505050506040513d6000823e601f3d908101601f19168201604052610848919081019061168e565b60405163b4fa799360e01b8152735da4aA5e216faEcab56546fedE5b1106a054a1289163b4fa79939161087e919060040161170f565b60006040518083038186803b15801561089657600080fd5b505af41580156108aa573d6000803e3d6000fd5b505060075498975050505050505050565b6000918252602082815260408084206001600160a01b0393909316845291905290205460ff1690565b600380546108f190611343565b80601f016020809104026020016040519081016040528092919081815260200182805461091d90611343565b801561096a5780601f1061093f5761010080835404028352916020019161096a565b820191906000526020600020905b81548152906001019060200180831161094d57829003601f168201915b505050505081565b60008281526020819052604090206001015461098d81610a12565b6105498383610d29565b60405163a33598bf60e01b8152306004820152600090735da4aA5e216faEcab56546fedE5b1106a054a1289063a33598bf90602401602060405180830381865af41580156109e9573d6000803e3d6000fd5b505050506040513d601f19601f82011682018060405250810190610a0d9190611748565b905090565b610a1c8133610d94565b50565b606081610a2d81601f611765565b1015610a6c5760405162461bcd60e51b815260206004820152600e60248201526d736c6963655f6f766572666c6f7760901b60448201526064016103cc565b610a768284611765565b84511015610aba5760405162461bcd60e51b8152602060048201526011602482015270736c6963655f6f75744f66426f756e647360781b60448201526064016103cc565b606082158015610ad95760405191506000825260208201604052610b23565b6040519150601f8416801560200281840101858101878315602002848b0101015b81831015610b12578051835260209283019201610afa565b5050858452601f01601f1916604052505b50949350505050565b604080518082019091526000808252602082015260208201815281610b4f815190565b825101602083015250919050565b60606000610b6a83610dd1565b63ffffffff169050610b858184610e0790919063ffffffff16565b8251610b919082610e5e565b83519091019092525090565b600080836000015160070b1280610bbb57506000836040015160030b135b80610bce575060fe19836040015160030b125b15610c0b5760405162461bcd60e51b815260206004820152600d60248201526c496e76616c696420707269636560981b60448201526064016103cc565b60008360400151600019610c1f9190611778565b90508060ff168360ff1610610c6357610c388184611798565b610c469060ff16600a611895565b8451610c5b91906001600160401b03166118a7565b9150506102c7565b610c6d8382611798565b610c7b9060ff16600a611895565b8451610c5b91906001600160401b03166118be565b5092915050565b6000610ca383836108bb565b610d21576000838152602081815260408083206001600160a01b03861684529091529020805460ff19166001179055610cd93390565b6001600160a01b0316826001600160a01b0316847f2f8788117e7eff1d82e926ec794901d17c78024a50270940304540a733656f0d60405160405180910390a45060016102c7565b5060006102c7565b6000610d3583836108bb565b15610d21576000838152602081815260408083206001600160a01b0386168085529252808320805460ff1916905551339286917ff6391f5c32d9c69d2a47ea670b442974b53935d1edc7fd64eb21e047a839171b9190a45060016102c7565b610d9e82826108bb565b610dcd5760405163e2517d3f60e01b81526001600160a01b0382166004820152602481018390526044016103cc565b5050565b60006102c7610de1836004610ea6565b60e881901c62ff00ff1663ff00ff0060d89290921c9190911617601081811c91901b1790565b6020820151825182011115610dcd5760405162461bcd60e51b815260206004820152601b60248201527f5061727365206572726f723a20756e657870656374656420454f49000000000060448201526064016103cc565b606081156102c7576040519050601f19603f830116810180604052828252602082015b8451815260208101905081810315610e9e57602085019450610e81565b505092915050565b6000610eb28383610e07565b5081518051910190915290565b600060208284031215610ed157600080fd5b81356001600160e01b031981168114610ee957600080fd5b9392505050565b600060208284031215610f0257600080fd5b5035919050565b6001600160a01b0381168114610a1c57600080fd5b60008060408385031215610f3157600080fd5b823591506020830135610f4381610f09565b809150509250929050565b634e487b7160e01b600052604160045260246000fd5b604080519081016001600160401b0381118282101715610f8657610f86610f4e565b60405290565b60405160a081016001600160401b0381118282101715610f8657610f86610f4e565b604051601f8201601f191681016001600160401b0381118282101715610fd657610fd6610f4e565b604052919050565b60006001600160401b03821115610ff757610ff7610f4e565b50601f01601f191660200190565b6000806040838503121561101857600080fd5b82356001600160401b0381111561102e57600080fd5b8301601f8101851361103f57600080fd5b803561105261104d82610fde565b610fae565b81815286602083850101111561106757600080fd5b81602084016020830137600060208383010152809450505050602083013560ff81168114610f4357600080fd5b60005b838110156110af578181015183820152602001611097565b50506000910152565b600081518084526110d0816020860160208601611094565b601f01601f19169290920160200192915050565b602081526000610ee960208301846110b8565b634e487b7160e01b600052602160045260246000fd5b600082601f83011261111e57600080fd5b815161112c61104d82610fde565b81815284602083860101111561114157600080fd5b611152826020830160208701611094565b949350505050565b60006020828403121561116c57600080fd5b81516001600160401b038082111561118357600080fd5b908301906040828603121561119757600080fd5b61119f610f64565b8251600381106111ae57600080fd5b81526020830151828111156111c257600080fd5b6111ce8782860161110d565b60208301525095945050505050565b634e487b7160e01b600052603260045260246000fd5b634e487b7160e01b600052601160045260246000fd5b818103818111156102c7576102c76111f3565b80516001600160401b038116811461123357600080fd5b919050565b60006080828403121561124a57600080fd5b604051608081018181106001600160401b038211171561126c5761126c610f4e565b6040528251600781900b811461128157600080fd5b815261128f6020840161121c565b602082015260408301518060030b81146112a857600080fd5b60408201526060928301519281019290925250919050565b6000602082840312156112d257600080fd5b81516001600160401b038111156112e857600080fd5b6111528482850161110d565b60ff60f81b8560f81b1681526bffffffffffffffffffffffff198460601b16600182015282601582015260008251611333816035850160208701611094565b9190910160350195945050505050565b600181811c9082168061135757607f821691505b60208210810361137757634e487b7160e01b600052602260045260246000fd5b50919050565b8581526000602060c0818401526000875481600182811c9150808316806113a557607f831692505b85831081036113c257634e487b7160e01b85526022600452602485fd5b60c0880183905260e088018180156113e157600181146113f757611422565b60ff198616825284151560051b82019650611422565b60008e81526020902060005b8681101561141c57815484820152908501908901611403565b83019750505b505050505050838103604085015261144b81600481526318d85b1b60e21b602082015260400190565b915050828103606084015261146081876110b8565b91505061147860808301856001600160801b03169052565b6001600160401b03831660a08301529695505050505050565b80516001600160801b038116811461123357600080fd5b600060a082840312156114ba57600080fd5b6114c2610f8c565b905081516001600160401b03808211156114db57600080fd5b6114e78583860161110d565b835260208401519150808211156114fd57600080fd5b6115098583860161110d565b6020840152604084015191508082111561152257600080fd5b5061152f8482850161110d565b60408301525061154160608301611491565b60608201526115526080830161121c565b608082015292915050565b60006020828403121561156f57600080fd5b81516001600160401b0381111561158557600080fd5b611152848285016114a8565b8581526001600160a01b038516602082015260a0604082018190526000906115bb908301866110b8565b90506001600160801b03841660608301526001600160401b03831660808301529695505050505050565b6000815160a084526115fa60a08501826110b8565b90506020830151848203602086015261161382826110b8565b9150506040830151848203604086015261162d82826110b8565b9150506001600160801b0360608401511660608501526001600160401b0360808401511660808501528091505092915050565b60408152600061167360408301856115e5565b828103602084015261168581856115e5565b95945050505050565b6000602082840312156116a057600080fd5b81516001600160401b03808211156116b757600080fd5b90830190604082860312156116cb57600080fd5b6116d3610f64565b8251828111156116e257600080fd5b6116ee878286016114a8565b82525060208301518281111561170357600080fd5b6111ce878286016114a8565b60208152600082516040602084015261172b60608401826115e5565b90506020840151601f1984830301604085015261168582826115e5565b60006020828403121561175a57600080fd5b8151610ee981610f09565b808201808211156102c7576102c76111f3565b60008260030b8260030b028060030b9150808214610c9057610c906111f3565b60ff82811682821603908111156102c7576102c76111f3565b600181815b808511156117ec5781600019048211156117d2576117d26111f3565b808516156117df57918102915b93841c93908002906117b6565b509250929050565b600082611803575060016102c7565b81611810575060006102c7565b816001811461182657600281146118305761184c565b60019150506102c7565b60ff841115611841576118416111f3565b50506001821b6102c7565b5060208310610133831016604e8410600b841016171561186f575081810a6102c7565b61187983836117b1565b806000190482111561188d5761188d6111f3565b029392505050565b6000610ee963ffffffff8416836117f4565b80820281158282048414176102c7576102c76111f3565b6000826118db57634e487b7160e01b600052601260045260246000fd5b50049056fea2646970667358221220840bec03f2c79ca12802c5691e808e1577da032089acf7eb86c4cf39ddb97efc64736f6c63430008140033",
  "deployedBytecode": "0x608060405234801561001057600080fd5b50600436106101005760003560e01c806391d1485411610097578063ce3d448b11610066578063ce3d448b1461022c578063d547741f1461023f578063d5f9ea2f14610252578063e602af761461025a57600080fd5b806391d14854146101f3578063a217fddf14610206578063a51a68181461020e578063b389fbed1461022357600080fd5b80632f2ff15d116100d35780632f2ff15d1461019357806336568abe146101a657806384b75b87146101b9578063918d2f41146101cc57600080fd5b806301ffc9a714610105578063028345881461012d5780630a73eb6a14610158578063248a9ca314610162575b600080fd5b610118610113366004610ebf565b610296565b60405190151581526020015b60405180910390f35b600554610140906001600160a01b031681565b6040516001600160a01b039091168152602001610124565b6101606102cd565b005b610185610170366004610ef0565b60009081526020819052604090206001015490565b604051908152602001610124565b6101606101a1366004610f1e565b610524565b6101606101b4366004610f1e565b61054f565b6101856101c7366004611005565b610587565b6101857f73f9a0f79d0de650ebb1c7d68b67125ab5d93ce97641ba33e5e1e4b5f481921c81565b610118610201366004610f1e565b6108bb565b610185600081565b6102166108e4565b60405161012491906110e4565b61018560075481565b600654610140906001600160a01b031681565b61016061024d366004610f1e565b610972565b610140610997565b6004546102779060ff81169061010090046001600160a01b031682565b6040805192151583526001600160a01b03909116602083015201610124565b60006001600160e01b03198216637965db0b60e01b14806102c757506301ffc9a760e01b6001600160e01b03198316145b92915050565b7f73f9a0f79d0de650ebb1c7d68b67125ab5d93ce97641ba33e5e1e4b5f481921c6102f781610a12565b60016040516310cdb49360e01b81526000600482015273__$ff4a9d42f131ddb06cb1b98765cd1b5a91$__906310cdb49390602401600060405180830381865af4158015610349573d6000803e3d6000fd5b505050506040513d6000823e601f3d908101601f19168201604052610371919081019061115a565b516002811115610383576103836110f7565b146103d55760405162461bcd60e51b815260206004820152601d60248201527f6765745079746850726963652063616c6c206661696c65642d4e45415200000060448201526064015b60405180910390fd5b6040516310cdb49360e01b81526000600482018190529073__$ff4a9d42f131ddb06cb1b98765cd1b5a91$__906310cdb49390602401600060405180830381865af4158015610428573d6000803e3d6000fd5b505050506040513d6000823e601f3d908101601f19168201604052610450919081019061115a565b60200151905080600181518110610469576104696111dd565b01602001516001600160f81b031916156104c55760405162461bcd60e51b815260206004820152601f60248201527f6765745079746850726963652063616c6c206661696c65642d4175726f72610060448201526064016103cc565b60006104ef6104ea6104e58460028087516104e09190611209565b610a1f565b610b2c565b610b5d565b90506000818060200190518101906105079190611238565b60085490915061051b90829060ff16610b9d565b60075550505050565b60008281526020819052604090206001015461053f81610a12565b6105498383610c97565b50505050565b6001600160a01b03811633146105785760405163334bd91960e11b815260040160405180910390fd5b6105828282610d29565b505050565b6008805460ff191660ff831617905560405160009081906105ac9085906024016110e4565b60408051601f198184030181529181526020820180516001600160e01b03166331d98b3f60e01b17905260065490516312496a1b60e01b815291925060009173__$ff4a9d42f131ddb06cb1b98765cd1b5a91$__9163925be54d9160049160039186916001600160a01b031690829073__$b47451c9693ac4910bddd2ef01d769da1b$__906312496a1b90610644908c9089016110e4565b600060405180830381865af4158015610661573d6000803e3d6000fd5b505050506040513d6000823e601f3d908101601f1916820160405261068991908101906112c0565b60405160200161069c94939291906112f4565b6040516020818303038152906040526000655af3107a40006040518663ffffffff1660e01b81526004016106d495949392919061137d565b600060405180830381865af41580156106f1573d6000803e3d6000fd5b505050506040513d6000823e601f3d908101601f19168201604052610719919081019061155d565b60408051630539f5b560e11b602082015281516004818303810182526024830193849052630c6c383960e21b90935292935060009273__$ff4a9d42f131ddb06cb1b98765cd1b5a91$__926331b0e0e49261078292309187906509184e72a00090602801611591565b600060405180830381865af415801561079f573d6000803e3d6000fd5b505050506040513d6000823e601f3d908101601f191682016040526107c7919081019061155d565b60405163987cbd7160e01b815290915073__$ff4a9d42f131ddb06cb1b98765cd1b5a91$__9063987cbd71906108039085908590600401611660565b600060405180830381865af4158015610820573d6000803e3d6000fd5b505050506040513d6000823e601f3d908101601f19168201604052610848919081019061168e565b60405163b4fa799360e01b815273__$ff4a9d42f131ddb06cb1b98765cd1b5a91$__9163b4fa79939161087e919060040161170f565b60006040518083038186803b15801561089657600080fd5b505af41580156108aa573d6000803e3d6000fd5b505060075498975050505050505050565b6000918252602082815260408084206001600160a01b0393909316845291905290205460ff1690565b600380546108f190611343565b80601f016020809104026020016040519081016040528092919081815260200182805461091d90611343565b801561096a5780601f1061093f5761010080835404028352916020019161096a565b820191906000526020600020905b81548152906001019060200180831161094d57829003601f168201915b505050505081565b60008281526020819052604090206001015461098d81610a12565b6105498383610d29565b60405163a33598bf60e01b815230600482015260009073__$ff4a9d42f131ddb06cb1b98765cd1b5a91$__9063a33598bf90602401602060405180830381865af41580156109e9573d6000803e3d6000fd5b505050506040513d601f19601f82011682018060405250810190610a0d9190611748565b905090565b610a1c8133610d94565b50565b606081610a2d81601f611765565b1015610a6c5760405162461bcd60e51b815260206004820152600e60248201526d736c6963655f6f766572666c6f7760901b60448201526064016103cc565b610a768284611765565b84511015610aba5760405162461bcd60e51b8152602060048201526011602482015270736c6963655f6f75744f66426f756e647360781b60448201526064016103cc565b606082158015610ad95760405191506000825260208201604052610b23565b6040519150601f8416801560200281840101858101878315602002848b0101015b81831015610b12578051835260209283019201610afa565b5050858452601f01601f1916604052505b50949350505050565b604080518082019091526000808252602082015260208201815281610b4f815190565b825101602083015250919050565b60606000610b6a83610dd1565b63ffffffff169050610b858184610e0790919063ffffffff16565b8251610b919082610e5e565b83519091019092525090565b600080836000015160070b1280610bbb57506000836040015160030b135b80610bce575060fe19836040015160030b125b15610c0b5760405162461bcd60e51b815260206004820152600d60248201526c496e76616c696420707269636560981b60448201526064016103cc565b60008360400151600019610c1f9190611778565b90508060ff168360ff1610610c6357610c388184611798565b610c469060ff16600a611895565b8451610c5b91906001600160401b03166118a7565b9150506102c7565b610c6d8382611798565b610c7b9060ff16600a611895565b8451610c5b91906001600160401b03166118be565b5092915050565b6000610ca383836108bb565b610d21576000838152602081815260408083206001600160a01b03861684529091529020805460ff19166001179055610cd93390565b6001600160a01b0316826001600160a01b0316847f2f8788117e7eff1d82e926ec794901d17c78024a50270940304540a733656f0d60405160405180910390a45060016102c7565b5060006102c7565b6000610d3583836108bb565b15610d21576000838152602081815260408083206001600160a01b0386168085529252808320805460ff1916905551339286917ff6391f5c32d9c69d2a47ea670b442974b53935d1edc7fd64eb21e047a839171b9190a45060016102c7565b610d9e82826108bb565b610dcd5760405163e2517d3f60e01b81526001600160a01b0382166004820152602481018390526044016103cc565b5050565b60006102c7610de1836004610ea6565b60e881901c62ff00ff1663ff00ff0060d89290921c9190911617601081811c91901b1790565b6020820151825182011115610dcd5760405162461bcd60e51b815260206004820152601b60248201527f5061727365206572726f723a20756e657870656374656420454f49000000000060448201526064016103cc565b606081156102c7576040519050601f19603f830116810180604052828252602082015b8451815260208101905081810315610e9e57602085019450610e81565b505092915050565b6000610eb28383610e07565b5081518051910190915290565b600060208284031215610ed157600080fd5b81356001600160e01b031981168114610ee957600080fd5b9392505050565b600060208284031215610f0257600080fd5b5035919050565b6001600160a01b0381168114610a1c57600080fd5b60008060408385031215610f3157600080fd5b823591506020830135610f4381610f09565b809150509250929050565b634e487b7160e01b600052604160045260246000fd5b604080519081016001600160401b0381118282101715610f8657610f86610f4e565b60405290565b60405160a081016001600160401b0381118282101715610f8657610f86610f4e565b604051601f8201601f191681016001600160401b0381118282101715610fd657610fd6610f4e565b604052919050565b60006001600160401b03821115610ff757610ff7610f4e565b50601f01601f191660200190565b6000806040838503121561101857600080fd5b82356001600160401b0381111561102e57600080fd5b8301601f8101851361103f57600080fd5b803561105261104d82610fde565b610fae565b81815286602083850101111561106757600080fd5b81602084016020830137600060208383010152809450505050602083013560ff81168114610f4357600080fd5b60005b838110156110af578181015183820152602001611097565b50506000910152565b600081518084526110d0816020860160208601611094565b601f01601f19169290920160200192915050565b602081526000610ee960208301846110b8565b634e487b7160e01b600052602160045260246000fd5b600082601f83011261111e57600080fd5b815161112c61104d82610fde565b81815284602083860101111561114157600080fd5b611152826020830160208701611094565b949350505050565b60006020828403121561116c57600080fd5b81516001600160401b038082111561118357600080fd5b908301906040828603121561119757600080fd5b61119f610f64565b8251600381106111ae57600080fd5b81526020830151828111156111c257600080fd5b6111ce8782860161110d565b60208301525095945050505050565b634e487b7160e01b600052603260045260246000fd5b634e487b7160e01b600052601160045260246000fd5b818103818111156102c7576102c76111f3565b80516001600160401b038116811461123357600080fd5b919050565b60006080828403121561124a57600080fd5b604051608081018181106001600160401b038211171561126c5761126c610f4e565b6040528251600781900b811461128157600080fd5b815261128f6020840161121c565b602082015260408301518060030b81146112a857600080fd5b60408201526060928301519281019290925250919050565b6000602082840312156112d257600080fd5b81516001600160401b038111156112e857600080fd5b6111528482850161110d565b60ff60f81b8560f81b1681526bffffffffffffffffffffffff198460601b16600182015282601582015260008251611333816035850160208701611094565b9190910160350195945050505050565b600181811c9082168061135757607f821691505b60208210810361137757634e487b7160e01b600052602260045260246000fd5b50919050565b8581526000602060c0818401526000875481600182811c9150808316806113a557607f831692505b85831081036113c257634e487b7160e01b85526022600452602485fd5b60c0880183905260e088018180156113e157600181146113f757611422565b60ff198616825284151560051b82019650611422565b60008e81526020902060005b8681101561141c57815484820152908501908901611403565b83019750505b505050505050838103604085015261144b81600481526318d85b1b60e21b602082015260400190565b915050828103606084015261146081876110b8565b91505061147860808301856001600160801b03169052565b6001600160401b03831660a08301529695505050505050565b80516001600160801b038116811461123357600080fd5b600060a082840312156114ba57600080fd5b6114c2610f8c565b905081516001600160401b03808211156114db57600080fd5b6114e78583860161110d565b835260208401519150808211156114fd57600080fd5b6115098583860161110d565b6020840152604084015191508082111561152257600080fd5b5061152f8482850161110d565b60408301525061154160608301611491565b60608201526115526080830161121c565b608082015292915050565b60006020828403121561156f57600080fd5b81516001600160401b0381111561158557600080fd5b611152848285016114a8565b8581526001600160a01b038516602082015260a0604082018190526000906115bb908301866110b8565b90506001600160801b03841660608301526001600160401b03831660808301529695505050505050565b6000815160a084526115fa60a08501826110b8565b90506020830151848203602086015261161382826110b8565b9150506040830151848203604086015261162d82826110b8565b9150506001600160801b0360608401511660608501526001600160401b0360808401511660808501528091505092915050565b60408152600061167360408301856115e5565b828103602084015261168581856115e5565b95945050505050565b6000602082840312156116a057600080fd5b81516001600160401b03808211156116b757600080fd5b90830190604082860312156116cb57600080fd5b6116d3610f64565b8251828111156116e257600080fd5b6116ee878286016114a8565b82525060208301518281111561170357600080fd5b6111ce878286016114a8565b60208152600082516040602084015261172b60608401826115e5565b90506020840151601f1984830301604085015261168582826115e5565b60006020828403121561175a57600080fd5b8151610ee981610f09565b808201808211156102c7576102c76111f3565b60008260030b8260030b028060030b9150808214610c9057610c906111f3565b60ff82811682821603908111156102c7576102c76111f3565b600181815b808511156117ec5781600019048211156117d2576117d26111f3565b808516156117df57918102915b93841c93908002906117b6565b509250929050565b600082611803575060016102c7565b81611810575060006102c7565b816001811461182657600281146118305761184c565b60019150506102c7565b60ff841115611841576118416111f3565b50506001821b6102c7565b5060208310610133831016604e8410600b841016171561186f575081810a6102c7565b61187983836117b1565b806000190482111561188d5761188d6111f3565b029392505050565b6000610ee963ffffffff8416836117f4565b80820281158282048414176102c7576102c76111f3565b6000826118db57634e487b7160e01b600052601260045260246000fd5b50049056fea2646970667358221220840bec03f2c79ca12802c5691e808e1577da032089acf7eb86c4cf39ddb97efc64736f6c63430008140033",
  "libraries": {
    "AuroraSdk": "0x5da4aA5e216faEcab56546fedE5b1106a054a128",
    "Codec": "0xB95e6a65dA43a7f4f26bFD5dD7c2631cBF3fb31a"
  },
  "devdoc": {
    "errors": {
      "AccessControlBadConfirmation()": [
        {
          "details": "The caller of a function is not the expected one. NOTE: Don't confuse with {AccessControlUnauthorizedAccount}."
        }
      ],
      "AccessControlUnauthorizedAccount(address,bytes32)": [
        {
          "details": "The `account` is missing a role."
        }
      ]
    },
    "events": {
      "RoleAdminChanged(bytes32,bytes32,bytes32)": {
        "details": "Emitted when `newAdminRole` is set as ``role``'s admin role, replacing `previousAdminRole` `DEFAULT_ADMIN_ROLE` is the starting admin for all roles, despite {RoleAdminChanged} not being emitted signaling this."
      },
      "RoleGranted(bytes32,address,address)": {
        "details": "Emitted when `account` is granted `role`. `sender` is the account that originated the contract call, an admin role bearer except when using {AccessControl-_setupRole}."
      },
      "RoleRevoked(bytes32,address,address)": {
        "details": "Emitted when `account` is revoked `role`. `sender` is the account that originated the contract call:   - if using `revokeRole`, it is the admin role bearer   - if using `renounceRole`, it is the role bearer (i.e. `account`)"
      }
    },
    "kind": "dev",
    "methods": {
      "getRoleAdmin(bytes32)": {
        "details": "Returns the admin role that controls `role`. See {grantRole} and {revokeRole}. To change a role's admin, use {_setRoleAdmin}."
      },
      "grantRole(bytes32,address)": {
        "details": "Grants `role` to `account`. If `account` had not been already granted `role`, emits a {RoleGranted} event. Requirements: - the caller must have ``role``'s admin role. May emit a {RoleGranted} event."
      },
      "hasRole(bytes32,address)": {
        "details": "Returns `true` if `account` has been granted `role`."
      },
      "renounceRole(bytes32,address)": {
        "details": "Revokes `role` from the calling account. Roles are often managed via {grantRole} and {revokeRole}: this function's purpose is to provide a mechanism for accounts to lose their privileges if they are compromised (such as when a trusted device is misplaced). If the calling account had been revoked `role`, emits a {RoleRevoked} event. Requirements: - the caller must be `callerConfirmation`. May emit a {RoleRevoked} event."
      },
      "revokeRole(bytes32,address)": {
        "details": "Revokes `role` from `account`. If `account` had been granted `role`, emits a {RoleRevoked} event. Requirements: - the caller must have ``role``'s admin role. May emit a {RoleRevoked} event."
      },
      "supportsInterface(bytes4)": {
        "details": "See {IERC165-supportsInterface}."
      }
    },
    "version": 1
  },
  "userdoc": {
    "kind": "user",
    "methods": {},
    "notice": "Pyth oracle deployed on an Aurora Testnet. Read Through XCC Pyth Price feed. The result of the XCC call is returned in the callback from Aurora Mainnet to the Silo.",
    "version": 1
  },
  "storageLayout": {
    "storage": [
      {
        "astId": 26,
        "contract": "contracts/PythOracle.sol:PythOracle",
        "label": "_roles",
        "offset": 0,
        "slot": "0",
        "type": "t_mapping(t_bytes32,t_struct(RoleData)21_storage)"
      },
      {
        "astId": 1078,
        "contract": "contracts/PythOracle.sol:PythOracle",
        "label": "pyth",
        "offset": 0,
        "slot": "1",
        "type": "t_contract(IPyth)659"
      },
      {
        "astId": 1080,
        "contract": "contracts/PythOracle.sol:PythOracle",
        "label": "fee",
        "offset": 0,
        "slot": "2",
        "type": "t_uint256"
      },
      {
        "astId": 1087,
        "contract": "contracts/PythOracle.sol:PythOracle",
        "label": "auroraMainnetAccountId",
        "offset": 0,
        "slot": "3",
        "type": "t_string_storage"
      },
      {
        "astId": 1090,
        "contract": "contracts/PythOracle.sol:PythOracle",
        "label": "near",
        "offset": 0,
        "slot": "4",
        "type": "t_struct(NEAR)1436_storage"
      },
      {
        "astId": 1092,
        "contract": "contracts/PythOracle.sol:PythOracle",
        "label": "wNEAR",
        "offset": 0,
        "slot": "5",
        "type": "t_address"
      },
      {
        "astId": 1094,
        "contract": "contracts/PythOracle.sol:PythOracle",
        "label": "priceFeedAddr",
        "offset": 0,
        "slot": "6",
        "type": "t_address"
      },
      {
        "astId": 1096,
        "contract": "contracts/PythOracle.sol:PythOracle",
        "label": "priceResult",
        "offset": 0,
        "slot": "7",
        "type": "t_uint256"
      },
      {
        "astId": 1098,
        "contract": "contracts/PythOracle.sol:PythOracle",
        "label": "targetPriceDecimals",
        "offset": 0,
        "slot": "8",
        "type": "t_uint8"
      }
    ],
    "types": {
      "t_address": {
        "encoding": "inplace",
        "label": "address",
        "numberOfBytes": "20"
      },
      "t_bool": {
        "encoding": "inplace",
        "label": "bool",
        "numberOfBytes": "1"
      },
      "t_bytes32": {
        "encoding": "inplace",
        "label": "bytes32",
        "numberOfBytes": "32"
      },
      "t_contract(IERC20)456": {
        "encoding": "inplace",
        "label": "contract IERC20",
        "numberOfBytes": "20"
      },
      "t_contract(IPyth)659": {
        "encoding": "inplace",
        "label": "contract IPyth",
        "numberOfBytes": "20"
      },
      "t_mapping(t_address,t_bool)": {
        "encoding": "mapping",
        "key": "t_address",
        "label": "mapping(address => bool)",
        "numberOfBytes": "32",
        "value": "t_bool"
      },
      "t_mapping(t_bytes32,t_struct(RoleData)21_storage)": {
        "encoding": "mapping",
        "key": "t_bytes32",
        "label": "mapping(bytes32 => struct AccessControl.RoleData)",
        "numberOfBytes": "32",
        "value": "t_struct(RoleData)21_storage"
      },
      "t_string_storage": {
        "encoding": "bytes",
        "label": "string",
        "numberOfBytes": "32"
      },
      "t_struct(NEAR)1436_storage": {
        "encoding": "inplace",
        "label": "struct NEAR",
        "members": [
          {
            "astId": 1431,
            "contract": "contracts/PythOracle.sol:PythOracle",
            "label": "initialized",
            "offset": 0,
            "slot": "0",
            "type": "t_bool"
          },
          {
            "astId": 1435,
            "contract": "contracts/PythOracle.sol:PythOracle",
            "label": "wNEAR",
            "offset": 1,
            "slot": "0",
            "type": "t_contract(IERC20)456"
          }
        ],
        "numberOfBytes": "32"
      },
      "t_struct(RoleData)21_storage": {
        "encoding": "inplace",
        "label": "struct AccessControl.RoleData",
        "members": [
          {
            "astId": 18,
            "contract": "contracts/PythOracle.sol:PythOracle",
            "label": "hasRole",
            "offset": 0,
            "slot": "0",
            "type": "t_mapping(t_address,t_bool)"
          },
          {
            "astId": 20,
            "contract": "contracts/PythOracle.sol:PythOracle",
            "label": "adminRole",
            "offset": 0,
            "slot": "1",
            "type": "t_bytes32"
          }
        ],
        "numberOfBytes": "64"
      },
      "t_uint256": {
        "encoding": "inplace",
        "label": "uint256",
        "numberOfBytes": "32"
      },
      "t_uint8": {
        "encoding": "inplace",
        "label": "uint8",
        "numberOfBytes": "1"
      }
    }
  }
}