{
  "address": "0xda6aE88D5bbafd35f00273BfeA7cCa0df0249a46",
  "abi": [
    {
      "inputs": [
        {
          "internalType": "string",
          "name": "_auroraMainnetAccountId",
          "type": "string"
        },
        {
          "internalType": "contract IERC20",
          "name": "_wNEAR",
          "type": "address"
        },
        {
          "internalType": "address",
          "name": "_priceFeedAddr",
          "type": "address"
        },
        {
          "internalType": "uint256",
          "name": "_priceValidTimeRange",
          "type": "uint256"
        }
      ],
      "stateMutability": "nonpayable",
      "type": "constructor"
    },
    {
      "inputs": [],
      "name": "AccessControlBadConfirmation",
      "type": "error"
    },
    {
      "inputs": [
        {
          "internalType": "address",
          "name": "account",
          "type": "address"
        },
        {
          "internalType": "bytes32",
          "name": "neededRole",
          "type": "bytes32"
        }
      ],
      "name": "AccessControlUnauthorizedAccount",
      "type": "error"
    },
    {
      "anonymous": false,
      "inputs": [
        {
          "indexed": true,
          "internalType": "bytes32",
          "name": "role",
          "type": "bytes32"
        },
        {
          "indexed": true,
          "internalType": "bytes32",
          "name": "previousAdminRole",
          "type": "bytes32"
        },
        {
          "indexed": true,
          "internalType": "bytes32",
          "name": "newAdminRole",
          "type": "bytes32"
        }
      ],
      "name": "RoleAdminChanged",
      "type": "event"
    },
    {
      "anonymous": false,
      "inputs": [
        {
          "indexed": true,
          "internalType": "bytes32",
          "name": "role",
          "type": "bytes32"
        },
        {
          "indexed": true,
          "internalType": "address",
          "name": "account",
          "type": "address"
        },
        {
          "indexed": true,
          "internalType": "address",
          "name": "sender",
          "type": "address"
        }
      ],
      "name": "RoleGranted",
      "type": "event"
    },
    {
      "anonymous": false,
      "inputs": [
        {
          "indexed": true,
          "internalType": "bytes32",
          "name": "role",
          "type": "bytes32"
        },
        {
          "indexed": true,
          "internalType": "address",
          "name": "account",
          "type": "address"
        },
        {
          "indexed": true,
          "internalType": "address",
          "name": "sender",
          "type": "address"
        }
      ],
      "name": "RoleRevoked",
      "type": "event"
    },
    {
      "inputs": [],
      "name": "CALLBACK_ROLE",
      "outputs": [
        {
          "internalType": "bytes32",
          "name": "",
          "type": "bytes32"
        }
      ],
      "stateMutability": "view",
      "type": "function"
    },
    {
      "inputs": [],
      "name": "DEFAULT_ADMIN_ROLE",
      "outputs": [
        {
          "internalType": "bytes32",
          "name": "",
          "type": "bytes32"
        }
      ],
      "stateMutability": "view",
      "type": "function"
    },
    {
      "inputs": [],
      "name": "auroraMainnetAccountId",
      "outputs": [
        {
          "internalType": "string",
          "name": "",
          "type": "string"
        }
      ],
      "stateMutability": "view",
      "type": "function"
    },
    {
      "inputs": [
        {
          "internalType": "bytes32",
          "name": "pairId",
          "type": "bytes32"
        }
      ],
      "name": "getPythPrice",
      "outputs": [],
      "stateMutability": "nonpayable",
      "type": "function"
    },
    {
      "inputs": [
        {
          "internalType": "bytes32",
          "name": "pairId",
          "type": "bytes32"
        }
      ],
      "name": "getPythPriceCallback",
      "outputs": [],
      "stateMutability": "nonpayable",
      "type": "function"
    },
    {
      "inputs": [
        {
          "internalType": "bytes32",
          "name": "role",
          "type": "bytes32"
        }
      ],
      "name": "getRoleAdmin",
      "outputs": [
        {
          "internalType": "bytes32",
          "name": "",
          "type": "bytes32"
        }
      ],
      "stateMutability": "view",
      "type": "function"
    },
    {
      "inputs": [
        {
          "internalType": "bytes32",
          "name": "role",
          "type": "bytes32"
        },
        {
          "internalType": "address",
          "name": "account",
          "type": "address"
        }
      ],
      "name": "grantRole",
      "outputs": [],
      "stateMutability": "nonpayable",
      "type": "function"
    },
    {
      "inputs": [
        {
          "internalType": "bytes32",
          "name": "role",
          "type": "bytes32"
        },
        {
          "internalType": "address",
          "name": "account",
          "type": "address"
        }
      ],
      "name": "hasRole",
      "outputs": [
        {
          "internalType": "bool",
          "name": "",
          "type": "bool"
        }
      ],
      "stateMutability": "view",
      "type": "function"
    },
    {
      "inputs": [],
      "name": "near",
      "outputs": [
        {
          "internalType": "bool",
          "name": "initialized",
          "type": "bool"
        },
        {
          "internalType": "contract IERC20",
          "name": "wNEAR",
          "type": "address"
        }
      ],
      "stateMutability": "view",
      "type": "function"
    },
    {
      "inputs": [],
      "name": "nearRepresentitiveImplicitAddress",
      "outputs": [
        {
          "internalType": "address",
          "name": "",
          "type": "address"
        }
      ],
      "stateMutability": "nonpayable",
      "type": "function"
    },
    {
      "inputs": [],
      "name": "priceFeedAddr",
      "outputs": [
        {
          "internalType": "address",
          "name": "",
          "type": "address"
        }
      ],
      "stateMutability": "view",
      "type": "function"
    },
    {
      "inputs": [
        {
          "internalType": "bytes32",
          "name": "",
          "type": "bytes32"
        }
      ],
      "name": "priceMap",
      "outputs": [
        {
          "internalType": "int64",
          "name": "price",
          "type": "int64"
        },
        {
          "internalType": "uint64",
          "name": "conf",
          "type": "uint64"
        },
        {
          "internalType": "int32",
          "name": "expo",
          "type": "int32"
        },
        {
          "internalType": "uint256",
          "name": "publishTime",
          "type": "uint256"
        }
      ],
      "stateMutability": "view",
      "type": "function"
    },
    {
      "inputs": [
        {
          "internalType": "bytes32",
          "name": "pairId",
          "type": "bytes32"
        },
        {
          "internalType": "uint8",
          "name": "targetPriceDecimals",
          "type": "uint8"
        }
      ],
      "name": "readPrice",
      "outputs": [
        {
          "internalType": "uint256",
          "name": "",
          "type": "uint256"
        }
      ],
      "stateMutability": "view",
      "type": "function"
    },
    {
      "inputs": [
        {
          "internalType": "bytes32",
          "name": "pairId",
          "type": "bytes32"
        },
        {
          "internalType": "uint8",
          "name": "targetPriceDecimals",
          "type": "uint8"
        }
      ],
      "name": "readPriceInfo",
      "outputs": [
        {
          "internalType": "uint256",
          "name": "",
          "type": "uint256"
        },
        {
          "internalType": "uint256",
          "name": "",
          "type": "uint256"
        }
      ],
      "stateMutability": "view",
      "type": "function"
    },
    {
      "inputs": [
        {
          "internalType": "bytes32",
          "name": "pairId",
          "type": "bytes32"
        },
        {
          "internalType": "uint8",
          "name": "targetPriceDecimals",
          "type": "uint8"
        }
      ],
      "name": "readPriceUnSafe",
      "outputs": [
        {
          "internalType": "uint256",
          "name": "",
          "type": "uint256"
        }
      ],
      "stateMutability": "view",
      "type": "function"
    },
    {
      "inputs": [
        {
          "internalType": "bytes32",
          "name": "role",
          "type": "bytes32"
        },
        {
          "internalType": "address",
          "name": "callerConfirmation",
          "type": "address"
        }
      ],
      "name": "renounceRole",
      "outputs": [],
      "stateMutability": "nonpayable",
      "type": "function"
    },
    {
      "inputs": [
        {
          "internalType": "address",
          "name": "adminAddress",
          "type": "address"
        }
      ],
      "name": "replaceAdmin",
      "outputs": [],
      "stateMutability": "nonpayable",
      "type": "function"
    },
    {
      "inputs": [
        {
          "internalType": "bytes32",
          "name": "role",
          "type": "bytes32"
        },
        {
          "internalType": "address",
          "name": "account",
          "type": "address"
        }
      ],
      "name": "revokeRole",
      "outputs": [],
      "stateMutability": "nonpayable",
      "type": "function"
    },
    {
      "inputs": [
        {
          "internalType": "uint256",
          "name": "_priceValidTimeRange",
          "type": "uint256"
        }
      ],
      "name": "setPriceValidTimeRange",
      "outputs": [],
      "stateMutability": "nonpayable",
      "type": "function"
    },
    {
      "inputs": [
        {
          "internalType": "bytes4",
          "name": "interfaceId",
          "type": "bytes4"
        }
      ],
      "name": "supportsInterface",
      "outputs": [
        {
          "internalType": "bool",
          "name": "",
          "type": "bool"
        }
      ],
      "stateMutability": "view",
      "type": "function"
    },
    {
      "inputs": [],
      "name": "wNEAR",
      "outputs": [
        {
          "internalType": "address",
          "name": "",
          "type": "address"
        }
      ],
      "stateMutability": "view",
      "type": "function"
    }
  ],
  "transactionHash": "0xce6790a6c0e30d97852c7894ebff28e7471f2c114db77d8fc060e749ea8e26d4",
  "args": [
    "aurora",
    "0x4861825e75ab14553e5af711ebbe6873d369d146",
    "0x74f09cb3c7e2A01865f424FD14F6dc9A14E3e94E",
    300
  ],
  "numDeployments": 2,
  "solcInputHash": "4efa580338a5abd6cd86c4c141386e63",
  "bytecode": "0x60806040523480156200001157600080fd5b506040516200237138038062002371833981016040819052620000349162000311565b62000047600033620001ee565b620001ee565b5060405163a33598bf60e01b8152306004820152620000e5907f73f9a0f79d0de650ebb1c7d68b67125ab5d93ce97641ba33e5e1e4b5f481921c9073F3AAd56Deb1A6322a1b5D8E565499438bd63768f9063a33598bf90602401602060405180830381865af4158015620000bf573d6000803e3d6000fd5b505050506040513d601f19601f82011682018060405250810190620000419190620003f4565b506003620000f48582620004aa565b50604051630daa036f60e21b81526001600160a01b038416600482015273F3AAd56Deb1A6322a1b5D8E565499438bd63768f906336a80dbc906024016040805180830381865af41580156200014d573d6000803e3d6000fd5b505050506040513d601f19601f8201168201806040525081019062000173919062000576565b8051600480546020909301516001600160a81b0319909316911515610100600160a81b031916919091176101006001600160a01b0393841602179055600580546001600160a01b03199081169583169590951790556001805485169390911692831790556006805490931690911790915560075550620005e0565b6000828152602081815260408083206001600160a01b038516845290915281205460ff1662000293576000838152602081815260408083206001600160a01b03861684529091529020805460ff191660011790556200024a3390565b6001600160a01b0316826001600160a01b0316847f2f8788117e7eff1d82e926ec794901d17c78024a50270940304540a733656f0d60405160405180910390a450600162000297565b5060005b92915050565b634e487b7160e01b600052604160045260246000fd5b604051601f8201601f191681016001600160401b0381118282101715620002de57620002de6200029d565b604052919050565b6001600160a01b0381168114620002fc57600080fd5b50565b80516200030c81620002e6565b919050565b600080600080608085870312156200032857600080fd5b84516001600160401b03808211156200034057600080fd5b818701915087601f8301126200035557600080fd5b8151818111156200036a576200036a6200029d565b6020915062000382601f8201601f19168301620002b3565b81815289838386010111156200039757600080fd5b60005b82811015620003b75784810184015182820185015283016200039a565b5060008383830101528097505050620003d2818801620002ff565b94505050620003e460408601620002ff565b6060959095015193969295505050565b6000602082840312156200040757600080fd5b81516200041481620002e6565b9392505050565b600181811c908216806200043057607f821691505b6020821081036200045157634e487b7160e01b600052602260045260246000fd5b50919050565b601f821115620004a557600081815260208120601f850160051c81016020861015620004805750805b601f850160051c820191505b81811015620004a1578281556001016200048c565b5050505b505050565b81516001600160401b03811115620004c657620004c66200029d565b620004de81620004d784546200041b565b8462000457565b602080601f831160018114620005165760008415620004fd5750858301515b600019600386901b1c1916600185901b178555620004a1565b600085815260208120601f198616915b82811015620005475788860151825594840194600190910190840162000526565b5085821015620005665787850151600019600388901b60f8161c191681555b5050505050600190811b01905550565b6000604082840312156200058957600080fd5b604080519081016001600160401b0381118282101715620005ae57620005ae6200029d565b60405282518015158114620005c257600080fd5b81526020830151620005d481620002e6565b60208201529392505050565b611d8180620005f06000396000f3fe608060405234801561001057600080fd5b50600436106101375760003560e01c8063a217fddf116100b8578063ce3d448b1161007c578063ce3d448b14610334578063d547741f14610347578063d5f9ea2f1461035a578063e602af7614610362578063f6e252201461039e578063fa1dcfaf146103b157600080fd5b8063a217fddf14610270578063a51a681814610278578063c4f4face1461028d578063c8507cbd146102a0578063cb4a4b001461032157600080fd5b80632f16d6c8116100ff5780632f16d6c8146101fd5780632f2ff15d1461021057806336568abe14610223578063918d2f411461023657806391d148541461025d57600080fd5b806301ffc9a71461013c5780630283458814610164578063078d26051461018f578063248a9ca3146101a457806329b4cc5a146101d5575b600080fd5b61014f61014a366004611393565b6103c4565b60405190151581526020015b60405180910390f35b600554610177906001600160a01b031681565b6040516001600160a01b03909116815260200161015b565b6101a261019d3660046113c4565b6103fb565b005b6101c76101b23660046113c4565b60009081526020819052604090206001015490565b60405190815260200161015b565b6101e86101e33660046113dd565b610461565b6040805192835260208301919091520161015b565b6101a261020b3660046113c4565b61052f565b6101a261021e366004611428565b6107e2565b6101a2610231366004611428565b61080d565b6101c77f73f9a0f79d0de650ebb1c7d68b67125ab5d93ce97641ba33e5e1e4b5f481921c81565b61014f61026b366004611428565b610845565b6101c7600081565b61028061086e565b60405161015b919061149d565b6101a261029b3660046114b0565b6108fc565b6102ea6102ae3660046113c4565b60086020526000908152604090208054600190910154600782900b916001600160401b03600160401b82041691600160801b90910460030b9084565b60405161015b949392919060079490940b84526001600160401b0392909216602084015260030b6040830152606082015260800190565b6101c761032f3660046113dd565b610915565b600654610177906001600160a01b031681565b6101a2610355366004611428565b61097b565b6101776109a0565b60045461037f9060ff81169061010090046001600160a01b031682565b6040805192151583526001600160a01b0390911660208301520161015b565b6101a26103ac3660046113c4565b610a1b565b6101c76103bf3660046113dd565b610d5b565b60006001600160e01b03198216637965db0b60e01b14806103f557506301ffc9a760e01b6001600160e01b03198316145b92915050565b600061040681610e0b565b6000821161045b5760405162461bcd60e51b815260206004820152601b60248201527f496e76616c696420707269636556616c696454696d6552616e6765000000000060448201526064015b60405180910390fd5b50600755565b600082815260086020908152604080832081516080810183528154600781810b83526001600160401b03600160401b83041695830195909552600160801b900460030b928101929092526001015460608201819052915483926104c491906114e3565b4211156105075760405162461bcd60e51b8152602060048201526011602482015270141c9a58d9481a5cc81bdd5d19185d1959607a1b6044820152606401610452565b60006105138286610e15565b905060006105218387610f0f565b919791965090945050505050565b7f73f9a0f79d0de650ebb1c7d68b67125ab5d93ce97641ba33e5e1e4b5f481921c61055981610e0b565b60016040516310cdb49360e01b81526000600482015273F3AAd56Deb1A6322a1b5D8E565499438bd63768f906310cdb49390602401600060405180830381865af41580156105ab573d6000803e3d6000fd5b505050506040513d6000823e601f3d908101601f191682016040526105d391908101906115f3565b5160028111156105e5576105e56114f6565b146106325760405162461bcd60e51b815260206004820152601d60248201527f6765745079746850726963652063616c6c206661696c65642d4e4541520000006044820152606401610452565b6040516310cdb49360e01b81526000600482018190529073F3AAd56Deb1A6322a1b5D8E565499438bd63768f906310cdb49390602401600060405180830381865af4158015610685573d6000803e3d6000fd5b505050506040513d6000823e601f3d908101601f191682016040526106ad91908101906115f3565b602001519050806001815181106106c6576106c6611676565b01602001516001600160f81b031916156107225760405162461bcd60e51b815260206004820152601f60248201527f6765745079746850726963652063616c6c206661696c65642d4175726f7261006044820152606401610452565b600061074c61074761074284600280875161073d919061168c565b610fed565b6110fa565b61112b565b90508080602001905181019061076291906116bb565b6000948552600860209081526040958690208251815492840151978401516001600160401b039182166fffffffffffffffffffffffffffffffff1990941693909317600160401b91909816029690961763ffffffff60801b1916600160801b63ffffffff9092169190910217855560600151600190940193909355505050565b6000828152602081905260409020600101546107fd81610e0b565b610807838361116b565b50505050565b6001600160a01b03811633146108365760405163334bd91960e11b815260040160405180910390fd5b61084082826111fd565b505050565b6000918252602082815260408084206001600160a01b0393909316845291905290205460ff1690565b6003805461087b90611743565b80601f01602080910402602001604051908101604052809291908181526020018280546108a790611743565b80156108f45780601f106108c9576101008083540402835291602001916108f4565b820191906000526020600020905b8154815290600101906020018083116108d757829003601f168201915b505050505081565b6109076000826107e2565b61091260003361080d565b50565b600082815260086020908152604080832081516080810183528154600781900b82526001600160401b03600160401b82041694820194909452600160801b90930460030b918301919091526001015460608201526109738184610e15565b949350505050565b60008281526020819052604090206001015461099681610e0b565b61080783836111fd565b60405163a33598bf60e01b815230600482015260009073F3AAd56Deb1A6322a1b5D8E565499438bd63768f9063a33598bf90602401602060405180830381865af41580156109f2573d6000803e3d6000fd5b505050506040513d601f19601f82011682018060405250810190610a16919061177d565b905090565b600081604051602401610a3091815260200190565b60408051601f198184030181529181526020820180516001600160e01b03166331d98b3f60e01b17905260065490516312496a1b60e01b815291925060009173F3AAd56Deb1A6322a1b5D8E565499438bd63768f9163925be54d9160049160039186916001600160a01b0316908290739Ff1Ef63DCB58E74e963cbd30558FFaD30A4D57a906312496a1b90610ac8908c90890161149d565b600060405180830381865af4158015610ae5573d6000803e3d6000fd5b505050506040513d6000823e601f3d908101601f19168201604052610b0d919081019061179a565b604051602001610b2094939291906117ce565b6040516020818303038152906040526000655af3107a40006040518663ffffffff1660e01b8152600401610b5895949392919061181d565b600060405180830381865af4158015610b75573d6000803e3d6000fd5b505050506040513d6000823e601f3d908101601f19168201604052610b9d91908101906119f8565b90506000600473F3AAd56Deb1A6322a1b5D8E565499438bd63768f6331b0e0e490913087604051602401610bd391815260200190565b60408051601f198184030181529181526020820180516001600160e01b03166305e2dad960e31b1790525160e085901b6001600160e01b0319168152610c29939291906000906509184e72a00090600401611a2c565b600060405180830381865af4158015610c46573d6000803e3d6000fd5b505050506040513d6000823e601f3d908101601f19168201604052610c6e91908101906119f8565b60405163987cbd7160e01b815290915073F3AAd56Deb1A6322a1b5D8E565499438bd63768f9063987cbd7190610caa9085908590600401611afb565b600060405180830381865af4158015610cc7573d6000803e3d6000fd5b505050506040513d6000823e601f3d908101601f19168201604052610cef9190810190611b29565b60405163b4fa799360e01b815273F3AAd56Deb1A6322a1b5D8E565499438bd63768f9163b4fa799391610d259190600401611baa565b60006040518083038186803b158015610d3d57600080fd5b505af4158015610d51573d6000803e3d6000fd5b5050505050505050565b600082815260086020908152604080832081516080810183528154600781810b83526001600160401b03600160401b83041695830195909552600160801b900460030b92810192909252600101546060820181905291549091610dbe91906114e3565b421115610e015760405162461bcd60e51b8152602060048201526011602482015270141c9a58d9481a5cc81bdd5d19185d1959607a1b6044820152606401610452565b6109738184610e15565b6109128133611268565b600080836000015160070b1280610e3357506000836040015160030b135b80610e46575060fe19836040015160030b125b15610e835760405162461bcd60e51b815260206004820152600d60248201526c496e76616c696420707269636560981b6044820152606401610452565b60008360400151600019610e979190611be3565b90508060ff168360ff1610610edb57610eb08184611c03565b610ebe9060ff16600a611d00565b8451610ed391906001600160401b0316611d12565b9150506103f5565b610ee58382611c03565b610ef39060ff16600a611d00565b8451610ed391906001600160401b0316611d29565b5092915050565b600080836040015160030b1380610f2e575060fe19836040015160030b125b15610f6a5760405162461bcd60e51b815260206004820152600c60248201526b496e76616c6964206578706f60a01b6044820152606401610452565b60008360400151600019610f7e9190611be3565b90508060ff168360ff1610610fbd57610f978184611c03565b610fa59060ff16600a611d00565b84602001516001600160401b0316610ed39190611d12565b610fc78382611c03565b610fd59060ff16600a611d00565b84602001516001600160401b0316610ed39190611d29565b606081610ffb81601f6114e3565b101561103a5760405162461bcd60e51b815260206004820152600e60248201526d736c6963655f6f766572666c6f7760901b6044820152606401610452565b61104482846114e3565b845110156110885760405162461bcd60e51b8152602060048201526011602482015270736c6963655f6f75744f66426f756e647360781b6044820152606401610452565b6060821580156110a757604051915060008252602082016040526110f1565b6040519150601f8416801560200281840101858101878315602002848b0101015b818310156110e05780518352602092830192016110c8565b5050858452601f01601f1916604052505b50949350505050565b60408051808201909152600080825260208201526020820181528161111d815190565b825101602083015250919050565b60606000611138836112a5565b63ffffffff16905061115381846112db90919063ffffffff16565b825161115f9082611332565b83519091019092525090565b60006111778383610845565b6111f5576000838152602081815260408083206001600160a01b03861684529091529020805460ff191660011790556111ad3390565b6001600160a01b0316826001600160a01b0316847f2f8788117e7eff1d82e926ec794901d17c78024a50270940304540a733656f0d60405160405180910390a45060016103f5565b5060006103f5565b60006112098383610845565b156111f5576000838152602081815260408083206001600160a01b0386168085529252808320805460ff1916905551339286917ff6391f5c32d9c69d2a47ea670b442974b53935d1edc7fd64eb21e047a839171b9190a45060016103f5565b6112728282610845565b6112a15760405163e2517d3f60e01b81526001600160a01b038216600482015260248101839052604401610452565b5050565b60006103f56112b583600461137a565b60e881901c62ff00ff1663ff00ff0060d89290921c9190911617601081811c91901b1790565b60208201518251820111156112a15760405162461bcd60e51b815260206004820152601b60248201527f5061727365206572726f723a20756e657870656374656420454f4900000000006044820152606401610452565b606081156103f5576040519050601f19603f830116810180604052828252602082015b845181526020810190508181031561137257602085019450611355565b505092915050565b600061138683836112db565b5081518051910190915290565b6000602082840312156113a557600080fd5b81356001600160e01b0319811681146113bd57600080fd5b9392505050565b6000602082840312156113d657600080fd5b5035919050565b600080604083850312156113f057600080fd5b82359150602083013560ff8116811461140857600080fd5b809150509250929050565b6001600160a01b038116811461091257600080fd5b6000806040838503121561143b57600080fd5b82359150602083013561140881611413565b60005b83811015611468578181015183820152602001611450565b50506000910152565b6000815180845261148981602086016020860161144d565b601f01601f19169290920160200192915050565b6020815260006113bd6020830184611471565b6000602082840312156114c257600080fd5b81356113bd81611413565b634e487b7160e01b600052601160045260246000fd5b808201808211156103f5576103f56114cd565b634e487b7160e01b600052602160045260246000fd5b634e487b7160e01b600052604160045260246000fd5b604080519081016001600160401b03811182821017156115445761154461150c565b60405290565b60405160a081016001600160401b03811182821017156115445761154461150c565b600082601f83011261157d57600080fd5b81516001600160401b03808211156115975761159761150c565b604051601f8301601f19908116603f011681019082821181831017156115bf576115bf61150c565b816040528381528660208588010111156115d857600080fd5b6115e984602083016020890161144d565b9695505050505050565b60006020828403121561160557600080fd5b81516001600160401b038082111561161c57600080fd5b908301906040828603121561163057600080fd5b611638611522565b82516003811061164757600080fd5b815260208301518281111561165b57600080fd5b6116678782860161156c565b60208301525095945050505050565b634e487b7160e01b600052603260045260246000fd5b818103818111156103f5576103f56114cd565b80516001600160401b03811681146116b657600080fd5b919050565b6000608082840312156116cd57600080fd5b604051608081018181106001600160401b03821117156116ef576116ef61150c565b6040528251600781900b811461170457600080fd5b81526117126020840161169f565b602082015260408301518060030b811461172b57600080fd5b60408201526060928301519281019290925250919050565b600181811c9082168061175757607f821691505b60208210810361177757634e487b7160e01b600052602260045260246000fd5b50919050565b60006020828403121561178f57600080fd5b81516113bd81611413565b6000602082840312156117ac57600080fd5b81516001600160401b038111156117c257600080fd5b6109738482850161156c565b60ff60f81b8560f81b1681526bffffffffffffffffffffffff198460601b1660018201528260158201526000825161180d81603585016020870161144d565b9190910160350195945050505050565b8581526000602060c0818401526000875481600182811c91508083168061184557607f831692505b858310810361186257634e487b7160e01b85526022600452602485fd5b60c0880183905260e088018180156118815760018114611897576118c2565b60ff198616825284151560051b820196506118c2565b60008e81526020902060005b868110156118bc578154848201529085019089016118a3565b83019750505b50505050505083810360408501526118eb81600481526318d85b1b60e21b602082015260400190565b91505082810360608401526119008187611471565b91505061191860808301856001600160801b03169052565b6001600160401b03831660a08301526115e9565b80516001600160801b03811681146116b657600080fd5b600060a0828403121561195557600080fd5b61195d61154a565b905081516001600160401b038082111561197657600080fd5b6119828583860161156c565b8352602084015191508082111561199857600080fd5b6119a48583860161156c565b602084015260408401519150808211156119bd57600080fd5b506119ca8482850161156c565b6040830152506119dc6060830161192c565b60608201526119ed6080830161169f565b608082015292915050565b600060208284031215611a0a57600080fd5b81516001600160401b03811115611a2057600080fd5b61097384828501611943565b8581526001600160a01b038516602082015260a060408201819052600090611a5690830186611471565b90506001600160801b03841660608301526001600160401b03831660808301529695505050505050565b6000815160a08452611a9560a0850182611471565b905060208301518482036020860152611aae8282611471565b91505060408301518482036040860152611ac88282611471565b9150506001600160801b0360608401511660608501526001600160401b0360808401511660808501528091505092915050565b604081526000611b0e6040830185611a80565b8281036020840152611b208185611a80565b95945050505050565b600060208284031215611b3b57600080fd5b81516001600160401b0380821115611b5257600080fd5b9083019060408286031215611b6657600080fd5b611b6e611522565b825182811115611b7d57600080fd5b611b8987828601611943565b825250602083015182811115611b9e57600080fd5b61166787828601611943565b602081526000825160406020840152611bc66060840182611a80565b90506020840151601f19848303016040850152611b208282611a80565b60008260030b8260030b028060030b9150808214610f0857610f086114cd565b60ff82811682821603908111156103f5576103f56114cd565b600181815b80851115611c57578160001904821115611c3d57611c3d6114cd565b80851615611c4a57918102915b93841c9390800290611c21565b509250929050565b600082611c6e575060016103f5565b81611c7b575060006103f5565b8160018114611c915760028114611c9b57611cb7565b60019150506103f5565b60ff841115611cac57611cac6114cd565b50506001821b6103f5565b5060208310610133831016604e8410600b8410161715611cda575081810a6103f5565b611ce48383611c1c565b8060001904821115611cf857611cf86114cd565b029392505050565b60006113bd63ffffffff841683611c5f565b80820281158282048414176103f5576103f56114cd565b600082611d4657634e487b7160e01b600052601260045260246000fd5b50049056fea264697066735822122055e1d069c6c9659a375517589893ebee6fdd3850bf8db85dd00541b0ed246ee264736f6c63430008140033",
  "deployedBytecode": "0x608060405234801561001057600080fd5b50600436106101375760003560e01c8063a217fddf116100b8578063ce3d448b1161007c578063ce3d448b14610334578063d547741f14610347578063d5f9ea2f1461035a578063e602af7614610362578063f6e252201461039e578063fa1dcfaf146103b157600080fd5b8063a217fddf14610270578063a51a681814610278578063c4f4face1461028d578063c8507cbd146102a0578063cb4a4b001461032157600080fd5b80632f16d6c8116100ff5780632f16d6c8146101fd5780632f2ff15d1461021057806336568abe14610223578063918d2f411461023657806391d148541461025d57600080fd5b806301ffc9a71461013c5780630283458814610164578063078d26051461018f578063248a9ca3146101a457806329b4cc5a146101d5575b600080fd5b61014f61014a366004611393565b6103c4565b60405190151581526020015b60405180910390f35b600554610177906001600160a01b031681565b6040516001600160a01b03909116815260200161015b565b6101a261019d3660046113c4565b6103fb565b005b6101c76101b23660046113c4565b60009081526020819052604090206001015490565b60405190815260200161015b565b6101e86101e33660046113dd565b610461565b6040805192835260208301919091520161015b565b6101a261020b3660046113c4565b61052f565b6101a261021e366004611428565b6107e2565b6101a2610231366004611428565b61080d565b6101c77f73f9a0f79d0de650ebb1c7d68b67125ab5d93ce97641ba33e5e1e4b5f481921c81565b61014f61026b366004611428565b610845565b6101c7600081565b61028061086e565b60405161015b919061149d565b6101a261029b3660046114b0565b6108fc565b6102ea6102ae3660046113c4565b60086020526000908152604090208054600190910154600782900b916001600160401b03600160401b82041691600160801b90910460030b9084565b60405161015b949392919060079490940b84526001600160401b0392909216602084015260030b6040830152606082015260800190565b6101c761032f3660046113dd565b610915565b600654610177906001600160a01b031681565b6101a2610355366004611428565b61097b565b6101776109a0565b60045461037f9060ff81169061010090046001600160a01b031682565b6040805192151583526001600160a01b0390911660208301520161015b565b6101a26103ac3660046113c4565b610a1b565b6101c76103bf3660046113dd565b610d5b565b60006001600160e01b03198216637965db0b60e01b14806103f557506301ffc9a760e01b6001600160e01b03198316145b92915050565b600061040681610e0b565b6000821161045b5760405162461bcd60e51b815260206004820152601b60248201527f496e76616c696420707269636556616c696454696d6552616e6765000000000060448201526064015b60405180910390fd5b50600755565b600082815260086020908152604080832081516080810183528154600781810b83526001600160401b03600160401b83041695830195909552600160801b900460030b928101929092526001015460608201819052915483926104c491906114e3565b4211156105075760405162461bcd60e51b8152602060048201526011602482015270141c9a58d9481a5cc81bdd5d19185d1959607a1b6044820152606401610452565b60006105138286610e15565b905060006105218387610f0f565b919791965090945050505050565b7f73f9a0f79d0de650ebb1c7d68b67125ab5d93ce97641ba33e5e1e4b5f481921c61055981610e0b565b60016040516310cdb49360e01b81526000600482015273__$ff4a9d42f131ddb06cb1b98765cd1b5a91$__906310cdb49390602401600060405180830381865af41580156105ab573d6000803e3d6000fd5b505050506040513d6000823e601f3d908101601f191682016040526105d391908101906115f3565b5160028111156105e5576105e56114f6565b146106325760405162461bcd60e51b815260206004820152601d60248201527f6765745079746850726963652063616c6c206661696c65642d4e4541520000006044820152606401610452565b6040516310cdb49360e01b81526000600482018190529073__$ff4a9d42f131ddb06cb1b98765cd1b5a91$__906310cdb49390602401600060405180830381865af4158015610685573d6000803e3d6000fd5b505050506040513d6000823e601f3d908101601f191682016040526106ad91908101906115f3565b602001519050806001815181106106c6576106c6611676565b01602001516001600160f81b031916156107225760405162461bcd60e51b815260206004820152601f60248201527f6765745079746850726963652063616c6c206661696c65642d4175726f7261006044820152606401610452565b600061074c61074761074284600280875161073d919061168c565b610fed565b6110fa565b61112b565b90508080602001905181019061076291906116bb565b6000948552600860209081526040958690208251815492840151978401516001600160401b039182166fffffffffffffffffffffffffffffffff1990941693909317600160401b91909816029690961763ffffffff60801b1916600160801b63ffffffff9092169190910217855560600151600190940193909355505050565b6000828152602081905260409020600101546107fd81610e0b565b610807838361116b565b50505050565b6001600160a01b03811633146108365760405163334bd91960e11b815260040160405180910390fd5b61084082826111fd565b505050565b6000918252602082815260408084206001600160a01b0393909316845291905290205460ff1690565b6003805461087b90611743565b80601f01602080910402602001604051908101604052809291908181526020018280546108a790611743565b80156108f45780601f106108c9576101008083540402835291602001916108f4565b820191906000526020600020905b8154815290600101906020018083116108d757829003601f168201915b505050505081565b6109076000826107e2565b61091260003361080d565b50565b600082815260086020908152604080832081516080810183528154600781900b82526001600160401b03600160401b82041694820194909452600160801b90930460030b918301919091526001015460608201526109738184610e15565b949350505050565b60008281526020819052604090206001015461099681610e0b565b61080783836111fd565b60405163a33598bf60e01b815230600482015260009073__$ff4a9d42f131ddb06cb1b98765cd1b5a91$__9063a33598bf90602401602060405180830381865af41580156109f2573d6000803e3d6000fd5b505050506040513d601f19601f82011682018060405250810190610a16919061177d565b905090565b600081604051602401610a3091815260200190565b60408051601f198184030181529181526020820180516001600160e01b03166331d98b3f60e01b17905260065490516312496a1b60e01b815291925060009173__$ff4a9d42f131ddb06cb1b98765cd1b5a91$__9163925be54d9160049160039186916001600160a01b031690829073__$b47451c9693ac4910bddd2ef01d769da1b$__906312496a1b90610ac8908c90890161149d565b600060405180830381865af4158015610ae5573d6000803e3d6000fd5b505050506040513d6000823e601f3d908101601f19168201604052610b0d919081019061179a565b604051602001610b2094939291906117ce565b6040516020818303038152906040526000655af3107a40006040518663ffffffff1660e01b8152600401610b5895949392919061181d565b600060405180830381865af4158015610b75573d6000803e3d6000fd5b505050506040513d6000823e601f3d908101601f19168201604052610b9d91908101906119f8565b90506000600473__$ff4a9d42f131ddb06cb1b98765cd1b5a91$__6331b0e0e490913087604051602401610bd391815260200190565b60408051601f198184030181529181526020820180516001600160e01b03166305e2dad960e31b1790525160e085901b6001600160e01b0319168152610c29939291906000906509184e72a00090600401611a2c565b600060405180830381865af4158015610c46573d6000803e3d6000fd5b505050506040513d6000823e601f3d908101601f19168201604052610c6e91908101906119f8565b60405163987cbd7160e01b815290915073__$ff4a9d42f131ddb06cb1b98765cd1b5a91$__9063987cbd7190610caa9085908590600401611afb565b600060405180830381865af4158015610cc7573d6000803e3d6000fd5b505050506040513d6000823e601f3d908101601f19168201604052610cef9190810190611b29565b60405163b4fa799360e01b815273__$ff4a9d42f131ddb06cb1b98765cd1b5a91$__9163b4fa799391610d259190600401611baa565b60006040518083038186803b158015610d3d57600080fd5b505af4158015610d51573d6000803e3d6000fd5b5050505050505050565b600082815260086020908152604080832081516080810183528154600781810b83526001600160401b03600160401b83041695830195909552600160801b900460030b92810192909252600101546060820181905291549091610dbe91906114e3565b421115610e015760405162461bcd60e51b8152602060048201526011602482015270141c9a58d9481a5cc81bdd5d19185d1959607a1b6044820152606401610452565b6109738184610e15565b6109128133611268565b600080836000015160070b1280610e3357506000836040015160030b135b80610e46575060fe19836040015160030b125b15610e835760405162461bcd60e51b815260206004820152600d60248201526c496e76616c696420707269636560981b6044820152606401610452565b60008360400151600019610e979190611be3565b90508060ff168360ff1610610edb57610eb08184611c03565b610ebe9060ff16600a611d00565b8451610ed391906001600160401b0316611d12565b9150506103f5565b610ee58382611c03565b610ef39060ff16600a611d00565b8451610ed391906001600160401b0316611d29565b5092915050565b600080836040015160030b1380610f2e575060fe19836040015160030b125b15610f6a5760405162461bcd60e51b815260206004820152600c60248201526b496e76616c6964206578706f60a01b6044820152606401610452565b60008360400151600019610f7e9190611be3565b90508060ff168360ff1610610fbd57610f978184611c03565b610fa59060ff16600a611d00565b84602001516001600160401b0316610ed39190611d12565b610fc78382611c03565b610fd59060ff16600a611d00565b84602001516001600160401b0316610ed39190611d29565b606081610ffb81601f6114e3565b101561103a5760405162461bcd60e51b815260206004820152600e60248201526d736c6963655f6f766572666c6f7760901b6044820152606401610452565b61104482846114e3565b845110156110885760405162461bcd60e51b8152602060048201526011602482015270736c6963655f6f75744f66426f756e647360781b6044820152606401610452565b6060821580156110a757604051915060008252602082016040526110f1565b6040519150601f8416801560200281840101858101878315602002848b0101015b818310156110e05780518352602092830192016110c8565b5050858452601f01601f1916604052505b50949350505050565b60408051808201909152600080825260208201526020820181528161111d815190565b825101602083015250919050565b60606000611138836112a5565b63ffffffff16905061115381846112db90919063ffffffff16565b825161115f9082611332565b83519091019092525090565b60006111778383610845565b6111f5576000838152602081815260408083206001600160a01b03861684529091529020805460ff191660011790556111ad3390565b6001600160a01b0316826001600160a01b0316847f2f8788117e7eff1d82e926ec794901d17c78024a50270940304540a733656f0d60405160405180910390a45060016103f5565b5060006103f5565b60006112098383610845565b156111f5576000838152602081815260408083206001600160a01b0386168085529252808320805460ff1916905551339286917ff6391f5c32d9c69d2a47ea670b442974b53935d1edc7fd64eb21e047a839171b9190a45060016103f5565b6112728282610845565b6112a15760405163e2517d3f60e01b81526001600160a01b038216600482015260248101839052604401610452565b5050565b60006103f56112b583600461137a565b60e881901c62ff00ff1663ff00ff0060d89290921c9190911617601081811c91901b1790565b60208201518251820111156112a15760405162461bcd60e51b815260206004820152601b60248201527f5061727365206572726f723a20756e657870656374656420454f4900000000006044820152606401610452565b606081156103f5576040519050601f19603f830116810180604052828252602082015b845181526020810190508181031561137257602085019450611355565b505092915050565b600061138683836112db565b5081518051910190915290565b6000602082840312156113a557600080fd5b81356001600160e01b0319811681146113bd57600080fd5b9392505050565b6000602082840312156113d657600080fd5b5035919050565b600080604083850312156113f057600080fd5b82359150602083013560ff8116811461140857600080fd5b809150509250929050565b6001600160a01b038116811461091257600080fd5b6000806040838503121561143b57600080fd5b82359150602083013561140881611413565b60005b83811015611468578181015183820152602001611450565b50506000910152565b6000815180845261148981602086016020860161144d565b601f01601f19169290920160200192915050565b6020815260006113bd6020830184611471565b6000602082840312156114c257600080fd5b81356113bd81611413565b634e487b7160e01b600052601160045260246000fd5b808201808211156103f5576103f56114cd565b634e487b7160e01b600052602160045260246000fd5b634e487b7160e01b600052604160045260246000fd5b604080519081016001600160401b03811182821017156115445761154461150c565b60405290565b60405160a081016001600160401b03811182821017156115445761154461150c565b600082601f83011261157d57600080fd5b81516001600160401b03808211156115975761159761150c565b604051601f8301601f19908116603f011681019082821181831017156115bf576115bf61150c565b816040528381528660208588010111156115d857600080fd5b6115e984602083016020890161144d565b9695505050505050565b60006020828403121561160557600080fd5b81516001600160401b038082111561161c57600080fd5b908301906040828603121561163057600080fd5b611638611522565b82516003811061164757600080fd5b815260208301518281111561165b57600080fd5b6116678782860161156c565b60208301525095945050505050565b634e487b7160e01b600052603260045260246000fd5b818103818111156103f5576103f56114cd565b80516001600160401b03811681146116b657600080fd5b919050565b6000608082840312156116cd57600080fd5b604051608081018181106001600160401b03821117156116ef576116ef61150c565b6040528251600781900b811461170457600080fd5b81526117126020840161169f565b602082015260408301518060030b811461172b57600080fd5b60408201526060928301519281019290925250919050565b600181811c9082168061175757607f821691505b60208210810361177757634e487b7160e01b600052602260045260246000fd5b50919050565b60006020828403121561178f57600080fd5b81516113bd81611413565b6000602082840312156117ac57600080fd5b81516001600160401b038111156117c257600080fd5b6109738482850161156c565b60ff60f81b8560f81b1681526bffffffffffffffffffffffff198460601b1660018201528260158201526000825161180d81603585016020870161144d565b9190910160350195945050505050565b8581526000602060c0818401526000875481600182811c91508083168061184557607f831692505b858310810361186257634e487b7160e01b85526022600452602485fd5b60c0880183905260e088018180156118815760018114611897576118c2565b60ff198616825284151560051b820196506118c2565b60008e81526020902060005b868110156118bc578154848201529085019089016118a3565b83019750505b50505050505083810360408501526118eb81600481526318d85b1b60e21b602082015260400190565b91505082810360608401526119008187611471565b91505061191860808301856001600160801b03169052565b6001600160401b03831660a08301526115e9565b80516001600160801b03811681146116b657600080fd5b600060a0828403121561195557600080fd5b61195d61154a565b905081516001600160401b038082111561197657600080fd5b6119828583860161156c565b8352602084015191508082111561199857600080fd5b6119a48583860161156c565b602084015260408401519150808211156119bd57600080fd5b506119ca8482850161156c565b6040830152506119dc6060830161192c565b60608201526119ed6080830161169f565b608082015292915050565b600060208284031215611a0a57600080fd5b81516001600160401b03811115611a2057600080fd5b61097384828501611943565b8581526001600160a01b038516602082015260a060408201819052600090611a5690830186611471565b90506001600160801b03841660608301526001600160401b03831660808301529695505050505050565b6000815160a08452611a9560a0850182611471565b905060208301518482036020860152611aae8282611471565b91505060408301518482036040860152611ac88282611471565b9150506001600160801b0360608401511660608501526001600160401b0360808401511660808501528091505092915050565b604081526000611b0e6040830185611a80565b8281036020840152611b208185611a80565b95945050505050565b600060208284031215611b3b57600080fd5b81516001600160401b0380821115611b5257600080fd5b9083019060408286031215611b6657600080fd5b611b6e611522565b825182811115611b7d57600080fd5b611b8987828601611943565b825250602083015182811115611b9e57600080fd5b61166787828601611943565b602081526000825160406020840152611bc66060840182611a80565b90506020840151601f19848303016040850152611b208282611a80565b60008260030b8260030b028060030b9150808214610f0857610f086114cd565b60ff82811682821603908111156103f5576103f56114cd565b600181815b80851115611c57578160001904821115611c3d57611c3d6114cd565b80851615611c4a57918102915b93841c9390800290611c21565b509250929050565b600082611c6e575060016103f5565b81611c7b575060006103f5565b8160018114611c915760028114611c9b57611cb7565b60019150506103f5565b60ff841115611cac57611cac6114cd565b50506001821b6103f5565b5060208310610133831016604e8410600b8410161715611cda575081810a6103f5565b611ce48383611c1c565b8060001904821115611cf857611cf86114cd565b029392505050565b60006113bd63ffffffff841683611c5f565b80820281158282048414176103f5576103f56114cd565b600082611d4657634e487b7160e01b600052601260045260246000fd5b50049056fea264697066735822122055e1d069c6c9659a375517589893ebee6fdd3850bf8db85dd00541b0ed246ee264736f6c63430008140033",
  "libraries": {
    "AuroraSdk": "0xF3AAd56Deb1A6322a1b5D8E565499438bd63768f",
    "Codec": "0x9Ff1Ef63DCB58E74e963cbd30558FFaD30A4D57a"
  },
  "devdoc": {
    "errors": {
      "AccessControlBadConfirmation()": [
        {
          "details": "The caller of a function is not the expected one. NOTE: Don't confuse with {AccessControlUnauthorizedAccount}."
        }
      ],
      "AccessControlUnauthorizedAccount(address,bytes32)": [
        {
          "details": "The `account` is missing a role."
        }
      ]
    },
    "events": {
      "RoleAdminChanged(bytes32,bytes32,bytes32)": {
        "details": "Emitted when `newAdminRole` is set as ``role``'s admin role, replacing `previousAdminRole` `DEFAULT_ADMIN_ROLE` is the starting admin for all roles, despite {RoleAdminChanged} not being emitted signaling this."
      },
      "RoleGranted(bytes32,address,address)": {
        "details": "Emitted when `account` is granted `role`. `sender` is the account that originated the contract call, an admin role bearer except when using {AccessControl-_setupRole}."
      },
      "RoleRevoked(bytes32,address,address)": {
        "details": "Emitted when `account` is revoked `role`. `sender` is the account that originated the contract call:   - if using `revokeRole`, it is the admin role bearer   - if using `renounceRole`, it is the role bearer (i.e. `account`)"
      }
    },
    "kind": "dev",
    "methods": {
      "getRoleAdmin(bytes32)": {
        "details": "Returns the admin role that controls `role`. See {grantRole} and {revokeRole}. To change a role's admin, use {_setRoleAdmin}."
      },
      "grantRole(bytes32,address)": {
        "details": "Grants `role` to `account`. If `account` had not been already granted `role`, emits a {RoleGranted} event. Requirements: - the caller must have ``role``'s admin role. May emit a {RoleGranted} event."
      },
      "hasRole(bytes32,address)": {
        "details": "Returns `true` if `account` has been granted `role`."
      },
      "renounceRole(bytes32,address)": {
        "details": "Revokes `role` from the calling account. Roles are often managed via {grantRole} and {revokeRole}: this function's purpose is to provide a mechanism for accounts to lose their privileges if they are compromised (such as when a trusted device is misplaced). If the calling account had been revoked `role`, emits a {RoleRevoked} event. Requirements: - the caller must be `callerConfirmation`. May emit a {RoleRevoked} event."
      },
      "revokeRole(bytes32,address)": {
        "details": "Revokes `role` from `account`. If `account` had been granted `role`, emits a {RoleRevoked} event. Requirements: - the caller must have ``role``'s admin role. May emit a {RoleRevoked} event."
      },
      "supportsInterface(bytes4)": {
        "details": "See {IERC165-supportsInterface}."
      }
    },
    "version": 1
  },
  "userdoc": {
    "kind": "user",
    "methods": {},
    "notice": "Pyth oracle deployed on an Aurora Testnet. Read Through XCC Pyth Price feed. The result of the XCC call is returned in the callback from Aurora Mainnet to the Silo.",
    "version": 1
  },
  "storageLayout": {
    "storage": [
      {
        "astId": 26,
        "contract": "contracts/PythOracle.sol:PythOracle",
        "label": "_roles",
        "offset": 0,
        "slot": "0",
        "type": "t_mapping(t_bytes32,t_struct(RoleData)21_storage)"
      },
      {
        "astId": 1078,
        "contract": "contracts/PythOracle.sol:PythOracle",
        "label": "pyth",
        "offset": 0,
        "slot": "1",
        "type": "t_contract(IPyth)659"
      },
      {
        "astId": 1080,
        "contract": "contracts/PythOracle.sol:PythOracle",
        "label": "fee",
        "offset": 0,
        "slot": "2",
        "type": "t_uint256"
      },
      {
        "astId": 1087,
        "contract": "contracts/PythOracle.sol:PythOracle",
        "label": "auroraMainnetAccountId",
        "offset": 0,
        "slot": "3",
        "type": "t_string_storage"
      },
      {
        "astId": 1090,
        "contract": "contracts/PythOracle.sol:PythOracle",
        "label": "near",
        "offset": 0,
        "slot": "4",
        "type": "t_struct(NEAR)1663_storage"
      },
      {
        "astId": 1092,
        "contract": "contracts/PythOracle.sol:PythOracle",
        "label": "wNEAR",
        "offset": 0,
        "slot": "5",
        "type": "t_address"
      },
      {
        "astId": 1094,
        "contract": "contracts/PythOracle.sol:PythOracle",
        "label": "priceFeedAddr",
        "offset": 0,
        "slot": "6",
        "type": "t_address"
      },
      {
        "astId": 1096,
        "contract": "contracts/PythOracle.sol:PythOracle",
        "label": "priceValidTimeRange",
        "offset": 0,
        "slot": "7",
        "type": "t_uint256"
      },
      {
        "astId": 1101,
        "contract": "contracts/PythOracle.sol:PythOracle",
        "label": "priceMap",
        "offset": 0,
        "slot": "8",
        "type": "t_mapping(t_bytes32,t_struct(Price)692_storage)"
      }
    ],
    "types": {
      "t_address": {
        "encoding": "inplace",
        "label": "address",
        "numberOfBytes": "20"
      },
      "t_bool": {
        "encoding": "inplace",
        "label": "bool",
        "numberOfBytes": "1"
      },
      "t_bytes32": {
        "encoding": "inplace",
        "label": "bytes32",
        "numberOfBytes": "32"
      },
      "t_contract(IERC20)456": {
        "encoding": "inplace",
        "label": "contract IERC20",
        "numberOfBytes": "20"
      },
      "t_contract(IPyth)659": {
        "encoding": "inplace",
        "label": "contract IPyth",
        "numberOfBytes": "20"
      },
      "t_int32": {
        "encoding": "inplace",
        "label": "int32",
        "numberOfBytes": "4"
      },
      "t_int64": {
        "encoding": "inplace",
        "label": "int64",
        "numberOfBytes": "8"
      },
      "t_mapping(t_address,t_bool)": {
        "encoding": "mapping",
        "key": "t_address",
        "label": "mapping(address => bool)",
        "numberOfBytes": "32",
        "value": "t_bool"
      },
      "t_mapping(t_bytes32,t_struct(Price)692_storage)": {
        "encoding": "mapping",
        "key": "t_bytes32",
        "label": "mapping(bytes32 => struct PythStructs.Price)",
        "numberOfBytes": "32",
        "value": "t_struct(Price)692_storage"
      },
      "t_mapping(t_bytes32,t_struct(RoleData)21_storage)": {
        "encoding": "mapping",
        "key": "t_bytes32",
        "label": "mapping(bytes32 => struct AccessControl.RoleData)",
        "numberOfBytes": "32",
        "value": "t_struct(RoleData)21_storage"
      },
      "t_string_storage": {
        "encoding": "bytes",
        "label": "string",
        "numberOfBytes": "32"
      },
      "t_struct(NEAR)1663_storage": {
        "encoding": "inplace",
        "label": "struct NEAR",
        "members": [
          {
            "astId": 1658,
            "contract": "contracts/PythOracle.sol:PythOracle",
            "label": "initialized",
            "offset": 0,
            "slot": "0",
            "type": "t_bool"
          },
          {
            "astId": 1662,
            "contract": "contracts/PythOracle.sol:PythOracle",
            "label": "wNEAR",
            "offset": 1,
            "slot": "0",
            "type": "t_contract(IERC20)456"
          }
        ],
        "numberOfBytes": "32"
      },
      "t_struct(Price)692_storage": {
        "encoding": "inplace",
        "label": "struct PythStructs.Price",
        "members": [
          {
            "astId": 685,
            "contract": "contracts/PythOracle.sol:PythOracle",
            "label": "price",
            "offset": 0,
            "slot": "0",
            "type": "t_int64"
          },
          {
            "astId": 687,
            "contract": "contracts/PythOracle.sol:PythOracle",
            "label": "conf",
            "offset": 8,
            "slot": "0",
            "type": "t_uint64"
          },
          {
            "astId": 689,
            "contract": "contracts/PythOracle.sol:PythOracle",
            "label": "expo",
            "offset": 16,
            "slot": "0",
            "type": "t_int32"
          },
          {
            "astId": 691,
            "contract": "contracts/PythOracle.sol:PythOracle",
            "label": "publishTime",
            "offset": 0,
            "slot": "1",
            "type": "t_uint256"
          }
        ],
        "numberOfBytes": "64"
      },
      "t_struct(RoleData)21_storage": {
        "encoding": "inplace",
        "label": "struct AccessControl.RoleData",
        "members": [
          {
            "astId": 18,
            "contract": "contracts/PythOracle.sol:PythOracle",
            "label": "hasRole",
            "offset": 0,
            "slot": "0",
            "type": "t_mapping(t_address,t_bool)"
          },
          {
            "astId": 20,
            "contract": "contracts/PythOracle.sol:PythOracle",
            "label": "adminRole",
            "offset": 0,
            "slot": "1",
            "type": "t_bytes32"
          }
        ],
        "numberOfBytes": "64"
      },
      "t_uint256": {
        "encoding": "inplace",
        "label": "uint256",
        "numberOfBytes": "32"
      },
      "t_uint64": {
        "encoding": "inplace",
        "label": "uint64",
        "numberOfBytes": "8"
      }
    }
  }
}