{
  "address": "0xeFEa485dED2ec25bAd1DBE2Cb76b548cC38A5593",
  "abi": [
    {
      "inputs": [
        {
          "internalType": "string",
          "name": "_auroraMainnetAccountId",
          "type": "string"
        },
        {
          "internalType": "contract IERC20",
          "name": "_wNEAR",
          "type": "address"
        },
        {
          "internalType": "address",
          "name": "_priceFeedAddr",
          "type": "address"
        }
      ],
      "stateMutability": "nonpayable",
      "type": "constructor"
    },
    {
      "inputs": [],
      "name": "AccessControlBadConfirmation",
      "type": "error"
    },
    {
      "inputs": [
        {
          "internalType": "address",
          "name": "account",
          "type": "address"
        },
        {
          "internalType": "bytes32",
          "name": "neededRole",
          "type": "bytes32"
        }
      ],
      "name": "AccessControlUnauthorizedAccount",
      "type": "error"
    },
    {
      "anonymous": false,
      "inputs": [
        {
          "indexed": true,
          "internalType": "bytes32",
          "name": "role",
          "type": "bytes32"
        },
        {
          "indexed": true,
          "internalType": "bytes32",
          "name": "previousAdminRole",
          "type": "bytes32"
        },
        {
          "indexed": true,
          "internalType": "bytes32",
          "name": "newAdminRole",
          "type": "bytes32"
        }
      ],
      "name": "RoleAdminChanged",
      "type": "event"
    },
    {
      "anonymous": false,
      "inputs": [
        {
          "indexed": true,
          "internalType": "bytes32",
          "name": "role",
          "type": "bytes32"
        },
        {
          "indexed": true,
          "internalType": "address",
          "name": "account",
          "type": "address"
        },
        {
          "indexed": true,
          "internalType": "address",
          "name": "sender",
          "type": "address"
        }
      ],
      "name": "RoleGranted",
      "type": "event"
    },
    {
      "anonymous": false,
      "inputs": [
        {
          "indexed": true,
          "internalType": "bytes32",
          "name": "role",
          "type": "bytes32"
        },
        {
          "indexed": true,
          "internalType": "address",
          "name": "account",
          "type": "address"
        },
        {
          "indexed": true,
          "internalType": "address",
          "name": "sender",
          "type": "address"
        }
      ],
      "name": "RoleRevoked",
      "type": "event"
    },
    {
      "inputs": [],
      "name": "CALLBACK_ROLE",
      "outputs": [
        {
          "internalType": "bytes32",
          "name": "",
          "type": "bytes32"
        }
      ],
      "stateMutability": "view",
      "type": "function"
    },
    {
      "inputs": [],
      "name": "DEFAULT_ADMIN_ROLE",
      "outputs": [
        {
          "internalType": "bytes32",
          "name": "",
          "type": "bytes32"
        }
      ],
      "stateMutability": "view",
      "type": "function"
    },
    {
      "inputs": [],
      "name": "auroraMainnetAccountId",
      "outputs": [
        {
          "internalType": "string",
          "name": "",
          "type": "string"
        }
      ],
      "stateMutability": "view",
      "type": "function"
    },
    {
      "inputs": [
        {
          "internalType": "bytes",
          "name": "priceId",
          "type": "bytes"
        },
        {
          "internalType": "uint8",
          "name": "_targetPriceDecimals",
          "type": "uint8"
        }
      ],
      "name": "getPythPrice",
      "outputs": [
        {
          "internalType": "uint256",
          "name": "",
          "type": "uint256"
        }
      ],
      "stateMutability": "nonpayable",
      "type": "function"
    },
    {
      "inputs": [],
      "name": "getPythPriceCallback",
      "outputs": [],
      "stateMutability": "nonpayable",
      "type": "function"
    },
    {
      "inputs": [
        {
          "internalType": "bytes32",
          "name": "role",
          "type": "bytes32"
        }
      ],
      "name": "getRoleAdmin",
      "outputs": [
        {
          "internalType": "bytes32",
          "name": "",
          "type": "bytes32"
        }
      ],
      "stateMutability": "view",
      "type": "function"
    },
    {
      "inputs": [
        {
          "internalType": "bytes32",
          "name": "role",
          "type": "bytes32"
        },
        {
          "internalType": "address",
          "name": "account",
          "type": "address"
        }
      ],
      "name": "grantRole",
      "outputs": [],
      "stateMutability": "nonpayable",
      "type": "function"
    },
    {
      "inputs": [
        {
          "internalType": "bytes32",
          "name": "role",
          "type": "bytes32"
        },
        {
          "internalType": "address",
          "name": "account",
          "type": "address"
        }
      ],
      "name": "hasRole",
      "outputs": [
        {
          "internalType": "bool",
          "name": "",
          "type": "bool"
        }
      ],
      "stateMutability": "view",
      "type": "function"
    },
    {
      "inputs": [],
      "name": "near",
      "outputs": [
        {
          "internalType": "bool",
          "name": "initialized",
          "type": "bool"
        },
        {
          "internalType": "contract IERC20",
          "name": "wNEAR",
          "type": "address"
        }
      ],
      "stateMutability": "view",
      "type": "function"
    },
    {
      "inputs": [],
      "name": "nearRepresentitiveImplicitAddress",
      "outputs": [
        {
          "internalType": "address",
          "name": "",
          "type": "address"
        }
      ],
      "stateMutability": "nonpayable",
      "type": "function"
    },
    {
      "inputs": [],
      "name": "priceFeedAddr",
      "outputs": [
        {
          "internalType": "address",
          "name": "",
          "type": "address"
        }
      ],
      "stateMutability": "view",
      "type": "function"
    },
    {
      "inputs": [],
      "name": "priceResult",
      "outputs": [
        {
          "internalType": "uint256",
          "name": "",
          "type": "uint256"
        }
      ],
      "stateMutability": "view",
      "type": "function"
    },
    {
      "inputs": [
        {
          "internalType": "bytes32",
          "name": "role",
          "type": "bytes32"
        },
        {
          "internalType": "address",
          "name": "callerConfirmation",
          "type": "address"
        }
      ],
      "name": "renounceRole",
      "outputs": [],
      "stateMutability": "nonpayable",
      "type": "function"
    },
    {
      "inputs": [
        {
          "internalType": "bytes32",
          "name": "role",
          "type": "bytes32"
        },
        {
          "internalType": "address",
          "name": "account",
          "type": "address"
        }
      ],
      "name": "revokeRole",
      "outputs": [],
      "stateMutability": "nonpayable",
      "type": "function"
    },
    {
      "inputs": [
        {
          "internalType": "bytes4",
          "name": "interfaceId",
          "type": "bytes4"
        }
      ],
      "name": "supportsInterface",
      "outputs": [
        {
          "internalType": "bool",
          "name": "",
          "type": "bool"
        }
      ],
      "stateMutability": "view",
      "type": "function"
    },
    {
      "inputs": [],
      "name": "wNEAR",
      "outputs": [
        {
          "internalType": "address",
          "name": "",
          "type": "address"
        }
      ],
      "stateMutability": "view",
      "type": "function"
    }
  ],
  "transactionHash": "0xe87133e3142ea9ca9c14fbc2462e19e36c64b70ff4c4883b2ffc9ece0ad836cb",
  "args": [
    "aurora.testnet",
    "0xC42C30aC6Cc15faC9bD938618BcaA1a1FaE8501d",
    "0x74f09cb3c7e2A01865f424FD14F6dc9A14E3e94E"
  ],
  "numDeployments": 1,
  "solcInputHash": "25cceaba0c96fb8b5fe37ae60f42f738",
  "bytecode": "0x60806040523480156200001157600080fd5b50604051620038dd380380620038dd83398181016040528101906200003791906200065e565b826003908162000048919062000924565b5073c34322f1f0b9140A52e669B269F6520459cb53426336a80dbc836040518263ffffffff1660e01b815260040162000082919062000a6c565b6040805180830381865af41580156200009f573d6000803e3d6000fd5b505050506040513d601f19601f82011682018060405250810190620000c5919062000b24565b600460008201518160000160006101000a81548160ff02191690831515021790555060208201518160000160016101000a81548173ffffffffffffffffffffffffffffffffffffffff021916908373ffffffffffffffffffffffffffffffffffffffff16021790555090505081600560006101000a81548173ffffffffffffffffffffffffffffffffffffffff021916908373ffffffffffffffffffffffffffffffffffffffff160217905550620002207f73f9a0f79d0de650ebb1c7d68b67125ab5d93ce97641ba33e5e1e4b5f481921c73c34322f1f0b9140A52e669B269F6520459cb534263a33598bf306040518263ffffffff1660e01b8152600401620001d0919062000b67565b602060405180830381865af4158015620001ee573d6000803e3d6000fd5b505050506040513d601f19601f8201168201806040525081019062000214919062000b84565b620002ac60201b60201c565b5080600160006101000a81548173ffffffffffffffffffffffffffffffffffffffff021916908373ffffffffffffffffffffffffffffffffffffffff16021790555080600660006101000a81548173ffffffffffffffffffffffffffffffffffffffff021916908373ffffffffffffffffffffffffffffffffffffffff16021790555050505062000bb6565b6000620002c08383620003af60201b60201c565b620003a457600160008085815260200190815260200160002060000160008473ffffffffffffffffffffffffffffffffffffffff1673ffffffffffffffffffffffffffffffffffffffff16815260200190815260200160002060006101000a81548160ff021916908315150217905550620003406200041960201b60201c565b73ffffffffffffffffffffffffffffffffffffffff168273ffffffffffffffffffffffffffffffffffffffff16847f2f8788117e7eff1d82e926ec794901d17c78024a50270940304540a733656f0d60405160405180910390a460019050620003a9565b600090505b92915050565b600080600084815260200190815260200160002060000160008373ffffffffffffffffffffffffffffffffffffffff1673ffffffffffffffffffffffffffffffffffffffff16815260200190815260200160002060009054906101000a900460ff16905092915050565b600033905090565b6000604051905090565b600080fd5b600080fd5b600080fd5b600080fd5b6000601f19601f8301169050919050565b7f4e487b7100000000000000000000000000000000000000000000000000000000600052604160045260246000fd5b6200048a826200043f565b810181811067ffffffffffffffff82111715620004ac57620004ab62000450565b5b80604052505050565b6000620004c162000421565b9050620004cf82826200047f565b919050565b600067ffffffffffffffff821115620004f257620004f162000450565b5b620004fd826200043f565b9050602081019050919050565b60005b838110156200052a5780820151818401526020810190506200050d565b60008484015250505050565b60006200054d6200054784620004d4565b620004b5565b9050828152602081018484840111156200056c576200056b6200043a565b5b620005798482856200050a565b509392505050565b600082601f83011262000599576200059862000435565b5b8151620005ab84826020860162000536565b91505092915050565b600073ffffffffffffffffffffffffffffffffffffffff82169050919050565b6000620005e182620005b4565b9050919050565b6000620005f582620005d4565b9050919050565b6200060781620005e8565b81146200061357600080fd5b50565b6000815190506200062781620005fc565b92915050565b6200063881620005d4565b81146200064457600080fd5b50565b60008151905062000658816200062d565b92915050565b6000806000606084860312156200067a57620006796200042b565b5b600084015167ffffffffffffffff8111156200069b576200069a62000430565b5b620006a98682870162000581565b9350506020620006bc8682870162000616565b9250506040620006cf8682870162000647565b9150509250925092565b600081519050919050565b7f4e487b7100000000000000000000000000000000000000000000000000000000600052602260045260246000fd5b600060028204905060018216806200072c57607f821691505b602082108103620007425762000741620006e4565b5b50919050565b60008190508160005260206000209050919050565b60006020601f8301049050919050565b600082821b905092915050565b600060088302620007ac7fffffffffffffffffffffffffffffffffffffffffffffffffffffffffffffffff826200076d565b620007b886836200076d565b95508019841693508086168417925050509392505050565b6000819050919050565b6000819050919050565b600062000805620007ff620007f984620007d0565b620007da565b620007d0565b9050919050565b6000819050919050565b6200082183620007e4565b6200083962000830826200080c565b8484546200077a565b825550505050565b600090565b6200085062000841565b6200085d81848462000816565b505050565b5b8181101562000885576200087960008262000846565b60018101905062000863565b5050565b601f821115620008d4576200089e8162000748565b620008a9846200075d565b81016020851015620008b9578190505b620008d1620008c8856200075d565b83018262000862565b50505b505050565b600082821c905092915050565b6000620008f960001984600802620008d9565b1980831691505092915050565b6000620009148383620008e6565b9150826002028217905092915050565b6200092f82620006d9565b67ffffffffffffffff8111156200094b576200094a62000450565b5b62000957825462000713565b6200096482828562000889565b600060209050601f8311600181146200099c576000841562000987578287015190505b62000993858262000906565b86555062000a03565b601f198416620009ac8662000748565b60005b82811015620009d657848901518255600182019150602085019450602081019050620009af565b86831015620009f65784890151620009f2601f891682620008e6565b8355505b6001600288020188555050505b505050505050565b600062000a2c62000a2662000a2084620005b4565b620007da565b620005b4565b9050919050565b600062000a408262000a0b565b9050919050565b600062000a548262000a33565b9050919050565b62000a668162000a47565b82525050565b600060208201905062000a83600083018462000a5b565b92915050565b600080fd5b60008115159050919050565b62000aa58162000a8e565b811462000ab157600080fd5b50565b60008151905062000ac58162000a9a565b92915050565b60006040828403121562000ae45762000ae362000a89565b5b62000af06040620004b5565b9050600062000b028482850162000ab4565b600083015250602062000b188482850162000616565b60208301525092915050565b60006040828403121562000b3d5762000b3c6200042b565b5b600062000b4d8482850162000acb565b91505092915050565b62000b6181620005d4565b82525050565b600060208201905062000b7e600083018462000b56565b92915050565b60006020828403121562000b9d5762000b9c6200042b565b5b600062000bad8482850162000647565b91505092915050565b612d178062000bc66000396000f3fe608060405234801561001057600080fd5b50600436106101005760003560e01c806391d1485411610097578063ce3d448b11610066578063ce3d448b1461029d578063d547741f146102bb578063d5f9ea2f146102d7578063e602af76146102f557610100565b806391d1485414610213578063a217fddf14610243578063a51a681814610261578063b389fbed1461027f57610100565b80632f2ff15d116100d35780632f2ff15d1461018d57806336568abe146101a957806384b75b87146101c5578063918d2f41146101f557610100565b806301ffc9a71461010557806302834588146101355780630a73eb6a14610153578063248a9ca31461015d575b600080fd5b61011f600480360381019061011a919061144a565b610314565b60405161012c9190611492565b60405180910390f35b61013d61038e565b60405161014a91906114ee565b60405180910390f35b61015b6103b4565b005b6101776004803603810190610172919061153f565b610638565b604051610184919061157b565b60405180910390f35b6101a760048036038101906101a291906115c2565b610657565b005b6101c360048036038101906101be91906115c2565b610679565b005b6101df60048036038101906101da9190611781565b6106f4565b6040516101ec91906117f6565b60405180910390f35b6101fd610aae565b60405161020a919061157b565b60405180910390f35b61022d600480360381019061022891906115c2565b610ad2565b60405161023a9190611492565b60405180910390f35b61024b610b3c565b604051610258919061157b565b60405180910390f35b610269610b43565b6040516102769190611890565b60405180910390f35b610287610bd1565b60405161029491906117f6565b60405180910390f35b6102a5610bd7565b6040516102b291906114ee565b60405180910390f35b6102d560048036038101906102d091906115c2565b610bfd565b005b6102df610c1f565b6040516102ec91906114ee565b60405180910390f35b6102fd610c9e565b60405161030b929190611911565b60405180910390f35b60007f7965db0b000000000000000000000000000000000000000000000000000000007bffffffffffffffffffffffffffffffffffffffffffffffffffffffff1916827bffffffffffffffffffffffffffffffffffffffffffffffffffffffff19161480610387575061038682610cdd565b5b9050919050565b600560009054906101000a900473ffffffffffffffffffffffffffffffffffffffff1681565b7f73f9a0f79d0de650ebb1c7d68b67125ab5d93ce97641ba33e5e1e4b5f481921c6103de81610d47565b600160028111156103f2576103f161193a565b5b73c34322f1f0b9140A52e669B269F6520459cb53426310cdb49360006040518263ffffffff1660e01b815260040161042a91906119a4565b600060405180830381865af4158015610447573d6000803e3d6000fd5b505050506040513d6000823e3d601f19601f820116820180604052508101906104709190611aca565b6000015160028111156104865761048561193a565b5b146104c6576040517f08c379a00000000000000000000000000000000000000000000000000000000081526004016104bd90611b5f565b60405180910390fd5b600073c34322f1f0b9140A52e669B269F6520459cb53426310cdb49360006040518263ffffffff1660e01b815260040161050091906119a4565b600060405180830381865af415801561051d573d6000803e3d6000fd5b505050506040513d6000823e3d601f19601f820116820180604052508101906105469190611aca565b60200151905060008160018151811061056257610561611b7f565b5b602001015160f81c60f81b7effffffffffffffffffffffffffffffffffffffffffffffffffffffffffffff1916146105cf576040517f08c379a00000000000000000000000000000000000000000000000000000000081526004016105c690611bfa565b60405180910390fd5b60006105f96105f46105ef8460028087516105ea9190611c49565b610d5b565b610e79565b610eb1565b90506000818060200190518101906106119190611dd3565b905061062c81600860009054906101000a900460ff16610eff565b60078190555050505050565b6000806000838152602001908152602001600020600101549050919050565b61066082610638565b61066981610d47565b6106738383611013565b50505050565b610681611104565b73ffffffffffffffffffffffffffffffffffffffff168173ffffffffffffffffffffffffffffffffffffffff16146106e5576040517f6697b23200000000000000000000000000000000000000000000000000000000815260040160405180910390fd5b6106ef828261110c565b505050565b600081600860006101000a81548160ff021916908360ff1602179055506000836040516024016107249190611e55565b6040516020818303038152906040527f31d98b3f000000000000000000000000000000000000000000000000000000007bffffffffffffffffffffffffffffffffffffffffffffffffffffffff19166020820180517bffffffffffffffffffffffffffffffffffffffffffffffffffffffff838183161783525050505090506000600473c34322f1f0b9140A52e669B269F6520459cb534263925be54d909160036000600660009054906101000a900473ffffffffffffffffffffffffffffffffffffffff1660008873B4404F32bEC247537F230C6657Fb34c7e6FB8a3c6312496a1b90916040518263ffffffff1660e01b81526004016108259190611ec1565b600060405180830381865af4158015610842573d6000803e3d6000fd5b505050506040513d6000823e3d601f19601f8201168201806040525081019061086b9190611ee3565b60405160200161087e9493929190612007565b6040516020818303038152906040526000655af3107a40006040518663ffffffff1660e01b81526004016108b695949392919061220a565b600060405180830381865af41580156108d3573d6000803e3d6000fd5b505050506040513d6000823e3d601f19601f820116820180604052508101906108fc919061242b565b90506000600473c34322f1f0b9140A52e669B269F6520459cb53426331b0e0e4909130630a73eb6a60e01b6040516020016109379190612495565b60405160208183030381529060405260006509184e72a0006040518663ffffffff1660e01b815260040161096f9594939291906124bf565b600060405180830381865af415801561098c573d6000803e3d6000fd5b505050506040513d6000823e3d601f19601f820116820180604052508101906109b5919061242b565b90508173c34322f1f0b9140A52e669B269F6520459cb534263987cbd719091836040518363ffffffff1660e01b81526004016109f292919061264f565b600060405180830381865af4158015610a0f573d6000803e3d6000fd5b505050506040513d6000823e3d601f19601f82011682018060405250810190610a38919061270e565b73c34322f1f0b9140A52e669B269F6520459cb534263b4fa799390916040518263ffffffff1660e01b8152600401610a70919061281f565b60006040518083038186803b158015610a8857600080fd5b505af4158015610a9c573d6000803e3d6000fd5b50505050600754935050505092915050565b7f73f9a0f79d0de650ebb1c7d68b67125ab5d93ce97641ba33e5e1e4b5f481921c81565b600080600084815260200190815260200160002060000160008373ffffffffffffffffffffffffffffffffffffffff1673ffffffffffffffffffffffffffffffffffffffff16815260200190815260200160002060009054906101000a900460ff16905092915050565b6000801b81565b60038054610b5090612087565b80601f0160208091040260200160405190810160405280929190818152602001828054610b7c90612087565b8015610bc95780601f10610b9e57610100808354040283529160200191610bc9565b820191906000526020600020905b815481529060010190602001808311610bac57829003601f168201915b505050505081565b60075481565b600660009054906101000a900473ffffffffffffffffffffffffffffffffffffffff1681565b610c0682610638565b610c0f81610d47565b610c19838361110c565b50505050565b600073c34322f1f0b9140A52e669B269F6520459cb534263a33598bf306040518263ffffffff1660e01b8152600401610c589190612841565b602060405180830381865af4158015610c75573d6000803e3d6000fd5b505050506040513d601f19601f82011682018060405250810190610c999190612871565b905090565b60048060000160009054906101000a900460ff16908060000160019054906101000a900473ffffffffffffffffffffffffffffffffffffffff16905082565b60007f01ffc9a7000000000000000000000000000000000000000000000000000000007bffffffffffffffffffffffffffffffffffffffffffffffffffffffff1916827bffffffffffffffffffffffffffffffffffffffffffffffffffffffff1916149050919050565b610d5881610d53611104565b6111fe565b50565b606081601f83610d6b919061289e565b1015610dac576040517f08c379a0000000000000000000000000000000000000000000000000000000008152600401610da39061291e565b60405180910390fd5b8183610db8919061289e565b84511015610dfb576040517f08c379a0000000000000000000000000000000000000000000000000000000008152600401610df29061298a565b60405180910390fd5b6060821560008114610e1c5760405191506000825260208201604052610e6d565b6040519150601f8416801560200281840101858101878315602002848b0101015b81831015610e5a5780518352602083019250602081019050610e3d565b50868552601f19601f8301166040525050505b50809150509392505050565b610e816113c4565b600082905060208101826000018181525050610e9c8161124f565b82600001510182602001818152505050919050565b60606000610ebe8361125a565b63ffffffff169050610ed9818461128290919063ffffffff16565b610ee78360000151826112d3565b91508083600001818151019150818152505050919050565b600080836000015160070b1280610f1d57506000836040015160030b135b80610f4e57507fffffffffffffffffffffffffffffffffffffffffffffffffffffffffffffff01836040015160030b125b15610f5857600080fd5b600083604001517fffffffffffffffffffffffffffffffffffffffffffffffffffffffffffffffff610f8a91906129aa565b90508060ff168360ff1610610fd5578083610fa591906129e7565b60ff16600a610fb49190612b5f565b846000015167ffffffffffffffff16610fcd9190612baa565b91505061100d565b8281610fe191906129e7565b60ff16600a610ff09190612b5f565b846000015167ffffffffffffffff166110099190612c1b565b9150505b92915050565b600061101f8383610ad2565b6110f957600160008085815260200190815260200160002060000160008473ffffffffffffffffffffffffffffffffffffffff1673ffffffffffffffffffffffffffffffffffffffff16815260200190815260200160002060006101000a81548160ff021916908315150217905550611096611104565b73ffffffffffffffffffffffffffffffffffffffff168273ffffffffffffffffffffffffffffffffffffffff16847f2f8788117e7eff1d82e926ec794901d17c78024a50270940304540a733656f0d60405160405180910390a4600190506110fe565b600090505b92915050565b600033905090565b60006111188383610ad2565b156111f357600080600085815260200190815260200160002060000160008473ffffffffffffffffffffffffffffffffffffffff1673ffffffffffffffffffffffffffffffffffffffff16815260200190815260200160002060006101000a81548160ff021916908315150217905550611190611104565b73ffffffffffffffffffffffffffffffffffffffff168273ffffffffffffffffffffffffffffffffffffffff16847ff6391f5c32d9c69d2a47ea670b442974b53935d1edc7fd64eb21e047a839171b60405160405180910390a4600190506111f8565b600090505b92915050565b6112088282610ad2565b61124b5780826040517fe2517d3f000000000000000000000000000000000000000000000000000000008152600401611242929190612c4c565b60405180910390fd5b5050565b600081519050919050565b600061127b61127360048461134390919063ffffffff16565b60e01c611380565b9050919050565b81602001518183600001510111156112cf576040517f08c379a00000000000000000000000000000000000000000000000000000000081526004016112c690612cc1565b60405180910390fd5b5050565b60606000821461133d5760405190507fffffffffffffffffffffffffffffffffffffffffffffffffffffffffffffffe0603f830116810180604052828252602082015b60011561133a57845181526020810190508181031561133a57602085019450611316565b50505b92915050565b6000611358828461128290919063ffffffff16565b611365836000015161124f565b60001b90508183600001818151019150818152505092915050565b6000600863ff00ff00831663ffffffff16901c600862ff00ff841663ffffffff16901b17915060108263ffffffff16901c60108363ffffffff16901b179050919050565b604051806040016040528060008152602001600081525090565b6000604051905090565b600080fd5b600080fd5b60007fffffffff0000000000000000000000000000000000000000000000000000000082169050919050565b611427816113f2565b811461143257600080fd5b50565b6000813590506114448161141e565b92915050565b6000602082840312156114605761145f6113e8565b5b600061146e84828501611435565b91505092915050565b60008115159050919050565b61148c81611477565b82525050565b60006020820190506114a76000830184611483565b92915050565b600073ffffffffffffffffffffffffffffffffffffffff82169050919050565b60006114d8826114ad565b9050919050565b6114e8816114cd565b82525050565b600060208201905061150360008301846114df565b92915050565b6000819050919050565b61151c81611509565b811461152757600080fd5b50565b60008135905061153981611513565b92915050565b600060208284031215611555576115546113e8565b5b60006115638482850161152a565b91505092915050565b61157581611509565b82525050565b6000602082019050611590600083018461156c565b92915050565b61159f816114cd565b81146115aa57600080fd5b50565b6000813590506115bc81611596565b92915050565b600080604083850312156115d9576115d86113e8565b5b60006115e78582860161152a565b92505060206115f8858286016115ad565b9150509250929050565b600080fd5b600080fd5b6000601f19601f8301169050919050565b7f4e487b7100000000000000000000000000000000000000000000000000000000600052604160045260246000fd5b6116558261160c565b810181811067ffffffffffffffff821117156116745761167361161d565b5b80604052505050565b60006116876113de565b9050611693828261164c565b919050565b600067ffffffffffffffff8211156116b3576116b261161d565b5b6116bc8261160c565b9050602081019050919050565b82818337600083830152505050565b60006116eb6116e684611698565b61167d565b90508281526020810184848401111561170757611706611607565b5b6117128482856116c9565b509392505050565b600082601f83011261172f5761172e611602565b5b813561173f8482602086016116d8565b91505092915050565b600060ff82169050919050565b61175e81611748565b811461176957600080fd5b50565b60008135905061177b81611755565b92915050565b60008060408385031215611798576117976113e8565b5b600083013567ffffffffffffffff8111156117b6576117b56113ed565b5b6117c28582860161171a565b92505060206117d38582860161176c565b9150509250929050565b6000819050919050565b6117f0816117dd565b82525050565b600060208201905061180b60008301846117e7565b92915050565b600081519050919050565b600082825260208201905092915050565b60005b8381101561184b578082015181840152602081019050611830565b60008484015250505050565b600061186282611811565b61186c818561181c565b935061187c81856020860161182d565b6118858161160c565b840191505092915050565b600060208201905081810360008301526118aa8184611857565b905092915050565b6000819050919050565b60006118d76118d26118cd846114ad565b6118b2565b6114ad565b9050919050565b60006118e9826118bc565b9050919050565b60006118fb826118de565b9050919050565b61190b816118f0565b82525050565b60006040820190506119266000830185611483565b6119336020830184611902565b9392505050565b7f4e487b7100000000000000000000000000000000000000000000000000000000600052602160045260246000fd5b6000819050919050565b600061198e61198961198484611969565b6118b2565b6117dd565b9050919050565b61199e81611973565b82525050565b60006020820190506119b96000830184611995565b92915050565b600080fd5b600080fd5b600381106119d657600080fd5b50565b6000815190506119e8816119c9565b92915050565b6000611a016119fc84611698565b61167d565b905082815260208101848484011115611a1d57611a1c611607565b5b611a2884828561182d565b509392505050565b600082601f830112611a4557611a44611602565b5b8151611a558482602086016119ee565b91505092915050565b600060408284031215611a7457611a736119bf565b5b611a7e604061167d565b90506000611a8e848285016119d9565b600083015250602082015167ffffffffffffffff811115611ab257611ab16119c4565b5b611abe84828501611a30565b60208301525092915050565b600060208284031215611ae057611adf6113e8565b5b600082015167ffffffffffffffff811115611afe57611afd6113ed565b5b611b0a84828501611a5e565b91505092915050565b7f6765745079746850726963652063616c6c206661696c65642d4e454152000000600082015250565b6000611b49601d8361181c565b9150611b5482611b13565b602082019050919050565b60006020820190508181036000830152611b7881611b3c565b9050919050565b7f4e487b7100000000000000000000000000000000000000000000000000000000600052603260045260246000fd5b7f6765745079746850726963652063616c6c206661696c65642d4175726f726100600082015250565b6000611be4601f8361181c565b9150611bef82611bae565b602082019050919050565b60006020820190508181036000830152611c1381611bd7565b9050919050565b7f4e487b7100000000000000000000000000000000000000000000000000000000600052601160045260246000fd5b6000611c54826117dd565b9150611c5f836117dd565b9250828203905081811115611c7757611c76611c1a565b5b92915050565b60008160070b9050919050565b611c9381611c7d565b8114611c9e57600080fd5b50565b600081519050611cb081611c8a565b92915050565b600067ffffffffffffffff82169050919050565b611cd381611cb6565b8114611cde57600080fd5b50565b600081519050611cf081611cca565b92915050565b60008160030b9050919050565b611d0c81611cf6565b8114611d1757600080fd5b50565b600081519050611d2981611d03565b92915050565b611d38816117dd565b8114611d4357600080fd5b50565b600081519050611d5581611d2f565b92915050565b600060808284031215611d7157611d706119bf565b5b611d7b608061167d565b90506000611d8b84828501611ca1565b6000830152506020611d9f84828501611ce1565b6020830152506040611db384828501611d1a565b6040830152506060611dc784828501611d46565b60608301525092915050565b600060808284031215611de957611de86113e8565b5b6000611df784828501611d5b565b91505092915050565b600081519050919050565b600082825260208201905092915050565b6000611e2782611e00565b611e318185611e0b565b9350611e4181856020860161182d565b611e4a8161160c565b840191505092915050565b60006020820190508181036000830152611e6f8184611e1c565b905092915050565b600082825260208201905092915050565b6000611e9382611e00565b611e9d8185611e77565b9350611ead81856020860161182d565b611eb68161160c565b840191505092915050565b60006020820190508181036000830152611edb8184611e88565b905092915050565b600060208284031215611ef957611ef86113e8565b5b600082015167ffffffffffffffff811115611f1757611f166113ed565b5b611f2384828501611a30565b91505092915050565b60008160f81b9050919050565b6000611f4482611f2c565b9050919050565b611f5c611f5782611748565b611f39565b82525050565b60008160601b9050919050565b6000611f7a82611f62565b9050919050565b6000611f8c82611f6f565b9050919050565b611fa4611f9f826114cd565b611f81565b82525050565b6000819050919050565b611fc5611fc0826117dd565b611faa565b82525050565b600081905092915050565b6000611fe182611e00565b611feb8185611fcb565b9350611ffb81856020860161182d565b80840191505092915050565b60006120138287611f4b565b6001820191506120238286611f93565b6014820191506120338285611fb4565b6020820191506120438284611fd6565b915081905095945050505050565b8082525050565b7f4e487b7100000000000000000000000000000000000000000000000000000000600052602260045260246000fd5b6000600282049050600182168061209f57607f821691505b6020821081036120b2576120b1612058565b5b50919050565b600082825260208201905092915050565b60008190508160005260206000209050919050565b600081546120eb81612087565b6120f581866120b8565b94506001821660008114612110576001811461212657612159565b60ff198316865281151560200286019350612159565b61212f856120c9565b60005b8381101561215157815481890152600182019150602081019050612132565b808801955050505b50505092915050565b7f63616c6c00000000000000000000000000000000000000000000000000000000600082015250565b60006121986004836120b8565b91506121a382612162565b602082019050919050565b60006fffffffffffffffffffffffffffffffff82169050919050565b60006121e56121e06121db84611969565b6118b2565b6121ae565b9050919050565b6121f5816121ca565b82525050565b61220481611cb6565b82525050565b600060c08201905061221f6000830188612051565b818103602083015261223181876120de565b905081810360408301526122448161218b565b905081810360608301526122588186611e88565b905061226760808301856121ec565b61227460a08301846121fb565b9695505050505050565b600067ffffffffffffffff8211156122995761229861161d565b5b6122a28261160c565b9050602081019050919050565b60006122c26122bd8461227e565b61167d565b9050828152602081018484840111156122de576122dd611607565b5b6122e984828561182d565b509392505050565b600082601f83011261230657612305611602565b5b81516123168482602086016122af565b91505092915050565b612328816121ae565b811461233357600080fd5b50565b6000815190506123458161231f565b92915050565b600060a08284031215612361576123606119bf565b5b61236b60a061167d565b9050600082015167ffffffffffffffff81111561238b5761238a6119c4565b5b612397848285016122f1565b600083015250602082015167ffffffffffffffff8111156123bb576123ba6119c4565b5b6123c7848285016122f1565b602083015250604082015167ffffffffffffffff8111156123eb576123ea6119c4565b5b6123f784828501611a30565b604083015250606061240b84828501612336565b606083015250608061241f84828501611ce1565b60808301525092915050565b600060208284031215612441576124406113e8565b5b600082015167ffffffffffffffff81111561245f5761245e6113ed565b5b61246b8482850161234b565b91505092915050565b6000819050919050565b61248f61248a826113f2565b612474565b82525050565b60006124a1828461247e565b60048201915081905092915050565b6124b9816114cd565b82525050565b600060a0820190506124d46000830188612051565b6124e160208301876124b0565b81810360408301526124f38186611e88565b905061250260608301856121ec565b61250f60808301846121fb565b9695505050505050565b600082825260208201905092915050565b600061253582611811565b61253f8185612519565b935061254f81856020860161182d565b6125588161160c565b840191505092915050565b600082825260208201905092915050565b600061257f82611e00565b6125898185612563565b935061259981856020860161182d565b6125a28161160c565b840191505092915050565b6125b6816121ae565b82525050565b6125c581611cb6565b82525050565b600060a08301600083015184820360008601526125e8828261252a565b91505060208301518482036020860152612602828261252a565b9150506040830151848203604086015261261c8282612574565b915050606083015161263160608601826125ad565b50608083015161264460808601826125bc565b508091505092915050565b6000604082019050818103600083015261266981856125cb565b9050818103602083015261267d81846125cb565b90509392505050565b60006040828403121561269c5761269b6119bf565b5b6126a6604061167d565b9050600082015167ffffffffffffffff8111156126c6576126c56119c4565b5b6126d28482850161234b565b600083015250602082015167ffffffffffffffff8111156126f6576126f56119c4565b5b6127028482850161234b565b60208301525092915050565b600060208284031215612724576127236113e8565b5b600082015167ffffffffffffffff811115612742576127416113ed565b5b61274e84828501612686565b91505092915050565b600060a0830160008301518482036000860152612774828261252a565b9150506020830151848203602086015261278e828261252a565b915050604083015184820360408601526127a88282612574565b91505060608301516127bd60608601826125ad565b5060808301516127d060808601826125bc565b508091505092915050565b600060408301600083015184820360008601526127f88282612757565b915050602083015184820360208601526128128282612757565b9150508091505092915050565b6000602082019050818103600083015261283981846127db565b905092915050565b600060208201905061285660008301846124b0565b92915050565b60008151905061286b81611596565b92915050565b600060208284031215612887576128866113e8565b5b60006128958482850161285c565b91505092915050565b60006128a9826117dd565b91506128b4836117dd565b92508282019050808211156128cc576128cb611c1a565b5b92915050565b7f736c6963655f6f766572666c6f77000000000000000000000000000000000000600082015250565b6000612908600e8361181c565b9150612913826128d2565b602082019050919050565b60006020820190508181036000830152612937816128fb565b9050919050565b7f736c6963655f6f75744f66426f756e6473000000000000000000000000000000600082015250565b600061297460118361181c565b915061297f8261293e565b602082019050919050565b600060208201905081810360008301526129a381612967565b9050919050565b60006129b582611cf6565b91506129c083611cf6565b92508282026129ce81611cf6565b91508082146129e0576129df611c1a565b5b5092915050565b60006129f282611748565b91506129fd83611748565b9250828203905060ff811115612a1657612a15611c1a565b5b92915050565b60008160011c9050919050565b6000808291508390505b6001851115612a7357808604811115612a4f57612a4e611c1a565b5b6001851615612a5e5780820291505b8081029050612a6c85612a1c565b9450612a33565b94509492505050565b600082612a8c5760019050612b48565b81612a9a5760009050612b48565b8160018114612ab05760028114612aba57612ae9565b6001915050612b48565b60ff841115612acc57612acb611c1a565b5b8360020a915084821115612ae357612ae2611c1a565b5b50612b48565b5060208310610133831016604e8410600b8410161715612b1e5782820a905083811115612b1957612b18611c1a565b5b612b48565b612b2b8484846001612a29565b92509050818404811115612b4257612b41611c1a565b5b81810290505b9392505050565b600063ffffffff82169050919050565b6000612b6a826117dd565b9150612b7583612b4f565b9250612ba27fffffffffffffffffffffffffffffffffffffffffffffffffffffffffffffffff8484612a7c565b905092915050565b6000612bb5826117dd565b9150612bc0836117dd565b9250828202612bce816117dd565b91508282048414831517612be557612be4611c1a565b5b5092915050565b7f4e487b7100000000000000000000000000000000000000000000000000000000600052601260045260246000fd5b6000612c26826117dd565b9150612c31836117dd565b925082612c4157612c40612bec565b5b828204905092915050565b6000604082019050612c6160008301856114df565b612c6e602083018461156c565b9392505050565b7f5061727365206572726f723a20756e657870656374656420454f490000000000600082015250565b6000612cab601b8361181c565b9150612cb682612c75565b602082019050919050565b60006020820190508181036000830152612cda81612c9e565b905091905056fea2646970667358221220866cf318a5dc82ad4d0924dd335e6012632ebc4fc4ee6c9f2576522030c764ed64736f6c63430008140033",
  "deployedBytecode": "0x608060405234801561001057600080fd5b50600436106101005760003560e01c806391d1485411610097578063ce3d448b11610066578063ce3d448b1461029d578063d547741f146102bb578063d5f9ea2f146102d7578063e602af76146102f557610100565b806391d1485414610213578063a217fddf14610243578063a51a681814610261578063b389fbed1461027f57610100565b80632f2ff15d116100d35780632f2ff15d1461018d57806336568abe146101a957806384b75b87146101c5578063918d2f41146101f557610100565b806301ffc9a71461010557806302834588146101355780630a73eb6a14610153578063248a9ca31461015d575b600080fd5b61011f600480360381019061011a919061144a565b610314565b60405161012c9190611492565b60405180910390f35b61013d61038e565b60405161014a91906114ee565b60405180910390f35b61015b6103b4565b005b6101776004803603810190610172919061153f565b610638565b604051610184919061157b565b60405180910390f35b6101a760048036038101906101a291906115c2565b610657565b005b6101c360048036038101906101be91906115c2565b610679565b005b6101df60048036038101906101da9190611781565b6106f4565b6040516101ec91906117f6565b60405180910390f35b6101fd610aae565b60405161020a919061157b565b60405180910390f35b61022d600480360381019061022891906115c2565b610ad2565b60405161023a9190611492565b60405180910390f35b61024b610b3c565b604051610258919061157b565b60405180910390f35b610269610b43565b6040516102769190611890565b60405180910390f35b610287610bd1565b60405161029491906117f6565b60405180910390f35b6102a5610bd7565b6040516102b291906114ee565b60405180910390f35b6102d560048036038101906102d091906115c2565b610bfd565b005b6102df610c1f565b6040516102ec91906114ee565b60405180910390f35b6102fd610c9e565b60405161030b929190611911565b60405180910390f35b60007f7965db0b000000000000000000000000000000000000000000000000000000007bffffffffffffffffffffffffffffffffffffffffffffffffffffffff1916827bffffffffffffffffffffffffffffffffffffffffffffffffffffffff19161480610387575061038682610cdd565b5b9050919050565b600560009054906101000a900473ffffffffffffffffffffffffffffffffffffffff1681565b7f73f9a0f79d0de650ebb1c7d68b67125ab5d93ce97641ba33e5e1e4b5f481921c6103de81610d47565b600160028111156103f2576103f161193a565b5b73__$ff4a9d42f131ddb06cb1b98765cd1b5a91$__6310cdb49360006040518263ffffffff1660e01b815260040161042a91906119a4565b600060405180830381865af4158015610447573d6000803e3d6000fd5b505050506040513d6000823e3d601f19601f820116820180604052508101906104709190611aca565b6000015160028111156104865761048561193a565b5b146104c6576040517f08c379a00000000000000000000000000000000000000000000000000000000081526004016104bd90611b5f565b60405180910390fd5b600073__$ff4a9d42f131ddb06cb1b98765cd1b5a91$__6310cdb49360006040518263ffffffff1660e01b815260040161050091906119a4565b600060405180830381865af415801561051d573d6000803e3d6000fd5b505050506040513d6000823e3d601f19601f820116820180604052508101906105469190611aca565b60200151905060008160018151811061056257610561611b7f565b5b602001015160f81c60f81b7effffffffffffffffffffffffffffffffffffffffffffffffffffffffffffff1916146105cf576040517f08c379a00000000000000000000000000000000000000000000000000000000081526004016105c690611bfa565b60405180910390fd5b60006105f96105f46105ef8460028087516105ea9190611c49565b610d5b565b610e79565b610eb1565b90506000818060200190518101906106119190611dd3565b905061062c81600860009054906101000a900460ff16610eff565b60078190555050505050565b6000806000838152602001908152602001600020600101549050919050565b61066082610638565b61066981610d47565b6106738383611013565b50505050565b610681611104565b73ffffffffffffffffffffffffffffffffffffffff168173ffffffffffffffffffffffffffffffffffffffff16146106e5576040517f6697b23200000000000000000000000000000000000000000000000000000000815260040160405180910390fd5b6106ef828261110c565b505050565b600081600860006101000a81548160ff021916908360ff1602179055506000836040516024016107249190611e55565b6040516020818303038152906040527f31d98b3f000000000000000000000000000000000000000000000000000000007bffffffffffffffffffffffffffffffffffffffffffffffffffffffff19166020820180517bffffffffffffffffffffffffffffffffffffffffffffffffffffffff838183161783525050505090506000600473__$ff4a9d42f131ddb06cb1b98765cd1b5a91$__63925be54d909160036000600660009054906101000a900473ffffffffffffffffffffffffffffffffffffffff1660008873__$b47451c9693ac4910bddd2ef01d769da1b$__6312496a1b90916040518263ffffffff1660e01b81526004016108259190611ec1565b600060405180830381865af4158015610842573d6000803e3d6000fd5b505050506040513d6000823e3d601f19601f8201168201806040525081019061086b9190611ee3565b60405160200161087e9493929190612007565b6040516020818303038152906040526000655af3107a40006040518663ffffffff1660e01b81526004016108b695949392919061220a565b600060405180830381865af41580156108d3573d6000803e3d6000fd5b505050506040513d6000823e3d601f19601f820116820180604052508101906108fc919061242b565b90506000600473__$ff4a9d42f131ddb06cb1b98765cd1b5a91$__6331b0e0e4909130630a73eb6a60e01b6040516020016109379190612495565b60405160208183030381529060405260006509184e72a0006040518663ffffffff1660e01b815260040161096f9594939291906124bf565b600060405180830381865af415801561098c573d6000803e3d6000fd5b505050506040513d6000823e3d601f19601f820116820180604052508101906109b5919061242b565b90508173__$ff4a9d42f131ddb06cb1b98765cd1b5a91$__63987cbd719091836040518363ffffffff1660e01b81526004016109f292919061264f565b600060405180830381865af4158015610a0f573d6000803e3d6000fd5b505050506040513d6000823e3d601f19601f82011682018060405250810190610a38919061270e565b73__$ff4a9d42f131ddb06cb1b98765cd1b5a91$__63b4fa799390916040518263ffffffff1660e01b8152600401610a70919061281f565b60006040518083038186803b158015610a8857600080fd5b505af4158015610a9c573d6000803e3d6000fd5b50505050600754935050505092915050565b7f73f9a0f79d0de650ebb1c7d68b67125ab5d93ce97641ba33e5e1e4b5f481921c81565b600080600084815260200190815260200160002060000160008373ffffffffffffffffffffffffffffffffffffffff1673ffffffffffffffffffffffffffffffffffffffff16815260200190815260200160002060009054906101000a900460ff16905092915050565b6000801b81565b60038054610b5090612087565b80601f0160208091040260200160405190810160405280929190818152602001828054610b7c90612087565b8015610bc95780601f10610b9e57610100808354040283529160200191610bc9565b820191906000526020600020905b815481529060010190602001808311610bac57829003601f168201915b505050505081565b60075481565b600660009054906101000a900473ffffffffffffffffffffffffffffffffffffffff1681565b610c0682610638565b610c0f81610d47565b610c19838361110c565b50505050565b600073__$ff4a9d42f131ddb06cb1b98765cd1b5a91$__63a33598bf306040518263ffffffff1660e01b8152600401610c589190612841565b602060405180830381865af4158015610c75573d6000803e3d6000fd5b505050506040513d601f19601f82011682018060405250810190610c999190612871565b905090565b60048060000160009054906101000a900460ff16908060000160019054906101000a900473ffffffffffffffffffffffffffffffffffffffff16905082565b60007f01ffc9a7000000000000000000000000000000000000000000000000000000007bffffffffffffffffffffffffffffffffffffffffffffffffffffffff1916827bffffffffffffffffffffffffffffffffffffffffffffffffffffffff1916149050919050565b610d5881610d53611104565b6111fe565b50565b606081601f83610d6b919061289e565b1015610dac576040517f08c379a0000000000000000000000000000000000000000000000000000000008152600401610da39061291e565b60405180910390fd5b8183610db8919061289e565b84511015610dfb576040517f08c379a0000000000000000000000000000000000000000000000000000000008152600401610df29061298a565b60405180910390fd5b6060821560008114610e1c5760405191506000825260208201604052610e6d565b6040519150601f8416801560200281840101858101878315602002848b0101015b81831015610e5a5780518352602083019250602081019050610e3d565b50868552601f19601f8301166040525050505b50809150509392505050565b610e816113c4565b600082905060208101826000018181525050610e9c8161124f565b82600001510182602001818152505050919050565b60606000610ebe8361125a565b63ffffffff169050610ed9818461128290919063ffffffff16565b610ee78360000151826112d3565b91508083600001818151019150818152505050919050565b600080836000015160070b1280610f1d57506000836040015160030b135b80610f4e57507fffffffffffffffffffffffffffffffffffffffffffffffffffffffffffffff01836040015160030b125b15610f5857600080fd5b600083604001517fffffffffffffffffffffffffffffffffffffffffffffffffffffffffffffffff610f8a91906129aa565b90508060ff168360ff1610610fd5578083610fa591906129e7565b60ff16600a610fb49190612b5f565b846000015167ffffffffffffffff16610fcd9190612baa565b91505061100d565b8281610fe191906129e7565b60ff16600a610ff09190612b5f565b846000015167ffffffffffffffff166110099190612c1b565b9150505b92915050565b600061101f8383610ad2565b6110f957600160008085815260200190815260200160002060000160008473ffffffffffffffffffffffffffffffffffffffff1673ffffffffffffffffffffffffffffffffffffffff16815260200190815260200160002060006101000a81548160ff021916908315150217905550611096611104565b73ffffffffffffffffffffffffffffffffffffffff168273ffffffffffffffffffffffffffffffffffffffff16847f2f8788117e7eff1d82e926ec794901d17c78024a50270940304540a733656f0d60405160405180910390a4600190506110fe565b600090505b92915050565b600033905090565b60006111188383610ad2565b156111f357600080600085815260200190815260200160002060000160008473ffffffffffffffffffffffffffffffffffffffff1673ffffffffffffffffffffffffffffffffffffffff16815260200190815260200160002060006101000a81548160ff021916908315150217905550611190611104565b73ffffffffffffffffffffffffffffffffffffffff168273ffffffffffffffffffffffffffffffffffffffff16847ff6391f5c32d9c69d2a47ea670b442974b53935d1edc7fd64eb21e047a839171b60405160405180910390a4600190506111f8565b600090505b92915050565b6112088282610ad2565b61124b5780826040517fe2517d3f000000000000000000000000000000000000000000000000000000008152600401611242929190612c4c565b60405180910390fd5b5050565b600081519050919050565b600061127b61127360048461134390919063ffffffff16565b60e01c611380565b9050919050565b81602001518183600001510111156112cf576040517f08c379a00000000000000000000000000000000000000000000000000000000081526004016112c690612cc1565b60405180910390fd5b5050565b60606000821461133d5760405190507fffffffffffffffffffffffffffffffffffffffffffffffffffffffffffffffe0603f830116810180604052828252602082015b60011561133a57845181526020810190508181031561133a57602085019450611316565b50505b92915050565b6000611358828461128290919063ffffffff16565b611365836000015161124f565b60001b90508183600001818151019150818152505092915050565b6000600863ff00ff00831663ffffffff16901c600862ff00ff841663ffffffff16901b17915060108263ffffffff16901c60108363ffffffff16901b179050919050565b604051806040016040528060008152602001600081525090565b6000604051905090565b600080fd5b600080fd5b60007fffffffff0000000000000000000000000000000000000000000000000000000082169050919050565b611427816113f2565b811461143257600080fd5b50565b6000813590506114448161141e565b92915050565b6000602082840312156114605761145f6113e8565b5b600061146e84828501611435565b91505092915050565b60008115159050919050565b61148c81611477565b82525050565b60006020820190506114a76000830184611483565b92915050565b600073ffffffffffffffffffffffffffffffffffffffff82169050919050565b60006114d8826114ad565b9050919050565b6114e8816114cd565b82525050565b600060208201905061150360008301846114df565b92915050565b6000819050919050565b61151c81611509565b811461152757600080fd5b50565b60008135905061153981611513565b92915050565b600060208284031215611555576115546113e8565b5b60006115638482850161152a565b91505092915050565b61157581611509565b82525050565b6000602082019050611590600083018461156c565b92915050565b61159f816114cd565b81146115aa57600080fd5b50565b6000813590506115bc81611596565b92915050565b600080604083850312156115d9576115d86113e8565b5b60006115e78582860161152a565b92505060206115f8858286016115ad565b9150509250929050565b600080fd5b600080fd5b6000601f19601f8301169050919050565b7f4e487b7100000000000000000000000000000000000000000000000000000000600052604160045260246000fd5b6116558261160c565b810181811067ffffffffffffffff821117156116745761167361161d565b5b80604052505050565b60006116876113de565b9050611693828261164c565b919050565b600067ffffffffffffffff8211156116b3576116b261161d565b5b6116bc8261160c565b9050602081019050919050565b82818337600083830152505050565b60006116eb6116e684611698565b61167d565b90508281526020810184848401111561170757611706611607565b5b6117128482856116c9565b509392505050565b600082601f83011261172f5761172e611602565b5b813561173f8482602086016116d8565b91505092915050565b600060ff82169050919050565b61175e81611748565b811461176957600080fd5b50565b60008135905061177b81611755565b92915050565b60008060408385031215611798576117976113e8565b5b600083013567ffffffffffffffff8111156117b6576117b56113ed565b5b6117c28582860161171a565b92505060206117d38582860161176c565b9150509250929050565b6000819050919050565b6117f0816117dd565b82525050565b600060208201905061180b60008301846117e7565b92915050565b600081519050919050565b600082825260208201905092915050565b60005b8381101561184b578082015181840152602081019050611830565b60008484015250505050565b600061186282611811565b61186c818561181c565b935061187c81856020860161182d565b6118858161160c565b840191505092915050565b600060208201905081810360008301526118aa8184611857565b905092915050565b6000819050919050565b60006118d76118d26118cd846114ad565b6118b2565b6114ad565b9050919050565b60006118e9826118bc565b9050919050565b60006118fb826118de565b9050919050565b61190b816118f0565b82525050565b60006040820190506119266000830185611483565b6119336020830184611902565b9392505050565b7f4e487b7100000000000000000000000000000000000000000000000000000000600052602160045260246000fd5b6000819050919050565b600061198e61198961198484611969565b6118b2565b6117dd565b9050919050565b61199e81611973565b82525050565b60006020820190506119b96000830184611995565b92915050565b600080fd5b600080fd5b600381106119d657600080fd5b50565b6000815190506119e8816119c9565b92915050565b6000611a016119fc84611698565b61167d565b905082815260208101848484011115611a1d57611a1c611607565b5b611a2884828561182d565b509392505050565b600082601f830112611a4557611a44611602565b5b8151611a558482602086016119ee565b91505092915050565b600060408284031215611a7457611a736119bf565b5b611a7e604061167d565b90506000611a8e848285016119d9565b600083015250602082015167ffffffffffffffff811115611ab257611ab16119c4565b5b611abe84828501611a30565b60208301525092915050565b600060208284031215611ae057611adf6113e8565b5b600082015167ffffffffffffffff811115611afe57611afd6113ed565b5b611b0a84828501611a5e565b91505092915050565b7f6765745079746850726963652063616c6c206661696c65642d4e454152000000600082015250565b6000611b49601d8361181c565b9150611b5482611b13565b602082019050919050565b60006020820190508181036000830152611b7881611b3c565b9050919050565b7f4e487b7100000000000000000000000000000000000000000000000000000000600052603260045260246000fd5b7f6765745079746850726963652063616c6c206661696c65642d4175726f726100600082015250565b6000611be4601f8361181c565b9150611bef82611bae565b602082019050919050565b60006020820190508181036000830152611c1381611bd7565b9050919050565b7f4e487b7100000000000000000000000000000000000000000000000000000000600052601160045260246000fd5b6000611c54826117dd565b9150611c5f836117dd565b9250828203905081811115611c7757611c76611c1a565b5b92915050565b60008160070b9050919050565b611c9381611c7d565b8114611c9e57600080fd5b50565b600081519050611cb081611c8a565b92915050565b600067ffffffffffffffff82169050919050565b611cd381611cb6565b8114611cde57600080fd5b50565b600081519050611cf081611cca565b92915050565b60008160030b9050919050565b611d0c81611cf6565b8114611d1757600080fd5b50565b600081519050611d2981611d03565b92915050565b611d38816117dd565b8114611d4357600080fd5b50565b600081519050611d5581611d2f565b92915050565b600060808284031215611d7157611d706119bf565b5b611d7b608061167d565b90506000611d8b84828501611ca1565b6000830152506020611d9f84828501611ce1565b6020830152506040611db384828501611d1a565b6040830152506060611dc784828501611d46565b60608301525092915050565b600060808284031215611de957611de86113e8565b5b6000611df784828501611d5b565b91505092915050565b600081519050919050565b600082825260208201905092915050565b6000611e2782611e00565b611e318185611e0b565b9350611e4181856020860161182d565b611e4a8161160c565b840191505092915050565b60006020820190508181036000830152611e6f8184611e1c565b905092915050565b600082825260208201905092915050565b6000611e9382611e00565b611e9d8185611e77565b9350611ead81856020860161182d565b611eb68161160c565b840191505092915050565b60006020820190508181036000830152611edb8184611e88565b905092915050565b600060208284031215611ef957611ef86113e8565b5b600082015167ffffffffffffffff811115611f1757611f166113ed565b5b611f2384828501611a30565b91505092915050565b60008160f81b9050919050565b6000611f4482611f2c565b9050919050565b611f5c611f5782611748565b611f39565b82525050565b60008160601b9050919050565b6000611f7a82611f62565b9050919050565b6000611f8c82611f6f565b9050919050565b611fa4611f9f826114cd565b611f81565b82525050565b6000819050919050565b611fc5611fc0826117dd565b611faa565b82525050565b600081905092915050565b6000611fe182611e00565b611feb8185611fcb565b9350611ffb81856020860161182d565b80840191505092915050565b60006120138287611f4b565b6001820191506120238286611f93565b6014820191506120338285611fb4565b6020820191506120438284611fd6565b915081905095945050505050565b8082525050565b7f4e487b7100000000000000000000000000000000000000000000000000000000600052602260045260246000fd5b6000600282049050600182168061209f57607f821691505b6020821081036120b2576120b1612058565b5b50919050565b600082825260208201905092915050565b60008190508160005260206000209050919050565b600081546120eb81612087565b6120f581866120b8565b94506001821660008114612110576001811461212657612159565b60ff198316865281151560200286019350612159565b61212f856120c9565b60005b8381101561215157815481890152600182019150602081019050612132565b808801955050505b50505092915050565b7f63616c6c00000000000000000000000000000000000000000000000000000000600082015250565b60006121986004836120b8565b91506121a382612162565b602082019050919050565b60006fffffffffffffffffffffffffffffffff82169050919050565b60006121e56121e06121db84611969565b6118b2565b6121ae565b9050919050565b6121f5816121ca565b82525050565b61220481611cb6565b82525050565b600060c08201905061221f6000830188612051565b818103602083015261223181876120de565b905081810360408301526122448161218b565b905081810360608301526122588186611e88565b905061226760808301856121ec565b61227460a08301846121fb565b9695505050505050565b600067ffffffffffffffff8211156122995761229861161d565b5b6122a28261160c565b9050602081019050919050565b60006122c26122bd8461227e565b61167d565b9050828152602081018484840111156122de576122dd611607565b5b6122e984828561182d565b509392505050565b600082601f83011261230657612305611602565b5b81516123168482602086016122af565b91505092915050565b612328816121ae565b811461233357600080fd5b50565b6000815190506123458161231f565b92915050565b600060a08284031215612361576123606119bf565b5b61236b60a061167d565b9050600082015167ffffffffffffffff81111561238b5761238a6119c4565b5b612397848285016122f1565b600083015250602082015167ffffffffffffffff8111156123bb576123ba6119c4565b5b6123c7848285016122f1565b602083015250604082015167ffffffffffffffff8111156123eb576123ea6119c4565b5b6123f784828501611a30565b604083015250606061240b84828501612336565b606083015250608061241f84828501611ce1565b60808301525092915050565b600060208284031215612441576124406113e8565b5b600082015167ffffffffffffffff81111561245f5761245e6113ed565b5b61246b8482850161234b565b91505092915050565b6000819050919050565b61248f61248a826113f2565b612474565b82525050565b60006124a1828461247e565b60048201915081905092915050565b6124b9816114cd565b82525050565b600060a0820190506124d46000830188612051565b6124e160208301876124b0565b81810360408301526124f38186611e88565b905061250260608301856121ec565b61250f60808301846121fb565b9695505050505050565b600082825260208201905092915050565b600061253582611811565b61253f8185612519565b935061254f81856020860161182d565b6125588161160c565b840191505092915050565b600082825260208201905092915050565b600061257f82611e00565b6125898185612563565b935061259981856020860161182d565b6125a28161160c565b840191505092915050565b6125b6816121ae565b82525050565b6125c581611cb6565b82525050565b600060a08301600083015184820360008601526125e8828261252a565b91505060208301518482036020860152612602828261252a565b9150506040830151848203604086015261261c8282612574565b915050606083015161263160608601826125ad565b50608083015161264460808601826125bc565b508091505092915050565b6000604082019050818103600083015261266981856125cb565b9050818103602083015261267d81846125cb565b90509392505050565b60006040828403121561269c5761269b6119bf565b5b6126a6604061167d565b9050600082015167ffffffffffffffff8111156126c6576126c56119c4565b5b6126d28482850161234b565b600083015250602082015167ffffffffffffffff8111156126f6576126f56119c4565b5b6127028482850161234b565b60208301525092915050565b600060208284031215612724576127236113e8565b5b600082015167ffffffffffffffff811115612742576127416113ed565b5b61274e84828501612686565b91505092915050565b600060a0830160008301518482036000860152612774828261252a565b9150506020830151848203602086015261278e828261252a565b915050604083015184820360408601526127a88282612574565b91505060608301516127bd60608601826125ad565b5060808301516127d060808601826125bc565b508091505092915050565b600060408301600083015184820360008601526127f88282612757565b915050602083015184820360208601526128128282612757565b9150508091505092915050565b6000602082019050818103600083015261283981846127db565b905092915050565b600060208201905061285660008301846124b0565b92915050565b60008151905061286b81611596565b92915050565b600060208284031215612887576128866113e8565b5b60006128958482850161285c565b91505092915050565b60006128a9826117dd565b91506128b4836117dd565b92508282019050808211156128cc576128cb611c1a565b5b92915050565b7f736c6963655f6f766572666c6f77000000000000000000000000000000000000600082015250565b6000612908600e8361181c565b9150612913826128d2565b602082019050919050565b60006020820190508181036000830152612937816128fb565b9050919050565b7f736c6963655f6f75744f66426f756e6473000000000000000000000000000000600082015250565b600061297460118361181c565b915061297f8261293e565b602082019050919050565b600060208201905081810360008301526129a381612967565b9050919050565b60006129b582611cf6565b91506129c083611cf6565b92508282026129ce81611cf6565b91508082146129e0576129df611c1a565b5b5092915050565b60006129f282611748565b91506129fd83611748565b9250828203905060ff811115612a1657612a15611c1a565b5b92915050565b60008160011c9050919050565b6000808291508390505b6001851115612a7357808604811115612a4f57612a4e611c1a565b5b6001851615612a5e5780820291505b8081029050612a6c85612a1c565b9450612a33565b94509492505050565b600082612a8c5760019050612b48565b81612a9a5760009050612b48565b8160018114612ab05760028114612aba57612ae9565b6001915050612b48565b60ff841115612acc57612acb611c1a565b5b8360020a915084821115612ae357612ae2611c1a565b5b50612b48565b5060208310610133831016604e8410600b8410161715612b1e5782820a905083811115612b1957612b18611c1a565b5b612b48565b612b2b8484846001612a29565b92509050818404811115612b4257612b41611c1a565b5b81810290505b9392505050565b600063ffffffff82169050919050565b6000612b6a826117dd565b9150612b7583612b4f565b9250612ba27fffffffffffffffffffffffffffffffffffffffffffffffffffffffffffffffff8484612a7c565b905092915050565b6000612bb5826117dd565b9150612bc0836117dd565b9250828202612bce816117dd565b91508282048414831517612be557612be4611c1a565b5b5092915050565b7f4e487b7100000000000000000000000000000000000000000000000000000000600052601260045260246000fd5b6000612c26826117dd565b9150612c31836117dd565b925082612c4157612c40612bec565b5b828204905092915050565b6000604082019050612c6160008301856114df565b612c6e602083018461156c565b9392505050565b7f5061727365206572726f723a20756e657870656374656420454f490000000000600082015250565b6000612cab601b8361181c565b9150612cb682612c75565b602082019050919050565b60006020820190508181036000830152612cda81612c9e565b905091905056fea2646970667358221220866cf318a5dc82ad4d0924dd335e6012632ebc4fc4ee6c9f2576522030c764ed64736f6c63430008140033",
  "libraries": {
    "AuroraSdk": "0xc34322f1f0b9140A52e669B269F6520459cb5342",
    "Codec": "0xB4404F32bEC247537F230C6657Fb34c7e6FB8a3c"
  },
  "devdoc": {
    "errors": {
      "AccessControlBadConfirmation()": [
        {
          "details": "The caller of a function is not the expected one. NOTE: Don't confuse with {AccessControlUnauthorizedAccount}."
        }
      ],
      "AccessControlUnauthorizedAccount(address,bytes32)": [
        {
          "details": "The `account` is missing a role."
        }
      ]
    },
    "events": {
      "RoleAdminChanged(bytes32,bytes32,bytes32)": {
        "details": "Emitted when `newAdminRole` is set as ``role``'s admin role, replacing `previousAdminRole` `DEFAULT_ADMIN_ROLE` is the starting admin for all roles, despite {RoleAdminChanged} not being emitted signaling this."
      },
      "RoleGranted(bytes32,address,address)": {
        "details": "Emitted when `account` is granted `role`. `sender` is the account that originated the contract call, an admin role bearer except when using {AccessControl-_setupRole}."
      },
      "RoleRevoked(bytes32,address,address)": {
        "details": "Emitted when `account` is revoked `role`. `sender` is the account that originated the contract call:   - if using `revokeRole`, it is the admin role bearer   - if using `renounceRole`, it is the role bearer (i.e. `account`)"
      }
    },
    "kind": "dev",
    "methods": {
      "getRoleAdmin(bytes32)": {
        "details": "Returns the admin role that controls `role`. See {grantRole} and {revokeRole}. To change a role's admin, use {_setRoleAdmin}."
      },
      "grantRole(bytes32,address)": {
        "details": "Grants `role` to `account`. If `account` had not been already granted `role`, emits a {RoleGranted} event. Requirements: - the caller must have ``role``'s admin role. May emit a {RoleGranted} event."
      },
      "hasRole(bytes32,address)": {
        "details": "Returns `true` if `account` has been granted `role`."
      },
      "renounceRole(bytes32,address)": {
        "details": "Revokes `role` from the calling account. Roles are often managed via {grantRole} and {revokeRole}: this function's purpose is to provide a mechanism for accounts to lose their privileges if they are compromised (such as when a trusted device is misplaced). If the calling account had been revoked `role`, emits a {RoleRevoked} event. Requirements: - the caller must be `callerConfirmation`. May emit a {RoleRevoked} event."
      },
      "revokeRole(bytes32,address)": {
        "details": "Revokes `role` from `account`. If `account` had been granted `role`, emits a {RoleRevoked} event. Requirements: - the caller must have ``role``'s admin role. May emit a {RoleRevoked} event."
      },
      "supportsInterface(bytes4)": {
        "details": "See {IERC165-supportsInterface}."
      }
    },
    "version": 1
  },
  "userdoc": {
    "kind": "user",
    "methods": {},
    "notice": "A simple oracle example deployed on an Aurora Silo which uses a Uniswap V2 pool (Trisolaris) as price feed from Aurora Mainnet. The result of the XCC call is returned in the callback from Aurora Mainnet to the Silo.",
    "version": 1
  },
  "storageLayout": {
    "storage": [
      {
        "astId": 26,
        "contract": "contracts/PythOracle.sol:PythOracle",
        "label": "_roles",
        "offset": 0,
        "slot": "0",
        "type": "t_mapping(t_bytes32,t_struct(RoleData)21_storage)"
      },
      {
        "astId": 1078,
        "contract": "contracts/PythOracle.sol:PythOracle",
        "label": "pyth",
        "offset": 0,
        "slot": "1",
        "type": "t_contract(IPyth)659"
      },
      {
        "astId": 1080,
        "contract": "contracts/PythOracle.sol:PythOracle",
        "label": "fee",
        "offset": 0,
        "slot": "2",
        "type": "t_uint256"
      },
      {
        "astId": 1087,
        "contract": "contracts/PythOracle.sol:PythOracle",
        "label": "auroraMainnetAccountId",
        "offset": 0,
        "slot": "3",
        "type": "t_string_storage"
      },
      {
        "astId": 1090,
        "contract": "contracts/PythOracle.sol:PythOracle",
        "label": "near",
        "offset": 0,
        "slot": "4",
        "type": "t_struct(NEAR)1435_storage"
      },
      {
        "astId": 1092,
        "contract": "contracts/PythOracle.sol:PythOracle",
        "label": "wNEAR",
        "offset": 0,
        "slot": "5",
        "type": "t_address"
      },
      {
        "astId": 1094,
        "contract": "contracts/PythOracle.sol:PythOracle",
        "label": "priceFeedAddr",
        "offset": 0,
        "slot": "6",
        "type": "t_address"
      },
      {
        "astId": 1096,
        "contract": "contracts/PythOracle.sol:PythOracle",
        "label": "priceResult",
        "offset": 0,
        "slot": "7",
        "type": "t_uint256"
      },
      {
        "astId": 1098,
        "contract": "contracts/PythOracle.sol:PythOracle",
        "label": "targetPriceDecimals",
        "offset": 0,
        "slot": "8",
        "type": "t_uint8"
      }
    ],
    "types": {
      "t_address": {
        "encoding": "inplace",
        "label": "address",
        "numberOfBytes": "20"
      },
      "t_bool": {
        "encoding": "inplace",
        "label": "bool",
        "numberOfBytes": "1"
      },
      "t_bytes32": {
        "encoding": "inplace",
        "label": "bytes32",
        "numberOfBytes": "32"
      },
      "t_contract(IERC20)456": {
        "encoding": "inplace",
        "label": "contract IERC20",
        "numberOfBytes": "20"
      },
      "t_contract(IPyth)659": {
        "encoding": "inplace",
        "label": "contract IPyth",
        "numberOfBytes": "20"
      },
      "t_mapping(t_address,t_bool)": {
        "encoding": "mapping",
        "key": "t_address",
        "label": "mapping(address => bool)",
        "numberOfBytes": "32",
        "value": "t_bool"
      },
      "t_mapping(t_bytes32,t_struct(RoleData)21_storage)": {
        "encoding": "mapping",
        "key": "t_bytes32",
        "label": "mapping(bytes32 => struct AccessControl.RoleData)",
        "numberOfBytes": "32",
        "value": "t_struct(RoleData)21_storage"
      },
      "t_string_storage": {
        "encoding": "bytes",
        "label": "string",
        "numberOfBytes": "32"
      },
      "t_struct(NEAR)1435_storage": {
        "encoding": "inplace",
        "label": "struct NEAR",
        "members": [
          {
            "astId": 1430,
            "contract": "contracts/PythOracle.sol:PythOracle",
            "label": "initialized",
            "offset": 0,
            "slot": "0",
            "type": "t_bool"
          },
          {
            "astId": 1434,
            "contract": "contracts/PythOracle.sol:PythOracle",
            "label": "wNEAR",
            "offset": 1,
            "slot": "0",
            "type": "t_contract(IERC20)456"
          }
        ],
        "numberOfBytes": "32"
      },
      "t_struct(RoleData)21_storage": {
        "encoding": "inplace",
        "label": "struct AccessControl.RoleData",
        "members": [
          {
            "astId": 18,
            "contract": "contracts/PythOracle.sol:PythOracle",
            "label": "hasRole",
            "offset": 0,
            "slot": "0",
            "type": "t_mapping(t_address,t_bool)"
          },
          {
            "astId": 20,
            "contract": "contracts/PythOracle.sol:PythOracle",
            "label": "adminRole",
            "offset": 0,
            "slot": "1",
            "type": "t_bytes32"
          }
        ],
        "numberOfBytes": "64"
      },
      "t_uint256": {
        "encoding": "inplace",
        "label": "uint256",
        "numberOfBytes": "32"
      },
      "t_uint8": {
        "encoding": "inplace",
        "label": "uint8",
        "numberOfBytes": "1"
      }
    }
  }
}