{
  "address": "0x8ad1217d2de89275493aEf5a2440c3a5e4015C5A",
  "abi": [
    {
      "inputs": [
        {
          "internalType": "bytes",
          "name": "buffer",
          "type": "bytes"
        }
      ],
      "name": "bytesToHex",
      "outputs": [
        {
          "internalType": "string",
          "name": "",
          "type": "string"
        }
      ],
      "stateMutability": "pure",
      "type": "function"
    }
  ],
  "transactionHash": "0x78f83be66bfbe87865735c940b6c0708229f9534a52d203f4ee944822cafa56f",
  "args": [],
  "numDeployments": 1,
  "solcInputHash": "b19efaa856b0e99e3f570a4a82735fac",
  "bytecode": "0x61040461003a600b82828239805160001a60731461002d57634e487b7160e01b600052600060045260246000fd5b30600052607381538281f3fe73000000000000000000000000000000000000000030146080604052600436106100355760003560e01c8063451d89fa1461003a575b600080fd5b61004d61004836600461021c565b610063565b60405161005a91906102cd565b60405180910390f35b60606000825160026100759190610331565b67ffffffffffffffff81111561008d5761008d610206565b6040519080825280601f01601f1916602001820160405280156100b7576020820181803683370190505b5060408051808201909152601081526f181899199a1a9b1b9c1cb0b131b232b360811b602082015290915060005b84518110156101fd578182518683815181106101035761010361034e565b0160200151610115919060f81c61037a565b815181106101255761012561034e565b01602001516001600160f81b03191683610140836002610331565b815181106101505761015061034e565b60200101906001600160f81b031916908160001a90535081825186838151811061017c5761017c61034e565b016020015161018e919060f81c61038e565b8151811061019e5761019e61034e565b01602001516001600160f81b031916836101b9836002610331565b6101c49060016103a2565b815181106101d4576101d461034e565b60200101906001600160f81b031916908160001a905350806101f5816103b5565b9150506100e5565b50909392505050565b634e487b7160e01b600052604160045260246000fd5b60006020828403121561022e57600080fd5b813567ffffffffffffffff8082111561024657600080fd5b818401915084601f83011261025a57600080fd5b81358181111561026c5761026c610206565b604051601f8201601f19908116603f0116810190838211818310171561029457610294610206565b816040528281528760208487010111156102ad57600080fd5b826020860160208301376000928101602001929092525095945050505050565b600060208083528351808285015260005b818110156102fa578581018301518582016040015282016102de565b506000604082860101526040601f19601f8301168501019250505092915050565b634e487b7160e01b600052601160045260246000fd5b80820281158282048414176103485761034861031b565b92915050565b634e487b7160e01b600052603260045260246000fd5b634e487b7160e01b600052601260045260246000fd5b60008261038957610389610364565b500490565b60008261039d5761039d610364565b500690565b808201808211156103485761034861031b565b6000600182016103c7576103c761031b565b506001019056fea264697066735822122050618cad964b77232071dab886f4dbec78ae6d2774ebb2e7723d66760c2c758964736f6c63430008140033",
  "devdoc": {
    "kind": "dev",
    "methods": {},
    "version": 1
  },
  "userdoc": {
    "kind": "user",
    "methods": {
      "bytesToHex(bytes)": {
        "notice": "Convert array of bytes to hexadecimal string. https://ethereum.stackexchange.com/a/126928/45323"
      }
    },
    "version": 1
  },
  "storageLayout": {
    "storage": [],
    "types": null
  }
}